{
    "_format": "hh-sol-artifact-1",
    "contractName": "LoyaltyProgramFactory",
    "sourceName": "contracts/LoyaltyProgramFactory.sol",
    "abi": [
        {
            "inputs": [
                {
                    "internalType": "address",
                    "name": "_omniTokenAddress",
                    "type": "address"
                }
            ],
            "stateMutability": "nonpayable",
            "type": "constructor"
        },
        {
            "anonymous": false,
            "inputs": [
                {
                    "indexed": true,
                    "internalType": "address",
                    "name": "loyaltyProgram",
                    "type": "address"
                },
                {
                    "indexed": true,
                    "internalType": "address",
                    "name": "commerceAddress",
                    "type": "address"
                },
                {
                    "indexed": false,
                    "internalType": "string",
                    "name": "commerceName",
                    "type": "string"
                }
            ],
            "name": "LoyaltyProgramCreated",
            "type": "event"
        },
        {
            "anonymous": false,
            "inputs": [
                {
                    "indexed": true,
                    "internalType": "address",
                    "name": "previousOwner",
                    "type": "address"
                },
                {
                    "indexed": true,
                    "internalType": "address",
                    "name": "newOwner",
                    "type": "address"
                }
            ],
            "name": "OwnershipTransferred",
            "type": "event"
        },
        {
            "anonymous": false,
            "inputs": [
                {
                    "indexed": true,
                    "internalType": "address",
                    "name": "to",
                    "type": "address"
                },
                {
                    "indexed": false,
                    "internalType": "uint256",
                    "name": "amount",
                    "type": "uint256"
                }
            ],
            "name": "TokensMinted",
            "type": "event"
        },
        {
            "anonymous": false,
            "inputs": [
                {
                    "indexed": true,
                    "internalType": "address",
                    "name": "loyaltyProgram",
                    "type": "address"
                },
                {
                    "indexed": false,
                    "internalType": "uint256",
                    "name": "amount",
                    "type": "uint256"
                }
            ],
            "name": "TokensTransferred",
            "type": "event"
        },
        {
            "anonymous": false,
            "inputs": [
                {
                    "indexed": true,
                    "internalType": "address",
                    "name": "userAddress",
                    "type": "address"
                },
                {
                    "indexed": false,
                    "internalType": "string",
                    "name": "loyaltyId",
                    "type": "string"
                },
                {
                    "indexed": false,
                    "internalType": "address",
                    "name": "loyaltyProgram",
                    "type": "address"
                }
            ],
            "name": "UserAdded",
            "type": "event"
        },
        {
            "inputs": [
                {
                    "internalType": "address",
                    "name": "loyaltyProgramAddress",
                    "type": "address"
                }
            ],
            "name": "addTrustedRelayer",
            "outputs": [],
            "stateMutability": "nonpayable",
            "type": "function"
        },
        {
            "inputs": [
                {
                    "internalType": "address",
                    "name": "userAddress",
                    "type": "address"
                },
                {
                    "internalType": "string",
                    "name": "loyaltyId",
                    "type": "string"
                },
                {
                    "internalType": "string",
                    "name": "loyaltyPrefix",
                    "type": "string"
                }
            ],
            "name": "addUserInfo",
            "outputs": [],
            "stateMutability": "nonpayable",
            "type": "function"
        },
        {
            "inputs": [
                {
                    "internalType": "uint256",
                    "name": "",
                    "type": "uint256"
                }
            ],
            "name": "commerceAddresses",
            "outputs": [
                {
                    "internalType": "address",
                    "name": "",
                    "type": "address"
                }
            ],
            "stateMutability": "view",
            "type": "function"
        },
        {
            "inputs": [
                {
                    "internalType": "address",
                    "name": "",
                    "type": "address"
                }
            ],
            "name": "commerceDetailsByAddress",
            "outputs": [
                {
                    "internalType": "string",
                    "name": "name",
                    "type": "string"
                },
                {
                    "internalType": "address",
                    "name": "loyaltyProgramAddress",
                    "type": "address"
                },
                {
                    "internalType": "string",
                    "name": "prefix",
                    "type": "string"
                }
            ],
            "stateMutability": "view",
            "type": "function"
        },
        {
            "inputs": [
                {
                    "internalType": "address",
                    "name": "commerceAddress",
                    "type": "address"
                },
                {
                    "internalType": "string",
                    "name": "commerceName",
                    "type": "string"
                },
                {
                    "internalType": "string",
                    "name": "commercePrefix",
                    "type": "string"
                }
            ],
            "name": "createLoyaltyProgram",
            "outputs": [
                {
                    "internalType": "contract LoyaltyProgram",
                    "name": "",
                    "type": "address"
                }
            ],
            "stateMutability": "nonpayable",
            "type": "function"
        },
        {
            "inputs": [
                {
                    "internalType": "address",
                    "name": "_loyaltyProgramAddress",
                    "type": "address"
                },
                {
                    "internalType": "uint256",
                    "name": "_amount",
                    "type": "uint256"
                }
            ],
            "name": "fundLoyaltyProgram",
            "outputs": [
                {
                    "internalType": "bool",
                    "name": "",
                    "type": "bool"
                }
            ],
            "stateMutability": "nonpayable",
            "type": "function"
        },
        {
            "inputs": [
                {
                    "internalType": "address",
                    "name": "_commerceAddress",
                    "type": "address"
                }
            ],
            "name": "getCommerceByAddress",
            "outputs": [
                {
                    "internalType": "string",
                    "name": "name",
                    "type": "string"
                },
                {
                    "internalType": "address",
                    "name": "loyaltyProgramAddress",
                    "type": "address"
                }
            ],
            "stateMutability": "view",
            "type": "function"
        },
        {
            "inputs": [],
            "name": "getCommerceCount",
            "outputs": [
                {
                    "internalType": "uint256",
                    "name": "",
                    "type": "uint256"
                }
            ],
            "stateMutability": "view",
            "type": "function"
        },
        {
            "inputs": [
                {
                    "internalType": "address",
                    "name": "userAddress",
                    "type": "address"
                }
            ],
            "name": "getUserInfoByAddress",
            "outputs": [
                {
                    "internalType": "string",
                    "name": "loyaltyId",
                    "type": "string"
                },
                {
                    "internalType": "address",
                    "name": "loyaltyProgram",
                    "type": "address"
                }
            ],
            "stateMutability": "view",
            "type": "function"
        },
        {
            "inputs": [
                {
                    "internalType": "string",
                    "name": "",
                    "type": "string"
                }
            ],
            "name": "loyaltyProgramByPrefix",
            "outputs": [
                {
                    "internalType": "address",
                    "name": "",
                    "type": "address"
                }
            ],
            "stateMutability": "view",
            "type": "function"
        },
        {
            "inputs": [
                {
                    "internalType": "uint256",
                    "name": "_amount",
                    "type": "uint256"
                }
            ],
            "name": "mintTokens",
            "outputs": [],
            "stateMutability": "nonpayable",
            "type": "function"
        },
        {
            "inputs": [
                {
                    "internalType": "uint256",
                    "name": "_amount",
                    "type": "uint256"
                },
                {
                    "internalType": "address",
                    "name": "_loyaltyProgramAddress",
                    "type": "address"
                }
            ],
            "name": "mintTokensToAddress",
            "outputs": [],
            "stateMutability": "nonpayable",
            "type": "function"
        },
        {
            "inputs": [],
            "name": "omniToken",
            "outputs": [
                {
                    "internalType": "contract OmniToken",
                    "name": "",
                    "type": "address"
                }
            ],
            "stateMutability": "view",
            "type": "function"
        },
        {
            "inputs": [],
            "name": "owner",
            "outputs": [
                {
                    "internalType": "address",
                    "name": "",
                    "type": "address"
                }
            ],
            "stateMutability": "view",
            "type": "function"
        },
        {
            "inputs": [],
            "name": "renounceOwnership",
            "outputs": [],
            "stateMutability": "nonpayable",
            "type": "function"
        },
        {
            "inputs": [
                {
                    "internalType": "address",
                    "name": "newOwner",
                    "type": "address"
                }
            ],
            "name": "transferOwnership",
            "outputs": [],
            "stateMutability": "nonpayable",
            "type": "function"
        },
        {
            "inputs": [
                {
                    "internalType": "address",
                    "name": "",
                    "type": "address"
                }
            ],
            "name": "userInfoByAddress",
            "outputs": [
                {
                    "internalType": "string",
                    "name": "loyaltyId",
                    "type": "string"
                },
                {
                    "internalType": "address",
                    "name": "loyaltyProgram",
                    "type": "address"
                }
            ],
            "stateMutability": "view",
            "type": "function"
        }
    ],
    "bytecode": "0x60806040523480156200001157600080fd5b5060405162005f9738038062005f978339818101604052810190620000379190620001d5565b620000576200004b6200009f60201b60201c565b620000a760201b60201c565b80600160006101000a81548173ffffffffffffffffffffffffffffffffffffffff021916908373ffffffffffffffffffffffffffffffffffffffff1602179055505062000207565b600033905090565b60008060009054906101000a900473ffffffffffffffffffffffffffffffffffffffff169050816000806101000a81548173ffffffffffffffffffffffffffffffffffffffff021916908373ffffffffffffffffffffffffffffffffffffffff1602179055508173ffffffffffffffffffffffffffffffffffffffff168173ffffffffffffffffffffffffffffffffffffffff167f8be0079c531659141344cd1fd0a4f28419497f9722a3daafe3b4186f6b6457e060405160405180910390a35050565b600080fd5b600073ffffffffffffffffffffffffffffffffffffffff82169050919050565b60006200019d8262000170565b9050919050565b620001af8162000190565b8114620001bb57600080fd5b50565b600081519050620001cf81620001a4565b92915050565b600060208284031215620001ee57620001ed6200016b565b5b6000620001fe84828501620001be565b91505092915050565b615d8080620002176000396000f3fe60806040523480156200001157600080fd5b5060043610620001245760003560e01c80638da5cb5b11620000b1578063c2ce9a20116200007b578063c2ce9a20146200030d578063c57e89011462000344578063c5df97131462000364578063f2fde38b146200039a578063f5625a7414620003ba5762000124565b80638da5cb5b146200025e57806397304ced14620002805780639b39053b14620002a0578063be815f5c14620002d65762000124565b806366f07f8a11620000f357806366f07f8a14620001c3578063715018a614620001fa57806377706824146200020657806385ec851114620002265762000124565b80630186f8a4146200012957806314762824146200014b57806351209672146200016b578063632f972c14620001a1575b600080fd5b62000133620003f0565b60405162000142919062001a26565b60405180910390f35b62000169600480360381019062000163919062001bfe565b62000416565b005b62000189600480360381019062000183919062001c98565b62000697565b60405162000198919062001cfa565b60405180910390f35b620001ab620006e0565b604051620001ba919062001d32565b60405180910390f35b620001e16004803603810190620001db919062001d4f565b620006ed565b604051620001f192919062001e0a565b60405180910390f35b6200020462000842565b005b6200022460048036038101906200021e919062001e6f565b6200085a565b005b6200024460048036038101906200023e919062001d4f565b6200094b565b604051620002559392919062001eb6565b60405180910390f35b6200026862000ab5565b60405162000277919062001cfa565b60405180910390f35b6200029e600480360381019062000298919062001f01565b62000ade565b005b620002be6004803603810190620002b8919062001bfe565b62000bce565b604051620002cd919062001f58565b60405180910390f35b620002f46004803603810190620002ee919062001d4f565b62000f37565b6040516200030492919062001e0a565b60405180910390f35b6200032b600480360381019062000325919062001d4f565b62001126565b6040516200033b92919062001e0a565b60405180910390f35b6200036260048036038101906200035c919062001d4f565b620011fa565b005b6200038260048036038101906200037c919062001f75565b62001298565b60405162000391919062001fd9565b60405180910390f35b620003b86004803603810190620003b2919062001d4f565b62001433565b005b620003d86004803603810190620003d2919062001f01565b620014bd565b604051620003e7919062001cfa565b60405180910390f35b600160009054906101000a900473ffffffffffffffffffffffffffffffffffffffff1681565b62000420620014fd565b6000600460008573ffffffffffffffffffffffffffffffffffffffff1673ffffffffffffffffffffffffffffffffffffffff1681526020019081526020016000206000018054620004719062002025565b905014620004b6576040517f08c379a0000000000000000000000000000000000000000000000000000000008152600401620004ad90620020aa565b60405180910390fd5b6000600582604051620004ca91906200210e565b908152602001604051809103902060009054906101000a900473ffffffffffffffffffffffffffffffffffffffff169050600073ffffffffffffffffffffffffffffffffffffffff168173ffffffffffffffffffffffffffffffffffffffff16036200056d576040517f08c379a0000000000000000000000000000000000000000000000000000000008152600401620005649062002177565b60405180910390fd5b600060405180604001604052808581526020018373ffffffffffffffffffffffffffffffffffffffff16815250905080600460008773ffffffffffffffffffffffffffffffffffffffff1673ffffffffffffffffffffffffffffffffffffffff1681526020019081526020016000206000820151816000019081620005f3919062002361565b5060208201518160010160006101000a81548173ffffffffffffffffffffffffffffffffffffffff021916908373ffffffffffffffffffffffffffffffffffffffff1602179055509050508473ffffffffffffffffffffffffffffffffffffffff167f8f04b77d4d49fb041de5419b04bd446e581f35e3d006c5b6dd0952f2a4354f8785846040516200068892919062001e0a565b60405180910390a25050505050565b6005818051602081018201805184825260208301602085012081835280955050505050506000915054906101000a900473ffffffffffffffffffffffffffffffffffffffff1681565b6000600280549050905090565b6060600080600460008573ffffffffffffffffffffffffffffffffffffffff1673ffffffffffffffffffffffffffffffffffffffff1681526020019081526020016000206040518060400160405290816000820180546200074e9062002025565b80601f01602080910402602001604051908101604052809291908181526020018280546200077c9062002025565b8015620007cd5780601f10620007a157610100808354040283529160200191620007cd565b820191906000526020600020905b815481529060010190602001808311620007af57829003601f168201915b505050505081526020016001820160009054906101000a900473ffffffffffffffffffffffffffffffffffffffff1673ffffffffffffffffffffffffffffffffffffffff1673ffffffffffffffffffffffffffffffffffffffff16815250509050806000015181602001519250925050915091565b6200084c620014fd565b62000858600062001582565b565b62000864620014fd565b600160009054906101000a900473ffffffffffffffffffffffffffffffffffffffff1673ffffffffffffffffffffffffffffffffffffffff166340c10f1982846040518363ffffffff1660e01b8152600401620008c392919062002448565b600060405180830381600087803b158015620008de57600080fd5b505af1158015620008f3573d6000803e3d6000fd5b505050508073ffffffffffffffffffffffffffffffffffffffff167f3f2c9d57c068687834f0de942a9babb9e5acab57d516d3480a3c16ee165a4273836040516200093f919062001d32565b60405180910390a25050565b6003602052806000526040600020600091509050806000018054620009709062002025565b80601f01602080910402602001604051908101604052809291908181526020018280546200099e9062002025565b8015620009ef5780601f10620009c357610100808354040283529160200191620009ef565b820191906000526020600020905b815481529060010190602001808311620009d157829003601f168201915b5050505050908060010160009054906101000a900473ffffffffffffffffffffffffffffffffffffffff169080600201805462000a2c9062002025565b80601f016020809104026020016040519081016040528092919081815260200182805462000a5a9062002025565b801562000aab5780601f1062000a7f5761010080835404028352916020019162000aab565b820191906000526020600020905b81548152906001019060200180831162000a8d57829003601f168201915b5050505050905083565b60008060009054906101000a900473ffffffffffffffffffffffffffffffffffffffff16905090565b62000ae8620014fd565b600160009054906101000a900473ffffffffffffffffffffffffffffffffffffffff1673ffffffffffffffffffffffffffffffffffffffff166340c10f1930836040518363ffffffff1660e01b815260040162000b4792919062002448565b600060405180830381600087803b15801562000b6257600080fd5b505af115801562000b77573d6000803e3d6000fd5b505050503073ffffffffffffffffffffffffffffffffffffffff167f3f2c9d57c068687834f0de942a9babb9e5acab57d516d3480a3c16ee165a42738260405162000bc3919062001d32565b60405180910390a250565b600062000bda620014fd565b600073ffffffffffffffffffffffffffffffffffffffff16600360008673ffffffffffffffffffffffffffffffffffffffff1673ffffffffffffffffffffffffffffffffffffffff16815260200190815260200160002060010160009054906101000a900473ffffffffffffffffffffffffffffffffffffffff1673ffffffffffffffffffffffffffffffffffffffff161462000cae576040517f08c379a000000000000000000000000000000000000000000000000000000000815260040162000ca590620024eb565b60405180910390fd5b6000600160009054906101000a900473ffffffffffffffffffffffffffffffffffffffff1685858560405162000ce4906200198d565b62000cf394939291906200250d565b604051809103906000f08015801562000d10573d6000803e3d6000fd5b509050600060405180606001604052808681526020018373ffffffffffffffffffffffffffffffffffffffff16815260200185815250905080600360008873ffffffffffffffffffffffffffffffffffffffff1673ffffffffffffffffffffffffffffffffffffffff168152602001908152602001600020600082015181600001908162000d9f919062002361565b5060208201518160010160006101000a81548173ffffffffffffffffffffffffffffffffffffffff021916908373ffffffffffffffffffffffffffffffffffffffff160217905550604082015181600201908162000dfe919062002361565b509050506002869080600181540180825580915050600190039060005260206000200160009091909190916101000a81548173ffffffffffffffffffffffffffffffffffffffff021916908373ffffffffffffffffffffffffffffffffffffffff1602179055508160058560405162000e7891906200210e565b908152602001604051809103902060006101000a81548173ffffffffffffffffffffffffffffffffffffffff021916908373ffffffffffffffffffffffffffffffffffffffff1602179055508573ffffffffffffffffffffffffffffffffffffffff168273ffffffffffffffffffffffffffffffffffffffff167f2bb0128fe9e1cb4a1dfd30e7f9d82020375a0e13163a792c1a9e520523ca05648760405162000f23919062002568565b60405180910390a381925050509392505050565b6060600080600360008573ffffffffffffffffffffffffffffffffffffffff1673ffffffffffffffffffffffffffffffffffffffff16815260200190815260200160002060405180606001604052908160008201805462000f989062002025565b80601f016020809104026020016040519081016040528092919081815260200182805462000fc69062002025565b8015620010175780601f1062000feb5761010080835404028352916020019162001017565b820191906000526020600020905b81548152906001019060200180831162000ff957829003601f168201915b505050505081526020016001820160009054906101000a900473ffffffffffffffffffffffffffffffffffffffff1673ffffffffffffffffffffffffffffffffffffffff1673ffffffffffffffffffffffffffffffffffffffff168152602001600282018054620010889062002025565b80601f0160208091040260200160405190810160405280929190818152602001828054620010b69062002025565b8015620011075780601f10620010db5761010080835404028352916020019162001107565b820191906000526020600020905b815481529060010190602001808311620010e957829003601f168201915b5050505050815250509050806000015181602001519250925050915091565b60046020528060005260406000206000915090508060000180546200114b9062002025565b80601f0160208091040260200160405190810160405280929190818152602001828054620011799062002025565b8015620011ca5780601f106200119e57610100808354040283529160200191620011ca565b820191906000526020600020905b815481529060010190602001808311620011ac57829003601f168201915b5050505050908060010160009054906101000a900473ffffffffffffffffffffffffffffffffffffffff16905082565b62001204620014fd565b600160009054906101000a900473ffffffffffffffffffffffffffffffffffffffff1673ffffffffffffffffffffffffffffffffffffffff1663c57e8901826040518263ffffffff1660e01b815260040162001261919062001cfa565b600060405180830381600087803b1580156200127c57600080fd5b505af115801562001291573d6000803e3d6000fd5b5050505050565b6000620012a4620014fd565b81600160009054906101000a900473ffffffffffffffffffffffffffffffffffffffff1673ffffffffffffffffffffffffffffffffffffffff166370a08231306040518263ffffffff1660e01b815260040162001302919062001cfa565b602060405180830381865afa15801562001320573d6000803e3d6000fd5b505050506040513d601f19601f82011682018060405250810190620013469190620025a3565b10156200138a576040517f08c379a0000000000000000000000000000000000000000000000000000000008152600401620013819062002625565b60405180910390fd5b620013d98383600160009054906101000a900473ffffffffffffffffffffffffffffffffffffffff1673ffffffffffffffffffffffffffffffffffffffff16620016469092919063ffffffff16565b8273ffffffffffffffffffffffffffffffffffffffff167f12f4533b5cbd2c9f8a0752a2d0b16379af992dbb2a0844a5007a19d983b3a9348360405162001421919062001d32565b60405180910390a26001905092915050565b6200143d620014fd565b600073ffffffffffffffffffffffffffffffffffffffff168173ffffffffffffffffffffffffffffffffffffffff1603620014af576040517f08c379a0000000000000000000000000000000000000000000000000000000008152600401620014a690620026bd565b60405180910390fd5b620014ba8162001582565b50565b60028181548110620014ce57600080fd5b906000526020600020016000915054906101000a900473ffffffffffffffffffffffffffffffffffffffff1681565b62001507620016d0565b73ffffffffffffffffffffffffffffffffffffffff166200152762000ab5565b73ffffffffffffffffffffffffffffffffffffffff161462001580576040517f08c379a000000000000000000000000000000000000000000000000000000000815260040162001577906200272f565b60405180910390fd5b565b60008060009054906101000a900473ffffffffffffffffffffffffffffffffffffffff169050816000806101000a81548173ffffffffffffffffffffffffffffffffffffffff021916908373ffffffffffffffffffffffffffffffffffffffff1602179055508173ffffffffffffffffffffffffffffffffffffffff168173ffffffffffffffffffffffffffffffffffffffff167f8be0079c531659141344cd1fd0a4f28419497f9722a3daafe3b4186f6b6457e060405160405180910390a35050565b620016cb8363a9059cbb60e01b84846040516024016200166892919062002448565b604051602081830303815290604052907bffffffffffffffffffffffffffffffffffffffffffffffffffffffff19166020820180517bffffffffffffffffffffffffffffffffffffffffffffffffffffffff8381831617835250505050620016d8565b505050565b600033905090565b60006200173c826040518060400160405280602081526020017f5361666545524332303a206c6f772d6c6576656c2063616c6c206661696c65648152508573ffffffffffffffffffffffffffffffffffffffff16620017a89092919063ffffffff16565b90506000815114806200176157508080602001905181019062001760919062002782565b5b620017a3576040517f08c379a00000000000000000000000000000000000000000000000000000000081526004016200179a906200282a565b60405180910390fd5b505050565b6060620017b98484600085620017c2565b90509392505050565b6060824710156200180a576040517f08c379a00000000000000000000000000000000000000000000000000000000081526004016200180190620028c2565b60405180910390fd5b6000808673ffffffffffffffffffffffffffffffffffffffff16858760405162001835919062002931565b60006040518083038185875af1925050503d806000811462001874576040519150601f19603f3d011682016040523d82523d6000602084013e62001879565b606091505b50915091506200188c8783838762001898565b92505050949350505050565b6060831562001902576000835103620018f957620018b68562001917565b620018f8576040517f08c379a0000000000000000000000000000000000000000000000000000000008152600401620018ef906200299a565b60405180910390fd5b5b8290506200190f565b6200190e83836200193a565b5b949350505050565b6000808273ffffffffffffffffffffffffffffffffffffffff163b119050919050565b6000825111156200194e5781518083602001fd5b806040517f08c379a000000000000000000000000000000000000000000000000000000000815260040162001984919062002568565b60405180910390fd5b61338e80620029bd83390190565b600073ffffffffffffffffffffffffffffffffffffffff82169050919050565b6000819050919050565b6000620019e6620019e0620019da846200199b565b620019bb565b6200199b565b9050919050565b6000620019fa82620019c5565b9050919050565b600062001a0e82620019ed565b9050919050565b62001a208162001a01565b82525050565b600060208201905062001a3d600083018462001a15565b92915050565b6000604051905090565b600080fd5b600080fd5b600062001a64826200199b565b9050919050565b62001a768162001a57565b811462001a8257600080fd5b50565b60008135905062001a968162001a6b565b92915050565b600080fd5b600080fd5b6000601f19601f8301169050919050565b7f4e487b7100000000000000000000000000000000000000000000000000000000600052604160045260246000fd5b62001af18262001aa6565b810181811067ffffffffffffffff8211171562001b135762001b1262001ab7565b5b80604052505050565b600062001b2862001a43565b905062001b36828262001ae6565b919050565b600067ffffffffffffffff82111562001b595762001b5862001ab7565b5b62001b648262001aa6565b9050602081019050919050565b82818337600083830152505050565b600062001b9762001b918462001b3b565b62001b1c565b90508281526020810184848401111562001bb65762001bb562001aa1565b5b62001bc384828562001b71565b509392505050565b600082601f83011262001be35762001be262001a9c565b5b813562001bf584826020860162001b80565b91505092915050565b60008060006060848603121562001c1a5762001c1962001a4d565b5b600062001c2a8682870162001a85565b935050602084013567ffffffffffffffff81111562001c4e5762001c4d62001a52565b5b62001c5c8682870162001bcb565b925050604084013567ffffffffffffffff81111562001c805762001c7f62001a52565b5b62001c8e8682870162001bcb565b9150509250925092565b60006020828403121562001cb15762001cb062001a4d565b5b600082013567ffffffffffffffff81111562001cd25762001cd162001a52565b5b62001ce08482850162001bcb565b91505092915050565b62001cf48162001a57565b82525050565b600060208201905062001d11600083018462001ce9565b92915050565b6000819050919050565b62001d2c8162001d17565b82525050565b600060208201905062001d49600083018462001d21565b92915050565b60006020828403121562001d685762001d6762001a4d565b5b600062001d788482850162001a85565b91505092915050565b600081519050919050565b600082825260208201905092915050565b60005b8381101562001dbd57808201518184015260208101905062001da0565b60008484015250505050565b600062001dd68262001d81565b62001de2818562001d8c565b935062001df481856020860162001d9d565b62001dff8162001aa6565b840191505092915050565b6000604082019050818103600083015262001e26818562001dc9565b905062001e37602083018462001ce9565b9392505050565b62001e498162001d17565b811462001e5557600080fd5b50565b60008135905062001e698162001e3e565b92915050565b6000806040838503121562001e895762001e8862001a4d565b5b600062001e998582860162001e58565b925050602062001eac8582860162001a85565b9150509250929050565b6000606082019050818103600083015262001ed2818662001dc9565b905062001ee3602083018562001ce9565b818103604083015262001ef7818462001dc9565b9050949350505050565b60006020828403121562001f1a5762001f1962001a4d565b5b600062001f2a8482850162001e58565b91505092915050565b600062001f4082620019ed565b9050919050565b62001f528162001f33565b82525050565b600060208201905062001f6f600083018462001f47565b92915050565b6000806040838503121562001f8f5762001f8e62001a4d565b5b600062001f9f8582860162001a85565b925050602062001fb28582860162001e58565b9150509250929050565b60008115159050919050565b62001fd38162001fbc565b82525050565b600060208201905062001ff0600083018462001fc8565b92915050565b7f4e487b7100000000000000000000000000000000000000000000000000000000600052602260045260246000fd5b600060028204905060018216806200203e57607f821691505b60208210810362002054576200205362001ff6565b5b50919050565b7f5573657220616c72656164792065786973747300000000000000000000000000600082015250565b60006200209260138362001d8c565b91506200209f826200205a565b602082019050919050565b60006020820190508181036000830152620020c58162002083565b9050919050565b600081905092915050565b6000620020e48262001d81565b620020f08185620020cc565b93506200210281856020860162001d9d565b80840191505092915050565b60006200211c8284620020d7565b915081905092915050565b7f4c6f79616c74792050726f6772616d206e6f7420666f756e6400000000000000600082015250565b60006200215f60198362001d8c565b91506200216c8262002127565b602082019050919050565b60006020820190508181036000830152620021928162002150565b9050919050565b60008190508160005260206000209050919050565b60006020601f8301049050919050565b600082821b905092915050565b600060088302620021fd7fffffffffffffffffffffffffffffffffffffffffffffffffffffffffffffffff82620021be565b620022098683620021be565b95508019841693508086168417925050509392505050565b6000620022426200223c620022368462001d17565b620019bb565b62001d17565b9050919050565b6000819050919050565b6200225e8362002221565b620022766200226d8262002249565b848454620021cb565b825550505050565b600090565b6200228d6200227e565b6200229a81848462002253565b505050565b5b81811015620022c257620022b660008262002283565b600181019050620022a0565b5050565b601f8211156200231157620022db8162002199565b620022e684620021ae565b81016020851015620022f6578190505b6200230e6200230585620021ae565b8301826200229f565b50505b505050565b600082821c905092915050565b6000620023366000198460080262002316565b1980831691505092915050565b600062002351838362002323565b9150826002028217905092915050565b6200236c8262001d81565b67ffffffffffffffff81111562002388576200238762001ab7565b5b62002394825462002025565b620023a1828285620022c6565b600060209050601f831160018114620023d95760008415620023c4578287015190505b620023d0858262002343565b86555062002440565b601f198416620023e98662002199565b60005b828110156200241357848901518255600182019150602085019450602081019050620023ec565b868310156200243357848901516200242f601f89168262002323565b8355505b6001600288020188555050505b505050505050565b60006040820190506200245f600083018562001ce9565b6200246e602083018462001d21565b9392505050565b7f4c6f79616c747950726f6772616d20616c72656164792065786973747320666f60008201527f7220746869732061646472657373000000000000000000000000000000000000602082015250565b6000620024d3602e8362001d8c565b9150620024e08262002475565b604082019050919050565b600060208201905081810360008301526200250681620024c4565b9050919050565b600060808201905062002524600083018762001ce9565b62002533602083018662001ce9565b818103604083015262002547818562001dc9565b905081810360608301526200255d818462001dc9565b905095945050505050565b6000602082019050818103600083015262002584818462001dc9565b905092915050565b6000815190506200259d8162001e3e565b92915050565b600060208284031215620025bc57620025bb62001a4d565b5b6000620025cc848285016200258c565b91505092915050565b7f4e6f7420656e6f75676820746f6b656e7320696e20666163746f727900000000600082015250565b60006200260d601c8362001d8c565b91506200261a82620025d5565b602082019050919050565b600060208201905081810360008301526200264081620025fe565b9050919050565b7f4f776e61626c653a206e6577206f776e657220697320746865207a65726f206160008201527f6464726573730000000000000000000000000000000000000000000000000000602082015250565b6000620026a560268362001d8c565b9150620026b28262002647565b604082019050919050565b60006020820190508181036000830152620026d88162002696565b9050919050565b7f4f776e61626c653a2063616c6c6572206973206e6f7420746865206f776e6572600082015250565b60006200271760208362001d8c565b91506200272482620026df565b602082019050919050565b600060208201905081810360008301526200274a8162002708565b9050919050565b6200275c8162001fbc565b81146200276857600080fd5b50565b6000815190506200277c8162002751565b92915050565b6000602082840312156200279b576200279a62001a4d565b5b6000620027ab848285016200276b565b91505092915050565b7f5361666545524332303a204552433230206f7065726174696f6e20646964206e60008201527f6f74207375636365656400000000000000000000000000000000000000000000602082015250565b600062002812602a8362001d8c565b91506200281f82620027b4565b604082019050919050565b60006020820190508181036000830152620028458162002803565b9050919050565b7f416464726573733a20696e73756666696369656e742062616c616e636520666f60008201527f722063616c6c0000000000000000000000000000000000000000000000000000602082015250565b6000620028aa60268362001d8c565b9150620028b7826200284c565b604082019050919050565b60006020820190508181036000830152620028dd816200289b565b9050919050565b600081519050919050565b600081905092915050565b60006200290782620028e4565b620029138185620028ef565b93506200292581856020860162001d9d565b80840191505092915050565b60006200293f8284620028fa565b915081905092915050565b7f416464726573733a2063616c6c20746f206e6f6e2d636f6e7472616374000000600082015250565b600062002982601d8362001d8c565b91506200298f826200294a565b602082019050919050565b60006020820190508181036000830152620029b58162002973565b905091905056fe60806040523480156200001157600080fd5b506040516200338e3803806200338e8339818101604052810190620000379190620004eb565b620000576200004b620000d760201b60201c565b620000df60201b60201c565b83600260006101000a81548173ffffffffffffffffffffffffffffffffffffffff021916908373ffffffffffffffffffffffffffffffffffffffff1602179055508160049081620000a99190620007e6565b508060059081620000bb9190620007e6565b50620000cd83620001a360201b60201c565b50505050620009e8565b600033905090565b60008060009054906101000a900473ffffffffffffffffffffffffffffffffffffffff169050816000806101000a81548173ffffffffffffffffffffffffffffffffffffffff021916908373ffffffffffffffffffffffffffffffffffffffff1602179055508173ffffffffffffffffffffffffffffffffffffffff168173ffffffffffffffffffffffffffffffffffffffff167f8be0079c531659141344cd1fd0a4f28419497f9722a3daafe3b4186f6b6457e060405160405180910390a35050565b620001b36200023960201b60201c565b600073ffffffffffffffffffffffffffffffffffffffff168173ffffffffffffffffffffffffffffffffffffffff160362000225576040517f08c379a00000000000000000000000000000000000000000000000000000000081526004016200021c9062000954565b60405180910390fd5b6200023681620000df60201b60201c565b50565b62000249620000d760201b60201c565b73ffffffffffffffffffffffffffffffffffffffff166200026f620002ca60201b60201c565b73ffffffffffffffffffffffffffffffffffffffff1614620002c8576040517f08c379a0000000000000000000000000000000000000000000000000000000008152600401620002bf90620009c6565b60405180910390fd5b565b60008060009054906101000a900473ffffffffffffffffffffffffffffffffffffffff16905090565b6000604051905090565b600080fd5b600080fd5b600073ffffffffffffffffffffffffffffffffffffffff82169050919050565b6000620003348262000307565b9050919050565b620003468162000327565b81146200035257600080fd5b50565b60008151905062000366816200033b565b92915050565b600080fd5b600080fd5b6000601f19601f8301169050919050565b7f4e487b7100000000000000000000000000000000000000000000000000000000600052604160045260246000fd5b620003c18262000376565b810181811067ffffffffffffffff82111715620003e357620003e262000387565b5b80604052505050565b6000620003f8620002f3565b9050620004068282620003b6565b919050565b600067ffffffffffffffff82111562000429576200042862000387565b5b620004348262000376565b9050602081019050919050565b60005b838110156200046157808201518184015260208101905062000444565b60008484015250505050565b6000620004846200047e846200040b565b620003ec565b905082815260208101848484011115620004a357620004a262000371565b5b620004b084828562000441565b509392505050565b600082601f830112620004d057620004cf6200036c565b5b8151620004e28482602086016200046d565b91505092915050565b60008060008060808587031215620005085762000507620002fd565b5b6000620005188782880162000355565b94505060206200052b8782880162000355565b935050604085015167ffffffffffffffff8111156200054f576200054e62000302565b5b6200055d87828801620004b8565b925050606085015167ffffffffffffffff81111562000581576200058062000302565b5b6200058f87828801620004b8565b91505092959194509250565b600081519050919050565b7f4e487b7100000000000000000000000000000000000000000000000000000000600052602260045260246000fd5b60006002820490506001821680620005ee57607f821691505b602082108103620006045762000603620005a6565b5b50919050565b60008190508160005260206000209050919050565b60006020601f8301049050919050565b600082821b905092915050565b6000600883026200066e7fffffffffffffffffffffffffffffffffffffffffffffffffffffffffffffffff826200062f565b6200067a86836200062f565b95508019841693508086168417925050509392505050565b6000819050919050565b6000819050919050565b6000620006c7620006c1620006bb8462000692565b6200069c565b62000692565b9050919050565b6000819050919050565b620006e383620006a6565b620006fb620006f282620006ce565b8484546200063c565b825550505050565b600090565b6200071262000703565b6200071f818484620006d8565b505050565b5b8181101562000747576200073b60008262000708565b60018101905062000725565b5050565b601f821115620007965762000760816200060a565b6200076b846200061f565b810160208510156200077b578190505b620007936200078a856200061f565b83018262000724565b50505b505050565b600082821c905092915050565b6000620007bb600019846008026200079b565b1980831691505092915050565b6000620007d68383620007a8565b9150826002028217905092915050565b620007f1826200059b565b67ffffffffffffffff8111156200080d576200080c62000387565b5b620008198254620005d5565b620008268282856200074b565b600060209050601f8311600181146200085e576000841562000849578287015190505b620008558582620007c8565b865550620008c5565b601f1984166200086e866200060a565b60005b82811015620008985784890151825560018201915060208501945060208101905062000871565b86831015620008b85784890151620008b4601f891682620007a8565b8355505b6001600288020188555050505b505050505050565b600082825260208201905092915050565b7f4f776e61626c653a206e6577206f776e657220697320746865207a65726f206160008201527f6464726573730000000000000000000000000000000000000000000000000000602082015250565b60006200093c602683620008cd565b91506200094982620008de565b604082019050919050565b600060208201905081810360008301526200096f816200092d565b9050919050565b7f4f776e61626c653a2063616c6c6572206973206e6f7420746865206f776e6572600082015250565b6000620009ae602083620008cd565b9150620009bb8262000976565b602082019050919050565b60006020820190508181036000830152620009e1816200099f565b9050919050565b61299680620009f86000396000f3fe608060405234801561001057600080fd5b506004361061010b5760003560e01c806381a4f0db116100a2578063acb9695611610071578063acb9695614610298578063bad31f5f146102c8578063e38e91f9146102f8578063e7c9c03314610314578063f2fde38b146103445761010b565b806381a4f0db146102345780638da5cb5b1461025257806393f32fbe14610270578063a4a1e2631461027a5761010b565b80634985e85c116100de5780634985e85c146101ac5780634bc33e56146101dc5780636a3cf768146101fa578063715018a61461022a5761010b565b80630186f8a41461011057806306f837d31461012e578063086c4dac1461014c5780631e59c5291461017c575b600080fd5b610118610360565b6040516101259190611697565b60405180910390f35b610136610386565b60405161014391906116cb565b60405180910390f35b61016660048036038101906101619190611726565b61038c565b60405161017391906117e3565b60405180910390f35b61019660048036038101906101919190611978565b610438565b6040516101a391906119ef565b60405180910390f35b6101c660048036038101906101c19190611a0a565b6105d9565b6040516101d39190611a62565b60405180910390f35b6101e46106cd565b6040516101f191906117e3565b60405180910390f35b610214600480360381019061020f9190611a0a565b61075b565b6040516102219190611a62565b60405180910390f35b6102326107a4565b005b61023c6107b8565b60405161024991906117e3565b60405180910390f35b61025a610846565b6040516102679190611a62565b60405180910390f35b61027861086f565b005b610282610879565b60405161028f91906116cb565b60405180910390f35b6102b260048036038101906102ad9190611b1e565b610886565b6040516102bf91906119ef565b60405180910390f35b6102e260048036038101906102dd9190611b1e565b610a01565b6040516102ef91906119ef565b60405180910390f35b610312600480360381019061030d9190611726565b610bac565b005b61032e60048036038101906103299190611ba1565b610bf5565b60405161033b91906119ef565b60405180910390f35b61035e60048036038101906103599190611bfd565b610da3565b005b600260009054906101000a900473ffffffffffffffffffffffffffffffffffffffff1681565b60035481565b6006818154811061039c57600080fd5b9060005260206000200160009150905080546103b790611c59565b80601f01602080910402602001604051908101604052809291908181526020018280546103e390611c59565b80156104305780601f1061040557610100808354040283529160200191610430565b820191906000526020600020905b81548152906001019060200180831161041357829003601f168201915b505050505081565b6000610442610e26565b600073ffffffffffffffffffffffffffffffffffffffff1660018460405161046a9190611cc6565b908152602001604051809103902060009054906101000a900473ffffffffffffffffffffffffffffffffffffffff1673ffffffffffffffffffffffffffffffffffffffff16146104ef576040517f08c379a00000000000000000000000000000000000000000000000000000000081526004016104e690611d29565b60405180910390fd5b816001846040516105009190611cc6565b908152602001604051809103902060006101000a81548173ffffffffffffffffffffffffffffffffffffffff021916908373ffffffffffffffffffffffffffffffffffffffff1602179055506006839080600181540180825580915050600190039060005260206000200160009091909190915090816105809190611eeb565b508173ffffffffffffffffffffffffffffffffffffffff167fb3eccf73f39b1c07947c780b2b39df2a1bb058b4037b0a42d0881ca1a028a132846040516105c791906117e3565b60405180910390a26001905092915050565b60008073ffffffffffffffffffffffffffffffffffffffff166001836040516106029190611cc6565b908152602001604051809103902060009054906101000a900473ffffffffffffffffffffffffffffffffffffffff1673ffffffffffffffffffffffffffffffffffffffff1603610687576040517f08c379a000000000000000000000000000000000000000000000000000000000815260040161067e90612009565b60405180910390fd5b6001826040516106979190611cc6565b908152602001604051809103902060009054906101000a900473ffffffffffffffffffffffffffffffffffffffff169050919050565b600580546106da90611c59565b80601f016020809104026020016040519081016040528092919081815260200182805461070690611c59565b80156107535780601f1061072857610100808354040283529160200191610753565b820191906000526020600020905b81548152906001019060200180831161073657829003601f168201915b505050505081565b6001818051602081018201805184825260208301602085012081835280955050505050506000915054906101000a900473ffffffffffffffffffffffffffffffffffffffff1681565b6107ac610e26565b6107b66000610ea4565b565b600480546107c590611c59565b80601f01602080910402602001604051908101604052809291908181526020018280546107f190611c59565b801561083e5780601f106108135761010080835404028352916020019161083e565b820191906000526020600020905b81548152906001019060200180831161082157829003601f168201915b505050505081565b60008060009054906101000a900473ffffffffffffffffffffffffffffffffffffffff16905090565b610877610e26565b565b6000600680549050905090565b6000610890610e26565b60006108c58686866040516020016108aa93929190612092565b60405160208183030381529060405280519060200120610f68565b90508573ffffffffffffffffffffffffffffffffffffffff166108e88285610f98565b73ffffffffffffffffffffffffffffffffffffffff161461093e576040517f08c379a00000000000000000000000000000000000000000000000000000000081526004016109359061211b565b60405180910390fd5b61098d868686600260009054906101000a900473ffffffffffffffffffffffffffffffffffffffff1673ffffffffffffffffffffffffffffffffffffffff16610fac909392919063ffffffff16565b8473ffffffffffffffffffffffffffffffffffffffff168673ffffffffffffffffffffffffffffffffffffffff167f481e7d56b32ba5694db6d6e1e8664106f5096f0eed26ca72a9323f9a39c2d0d486426040516109ec92919061213b565b60405180910390a36001915050949350505050565b6000610a0b610e26565b6000610a40868686604051602001610a2593929190612092565b60405160208183030381529060405280519060200120610f68565b90508573ffffffffffffffffffffffffffffffffffffffff16610a638285610f98565b73ffffffffffffffffffffffffffffffffffffffff1614610ab9576040517f08c379a0000000000000000000000000000000000000000000000000000000008152600401610ab09061211b565b60405180910390fd5b6000600260009054906101000a900473ffffffffffffffffffffffffffffffffffffffff1673ffffffffffffffffffffffffffffffffffffffff16632b9917468888886040518463ffffffff1660e01b8152600401610b1a93929190612164565b6020604051808303816000875af1158015610b39573d6000803e3d6000fd5b505050506040513d601f19601f82011682018060405250810190610b5d91906121c7565b905080610b9f576040517f08c379a0000000000000000000000000000000000000000000000000000000008152600401610b9690612240565b60405180910390fd5b8092505050949350505050565b610bb4610e26565b806003819055507fa6fcf4ef5694b64c318882d1f2c29c6012dc1bd85ac0004bef4616b6e6b048bc81604051610bea91906116cb565b60405180910390a150565b6000610bff610e26565b6000610c0a846105d9565b9050600060035484610c1c919061228f565b905080600260009054906101000a900473ffffffffffffffffffffffffffffffffffffffff1673ffffffffffffffffffffffffffffffffffffffff166370a08231306040518263ffffffff1660e01b8152600401610c7a9190611a62565b602060405180830381865afa158015610c97573d6000803e3d6000fd5b505050506040513d601f19601f82011682018060405250810190610cbb91906122e6565b1015610cfc576040517f08c379a0000000000000000000000000000000000000000000000000000000008152600401610cf390612385565b60405180910390fd5b610d498282600260009054906101000a900473ffffffffffffffffffffffffffffffffffffffff1673ffffffffffffffffffffffffffffffffffffffff166110359092919063ffffffff16565b8173ffffffffffffffffffffffffffffffffffffffff167f2cdd0b9dc1e55aa7be2d768970ec6e398da88b8e440c2798c748247ab578ddd782604051610d8f91906116cb565b60405180910390a260019250505092915050565b610dab610e26565b600073ffffffffffffffffffffffffffffffffffffffff168173ffffffffffffffffffffffffffffffffffffffff1603610e1a576040517f08c379a0000000000000000000000000000000000000000000000000000000008152600401610e1190612417565b60405180910390fd5b610e2381610ea4565b50565b610e2e6110bb565b73ffffffffffffffffffffffffffffffffffffffff16610e4c610846565b73ffffffffffffffffffffffffffffffffffffffff1614610ea2576040517f08c379a0000000000000000000000000000000000000000000000000000000008152600401610e9990612483565b60405180910390fd5b565b60008060009054906101000a900473ffffffffffffffffffffffffffffffffffffffff169050816000806101000a81548173ffffffffffffffffffffffffffffffffffffffff021916908373ffffffffffffffffffffffffffffffffffffffff1602179055508173ffffffffffffffffffffffffffffffffffffffff168173ffffffffffffffffffffffffffffffffffffffff167f8be0079c531659141344cd1fd0a4f28419497f9722a3daafe3b4186f6b6457e060405160405180910390a35050565b600081604051602001610f7b919061251a565b604051602081830303815290604052805190602001209050919050565b6000610fa483836110c3565b905092915050565b61102f846323b872dd60e01b858585604051602401610fcd93929190612164565b604051602081830303815290604052907bffffffffffffffffffffffffffffffffffffffffffffffffffffffff19166020820180517bffffffffffffffffffffffffffffffffffffffffffffffffffffffff83818316178352505050506110ea565b50505050565b6110b68363a9059cbb60e01b8484604051602401611054929190612540565b604051602081830303815290604052907bffffffffffffffffffffffffffffffffffffffffffffffffffffffff19166020820180517bffffffffffffffffffffffffffffffffffffffffffffffffffffffff83818316178352505050506110ea565b505050565b600033905090565b60008060006110d285856111b2565b915091506110df81611203565b819250505092915050565b600061114c826040518060400160405280602081526020017f5361666545524332303a206c6f772d6c6576656c2063616c6c206661696c65648152508573ffffffffffffffffffffffffffffffffffffffff166113699092919063ffffffff16565b905060008151148061116e57508080602001905181019061116d91906121c7565b5b6111ad576040517f08c379a00000000000000000000000000000000000000000000000000000000081526004016111a4906125db565b60405180910390fd5b505050565b60008060418351036111f35760008060006020860151925060408601519150606086015160001a90506111e787828585611381565b945094505050506111fc565b60006002915091505b9250929050565b60006004811115611217576112166125fb565b5b81600481111561122a576112296125fb565b5b03156113665760016004811115611244576112436125fb565b5b816004811115611257576112566125fb565b5b03611297576040517f08c379a000000000000000000000000000000000000000000000000000000000815260040161128e90612676565b60405180910390fd5b600260048111156112ab576112aa6125fb565b5b8160048111156112be576112bd6125fb565b5b036112fe576040517f08c379a00000000000000000000000000000000000000000000000000000000081526004016112f5906126e2565b60405180910390fd5b60036004811115611312576113116125fb565b5b816004811115611325576113246125fb565b5b03611365576040517f08c379a000000000000000000000000000000000000000000000000000000000815260040161135c90612774565b60405180910390fd5b5b50565b60606113788484600085611463565b90509392505050565b6000807f7fffffffffffffffffffffffffffffff5d576e7357a4501ddfe92f46681b20a08360001c11156113bc57600060039150915061145a565b6000600187878787604051600081526020016040526040516113e194939291906127bf565b6020604051602081039080840390855afa158015611403573d6000803e3d6000fd5b505050602060405103519050600073ffffffffffffffffffffffffffffffffffffffff168173ffffffffffffffffffffffffffffffffffffffff16036114515760006001925092505061145a565b80600092509250505b94509492505050565b6060824710156114a8576040517f08c379a000000000000000000000000000000000000000000000000000000000815260040161149f90612876565b60405180910390fd5b6000808673ffffffffffffffffffffffffffffffffffffffff1685876040516114d191906128dd565b60006040518083038185875af1925050503d806000811461150e576040519150601f19603f3d011682016040523d82523d6000602084013e611513565b606091505b509150915061152487838387611530565b92505050949350505050565b6060831561159257600083510361158a5761154a856115a5565b611589576040517f08c379a000000000000000000000000000000000000000000000000000000000815260040161158090612940565b60405180910390fd5b5b82905061159d565b61159c83836115c8565b5b949350505050565b6000808273ffffffffffffffffffffffffffffffffffffffff163b119050919050565b6000825111156115db5781518083602001fd5b806040517f08c379a000000000000000000000000000000000000000000000000000000000815260040161160f91906117e3565b60405180910390fd5b600073ffffffffffffffffffffffffffffffffffffffff82169050919050565b6000819050919050565b600061165d61165861165384611618565b611638565b611618565b9050919050565b600061166f82611642565b9050919050565b600061168182611664565b9050919050565b61169181611676565b82525050565b60006020820190506116ac6000830184611688565b92915050565b6000819050919050565b6116c5816116b2565b82525050565b60006020820190506116e060008301846116bc565b92915050565b6000604051905090565b600080fd5b600080fd5b611703816116b2565b811461170e57600080fd5b50565b600081359050611720816116fa565b92915050565b60006020828403121561173c5761173b6116f0565b5b600061174a84828501611711565b91505092915050565b600081519050919050565b600082825260208201905092915050565b60005b8381101561178d578082015181840152602081019050611772565b60008484015250505050565b6000601f19601f8301169050919050565b60006117b582611753565b6117bf818561175e565b93506117cf81856020860161176f565b6117d881611799565b840191505092915050565b600060208201905081810360008301526117fd81846117aa565b905092915050565b600080fd5b600080fd5b7f4e487b7100000000000000000000000000000000000000000000000000000000600052604160045260246000fd5b61184782611799565b810181811067ffffffffffffffff821117156118665761186561180f565b5b80604052505050565b60006118796116e6565b9050611885828261183e565b919050565b600067ffffffffffffffff8211156118a5576118a461180f565b5b6118ae82611799565b9050602081019050919050565b82818337600083830152505050565b60006118dd6118d88461188a565b61186f565b9050828152602081018484840111156118f9576118f861180a565b5b6119048482856118bb565b509392505050565b600082601f83011261192157611920611805565b5b81356119318482602086016118ca565b91505092915050565b600061194582611618565b9050919050565b6119558161193a565b811461196057600080fd5b50565b6000813590506119728161194c565b92915050565b6000806040838503121561198f5761198e6116f0565b5b600083013567ffffffffffffffff8111156119ad576119ac6116f5565b5b6119b98582860161190c565b92505060206119ca85828601611963565b9150509250929050565b60008115159050919050565b6119e9816119d4565b82525050565b6000602082019050611a0460008301846119e0565b92915050565b600060208284031215611a2057611a1f6116f0565b5b600082013567ffffffffffffffff811115611a3e57611a3d6116f5565b5b611a4a8482850161190c565b91505092915050565b611a5c8161193a565b82525050565b6000602082019050611a776000830184611a53565b92915050565b600067ffffffffffffffff821115611a9857611a9761180f565b5b611aa182611799565b9050602081019050919050565b6000611ac1611abc84611a7d565b61186f565b905082815260208101848484011115611add57611adc61180a565b5b611ae88482856118bb565b509392505050565b600082601f830112611b0557611b04611805565b5b8135611b15848260208601611aae565b91505092915050565b60008060008060808587031215611b3857611b376116f0565b5b6000611b4687828801611963565b9450506020611b5787828801611963565b9350506040611b6887828801611711565b925050606085013567ffffffffffffffff811115611b8957611b886116f5565b5b611b9587828801611af0565b91505092959194509250565b60008060408385031215611bb857611bb76116f0565b5b600083013567ffffffffffffffff811115611bd657611bd56116f5565b5b611be28582860161190c565b9250506020611bf385828601611711565b9150509250929050565b600060208284031215611c1357611c126116f0565b5b6000611c2184828501611963565b91505092915050565b7f4e487b7100000000000000000000000000000000000000000000000000000000600052602260045260246000fd5b60006002820490506001821680611c7157607f821691505b602082108103611c8457611c83611c2a565b5b50919050565b600081905092915050565b6000611ca082611753565b611caa8185611c8a565b9350611cba81856020860161176f565b80840191505092915050565b6000611cd28284611c95565b915081905092915050565b7f4c6f79616c20494420616c726561647920726567697374657265640000000000600082015250565b6000611d13601b8361175e565b9150611d1e82611cdd565b602082019050919050565b60006020820190508181036000830152611d4281611d06565b9050919050565b60008190508160005260206000209050919050565b60006020601f8301049050919050565b600082821b905092915050565b600060088302611dab7fffffffffffffffffffffffffffffffffffffffffffffffffffffffffffffffff82611d6e565b611db58683611d6e565b95508019841693508086168417925050509392505050565b6000611de8611de3611dde846116b2565b611638565b6116b2565b9050919050565b6000819050919050565b611e0283611dcd565b611e16611e0e82611def565b848454611d7b565b825550505050565b600090565b611e2b611e1e565b611e36818484611df9565b505050565b5b81811015611e5a57611e4f600082611e23565b600181019050611e3c565b5050565b601f821115611e9f57611e7081611d49565b611e7984611d5e565b81016020851015611e88578190505b611e9c611e9485611d5e565b830182611e3b565b50505b505050565b600082821c905092915050565b6000611ec260001984600802611ea4565b1980831691505092915050565b6000611edb8383611eb1565b9150826002028217905092915050565b611ef482611753565b67ffffffffffffffff811115611f0d57611f0c61180f565b5b611f178254611c59565b611f22828285611e5e565b600060209050601f831160018114611f555760008415611f43578287015190505b611f4d8582611ecf565b865550611fb5565b601f198416611f6386611d49565b60005b82811015611f8b57848901518255600182019150602085019450602081019050611f66565b86831015611fa85784890151611fa4601f891682611eb1565b8355505b6001600288020188555050505b505050505050565b7f4c6f79616c204944206e6f742072656769737465726564000000000000000000600082015250565b6000611ff360178361175e565b9150611ffe82611fbd565b602082019050919050565b6000602082019050818103600083015261202281611fe6565b9050919050565b60008160601b9050919050565b600061204182612029565b9050919050565b600061205382612036565b9050919050565b61206b6120668261193a565b612048565b82525050565b6000819050919050565b61208c612087826116b2565b612071565b82525050565b600061209e828661205a565b6014820191506120ae828561205a565b6014820191506120be828461207b565b602082019150819050949350505050565b7f496e76616c6964207369676e6174757265000000000000000000000000000000600082015250565b600061210560118361175e565b9150612110826120cf565b602082019050919050565b60006020820190508181036000830152612134816120f8565b9050919050565b600060408201905061215060008301856116bc565b61215d60208301846116bc565b9392505050565b60006060820190506121796000830186611a53565b6121866020830185611a53565b61219360408301846116bc565b949350505050565b6121a4816119d4565b81146121af57600080fd5b50565b6000815190506121c18161219b565b92915050565b6000602082840312156121dd576121dc6116f0565b5b60006121eb848285016121b2565b91505092915050565b7f417070726f76616c206661696c65640000000000000000000000000000000000600082015250565b600061222a600f8361175e565b9150612235826121f4565b602082019050919050565b600060208201905081810360008301526122598161221d565b9050919050565b7f4e487b7100000000000000000000000000000000000000000000000000000000600052601160045260246000fd5b600061229a826116b2565b91506122a5836116b2565b92508282026122b3816116b2565b915082820484148315176122ca576122c9612260565b5b5092915050565b6000815190506122e0816116fa565b92915050565b6000602082840312156122fc576122fb6116f0565b5b600061230a848285016122d1565b91505092915050565b7f4e6f7420656e6f75676820746f6b656e7320746f2073656e642072657761726460008201527f7300000000000000000000000000000000000000000000000000000000000000602082015250565b600061236f60218361175e565b915061237a82612313565b604082019050919050565b6000602082019050818103600083015261239e81612362565b9050919050565b7f4f776e61626c653a206e6577206f776e657220697320746865207a65726f206160008201527f6464726573730000000000000000000000000000000000000000000000000000602082015250565b600061240160268361175e565b915061240c826123a5565b604082019050919050565b60006020820190508181036000830152612430816123f4565b9050919050565b7f4f776e61626c653a2063616c6c6572206973206e6f7420746865206f776e6572600082015250565b600061246d60208361175e565b915061247882612437565b602082019050919050565b6000602082019050818103600083015261249c81612460565b9050919050565b7f19457468657265756d205369676e6564204d6573736167653a0a333200000000600082015250565b60006124d9601c83611c8a565b91506124e4826124a3565b601c82019050919050565b6000819050919050565b6000819050919050565b61251461250f826124ef565b6124f9565b82525050565b6000612525826124cc565b91506125318284612503565b60208201915081905092915050565b60006040820190506125556000830185611a53565b61256260208301846116bc565b9392505050565b7f5361666545524332303a204552433230206f7065726174696f6e20646964206e60008201527f6f74207375636365656400000000000000000000000000000000000000000000602082015250565b60006125c5602a8361175e565b91506125d082612569565b604082019050919050565b600060208201905081810360008301526125f4816125b8565b9050919050565b7f4e487b7100000000000000000000000000000000000000000000000000000000600052602160045260246000fd5b7f45434453413a20696e76616c6964207369676e61747572650000000000000000600082015250565b600061266060188361175e565b915061266b8261262a565b602082019050919050565b6000602082019050818103600083015261268f81612653565b9050919050565b7f45434453413a20696e76616c6964207369676e6174757265206c656e67746800600082015250565b60006126cc601f8361175e565b91506126d782612696565b602082019050919050565b600060208201905081810360008301526126fb816126bf565b9050919050565b7f45434453413a20696e76616c6964207369676e6174757265202773272076616c60008201527f7565000000000000000000000000000000000000000000000000000000000000602082015250565b600061275e60228361175e565b915061276982612702565b604082019050919050565b6000602082019050818103600083015261278d81612751565b9050919050565b61279d816124ef565b82525050565b600060ff82169050919050565b6127b9816127a3565b82525050565b60006080820190506127d46000830187612794565b6127e160208301866127b0565b6127ee6040830185612794565b6127fb6060830184612794565b95945050505050565b7f416464726573733a20696e73756666696369656e742062616c616e636520666f60008201527f722063616c6c0000000000000000000000000000000000000000000000000000602082015250565b600061286060268361175e565b915061286b82612804565b604082019050919050565b6000602082019050818103600083015261288f81612853565b9050919050565b600081519050919050565b600081905092915050565b60006128b782612896565b6128c181856128a1565b93506128d181856020860161176f565b80840191505092915050565b60006128e982846128ac565b915081905092915050565b7f416464726573733a2063616c6c20746f206e6f6e2d636f6e7472616374000000600082015250565b600061292a601d8361175e565b9150612935826128f4565b602082019050919050565b600060208201905081810360008301526129598161291d565b905091905056fea2646970667358221220d4844166d50133cd541c3f26780dae6d1d7d2fca0cd5fb233d95367d956f770964736f6c63430008130033a2646970667358221220ec4d1eba6f5e343d84721e7903ad40ab6173daa5de0be2e5ba77a7e24180cc3e64736f6c63430008130033",
    "linkReferences": {},
    "deployedLinkReferences": {}
}