{
  "_format": "hh-sol-artifact-1",
  "contractName": "LoyaltyProgram",
  "sourceName": "contracts/LoyaltyProgram.sol",
  "abi": [
    {
      "inputs": [
        {
          "internalType": "address",
          "name": "_omniTokenAddress",
          "type": "address"
        },
        {
          "internalType": "address",
          "name": "_owner",
          "type": "address"
        },
        {
          "internalType": "string",
          "name": "_commerceName",
          "type": "string"
        },
        {
          "internalType": "string",
          "name": "_commercePrefix",
          "type": "string"
        }
      ],
      "stateMutability": "nonpayable",
      "type": "constructor"
    },
    {
      "anonymous": false,
      "inputs": [
        {
          "indexed": true,
          "internalType": "address",
          "name": "recipient",
          "type": "address"
        },
        {
          "indexed": false,
          "internalType": "uint256",
          "name": "amount",
          "type": "uint256"
        }
      ],
      "name": "AdminTokenTransfer",
      "type": "event"
    },
    {
      "anonymous": false,
      "inputs": [
        {
          "indexed": true,
          "internalType": "address",
          "name": "owner",
          "type": "address"
        },
        {
          "indexed": true,
          "internalType": "address",
          "name": "spender",
          "type": "address"
        },
        {
          "indexed": false,
          "internalType": "uint256",
          "name": "value",
          "type": "uint256"
        },
        {
          "indexed": false,
          "internalType": "uint256",
          "name": "timestamp",
          "type": "uint256"
        }
      ],
      "name": "GaslessApproval",
      "type": "event"
    },
    {
      "anonymous": false,
      "inputs": [
        {
          "indexed": true,
          "internalType": "address",
          "name": "previousOwner",
          "type": "address"
        },
        {
          "indexed": true,
          "internalType": "address",
          "name": "newOwner",
          "type": "address"
        }
      ],
      "name": "OwnershipTransferred",
      "type": "event"
    },
    {
      "anonymous": false,
      "inputs": [
        {
          "indexed": true,
          "internalType": "address",
          "name": "user",
          "type": "address"
        },
        {
          "indexed": false,
          "internalType": "string",
          "name": "loyal_ID",
          "type": "string"
        }
      ],
      "name": "Registered",
      "type": "event"
    },
    {
      "anonymous": false,
      "inputs": [
        {
          "indexed": true,
          "internalType": "address",
          "name": "to",
          "type": "address"
        },
        {
          "indexed": false,
          "internalType": "uint256",
          "name": "amount",
          "type": "uint256"
        }
      ],
      "name": "RewardsSent",
      "type": "event"
    },
    {
      "anonymous": false,
      "inputs": [
        {
          "indexed": true,
          "internalType": "address",
          "name": "from",
          "type": "address"
        },
        {
          "indexed": true,
          "internalType": "address",
          "name": "to",
          "type": "address"
        },
        {
          "indexed": false,
          "internalType": "uint256",
          "name": "amount",
          "type": "uint256"
        },
        {
          "indexed": false,
          "internalType": "uint256",
          "name": "timestamp",
          "type": "uint256"
        }
      ],
      "name": "UserTokenTransfer",
      "type": "event"
    },
    {
      "inputs": [
        {
          "internalType": "string",
          "name": "_loyalId",
          "type": "string"
        },
        {
          "internalType": "uint256",
          "name": "_amount",
          "type": "uint256"
        }
      ],
      "name": "adminTransferTokensToUser",
      "outputs": [],
      "stateMutability": "nonpayable",
      "type": "function"
    },
    {
      "inputs": [],
      "name": "commerceName",
      "outputs": [
        {
          "internalType": "string",
          "name": "",
          "type": "string"
        }
      ],
      "stateMutability": "view",
      "type": "function"
    },
    {
      "inputs": [],
      "name": "commercePrefix",
      "outputs": [
        {
          "internalType": "string",
          "name": "",
          "type": "string"
        }
      ],
      "stateMutability": "view",
      "type": "function"
    },
    {
      "inputs": [
        {
          "internalType": "address",
          "name": "_owner",
          "type": "address"
        },
        {
          "internalType": "address",
          "name": "_spender",
          "type": "address"
        },
        {
          "internalType": "uint256",
          "name": "_value",
          "type": "uint256"
        },
        {
          "internalType": "bytes",
          "name": "_signature",
          "type": "bytes"
        }
      ],
      "name": "gaslessApprove",
      "outputs": [
        {
          "internalType": "bool",
          "name": "",
          "type": "bool"
        }
      ],
      "stateMutability": "nonpayable",
      "type": "function"
    },
    {
      "inputs": [
        {
          "internalType": "string",
          "name": "_loyalId",
          "type": "string"
        }
      ],
      "name": "getUserAddress",
      "outputs": [
        {
          "internalType": "address",
          "name": "",
          "type": "address"
        }
      ],
      "stateMutability": "view",
      "type": "function"
    },
    {
      "inputs": [],
      "name": "getUsersCount",
      "outputs": [
        {
          "internalType": "uint256",
          "name": "",
          "type": "uint256"
        }
      ],
      "stateMutability": "view",
      "type": "function"
    },
    {
      "inputs": [
        {
          "internalType": "string",
          "name": "",
          "type": "string"
        }
      ],
      "name": "loyalIdToUser",
      "outputs": [
        {
          "internalType": "address",
          "name": "",
          "type": "address"
        }
      ],
      "stateMutability": "view",
      "type": "function"
    },
    {
      "inputs": [],
      "name": "omniToken",
      "outputs": [
        {
          "internalType": "contract OmniToken",
          "name": "",
          "type": "address"
        }
      ],
      "stateMutability": "view",
      "type": "function"
    },
    {
      "inputs": [],
      "name": "owner",
      "outputs": [
        {
          "internalType": "address",
          "name": "",
          "type": "address"
        }
      ],
      "stateMutability": "view",
      "type": "function"
    },
    {
      "inputs": [
        {
          "internalType": "string",
          "name": "_loyalId",
          "type": "string"
        },
        {
          "internalType": "address",
          "name": "_userAddress",
          "type": "address"
        }
      ],
      "name": "register",
      "outputs": [
        {
          "internalType": "bool",
          "name": "",
          "type": "bool"
        }
      ],
      "stateMutability": "nonpayable",
      "type": "function"
    },
    {
      "inputs": [],
      "name": "renounceOwnership",
      "outputs": [],
      "stateMutability": "nonpayable",
      "type": "function"
    },
    {
      "inputs": [
        {
          "internalType": "string",
          "name": "_loyalId",
          "type": "string"
        },
        {
          "internalType": "uint256",
          "name": "_purchaseValue",
          "type": "uint256"
        }
      ],
      "name": "sendRewards",
      "outputs": [
        {
          "internalType": "bool",
          "name": "",
          "type": "bool"
        }
      ],
      "stateMutability": "nonpayable",
      "type": "function"
    },
    {
      "inputs": [
        {
          "internalType": "uint256",
          "name": "_newRatio",
          "type": "uint256"
        }
      ],
      "name": "setTokenRatio",
      "outputs": [],
      "stateMutability": "nonpayable",
      "type": "function"
    },
    {
      "inputs": [],
      "name": "tokenRatio",
      "outputs": [
        {
          "internalType": "uint256",
          "name": "",
          "type": "uint256"
        }
      ],
      "stateMutability": "view",
      "type": "function"
    },
    {
      "inputs": [
        {
          "internalType": "address",
          "name": "newOwner",
          "type": "address"
        }
      ],
      "name": "transferOwnership",
      "outputs": [],
      "stateMutability": "nonpayable",
      "type": "function"
    },
    {
      "inputs": [
        {
          "internalType": "address",
          "name": "_from",
          "type": "address"
        },
        {
          "internalType": "address",
          "name": "_to",
          "type": "address"
        },
        {
          "internalType": "uint256",
          "name": "_amount",
          "type": "uint256"
        },
        {
          "internalType": "bytes",
          "name": "_signature",
          "type": "bytes"
        }
      ],
      "name": "userTransferTokensToUser",
      "outputs": [
        {
          "internalType": "bool",
          "name": "",
          "type": "bool"
        }
      ],
      "stateMutability": "nonpayable",
      "type": "function"
    },
    {
      "inputs": [
        {
          "internalType": "uint256",
          "name": "",
          "type": "uint256"
        }
      ],
      "name": "usersLoyaltyIds",
      "outputs": [
        {
          "internalType": "string",
          "name": "",
          "type": "string"
        }
      ],
      "stateMutability": "view",
      "type": "function"
    }
  ],
  "bytecode": "0x60806040523480156200001157600080fd5b50604051620034e7380380620034e78339818101604052810190620000379190620004f3565b620000576200004b620000df60201b60201c565b620000e760201b60201c565b83600260006101000a81548173ffffffffffffffffffffffffffffffffffffffff021916908373ffffffffffffffffffffffffffffffffffffffff1602179055508160049081620000a99190620007ee565b508060059081620000bb9190620007ee565b506001600381905550620000d583620001ab60201b60201c565b50505050620009f0565b600033905090565b60008060009054906101000a900473ffffffffffffffffffffffffffffffffffffffff169050816000806101000a81548173ffffffffffffffffffffffffffffffffffffffff021916908373ffffffffffffffffffffffffffffffffffffffff1602179055508173ffffffffffffffffffffffffffffffffffffffff168173ffffffffffffffffffffffffffffffffffffffff167f8be0079c531659141344cd1fd0a4f28419497f9722a3daafe3b4186f6b6457e060405160405180910390a35050565b620001bb6200024160201b60201c565b600073ffffffffffffffffffffffffffffffffffffffff168173ffffffffffffffffffffffffffffffffffffffff16036200022d576040517f08c379a000000000000000000000000000000000000000000000000000000000815260040162000224906200095c565b60405180910390fd5b6200023e81620000e760201b60201c565b50565b62000251620000df60201b60201c565b73ffffffffffffffffffffffffffffffffffffffff1662000277620002d260201b60201c565b73ffffffffffffffffffffffffffffffffffffffff1614620002d0576040517f08c379a0000000000000000000000000000000000000000000000000000000008152600401620002c790620009ce565b60405180910390fd5b565b60008060009054906101000a900473ffffffffffffffffffffffffffffffffffffffff16905090565b6000604051905090565b600080fd5b600080fd5b600073ffffffffffffffffffffffffffffffffffffffff82169050919050565b60006200033c826200030f565b9050919050565b6200034e816200032f565b81146200035a57600080fd5b50565b6000815190506200036e8162000343565b92915050565b600080fd5b600080fd5b6000601f19601f8301169050919050565b7f4e487b7100000000000000000000000000000000000000000000000000000000600052604160045260246000fd5b620003c9826200037e565b810181811067ffffffffffffffff82111715620003eb57620003ea6200038f565b5b80604052505050565b600062000400620002fb565b90506200040e8282620003be565b919050565b600067ffffffffffffffff8211156200043157620004306200038f565b5b6200043c826200037e565b9050602081019050919050565b60005b83811015620004695780820151818401526020810190506200044c565b60008484015250505050565b60006200048c620004868462000413565b620003f4565b905082815260208101848484011115620004ab57620004aa62000379565b5b620004b884828562000449565b509392505050565b600082601f830112620004d857620004d762000374565b5b8151620004ea84826020860162000475565b91505092915050565b6000806000806080858703121562000510576200050f62000305565b5b600062000520878288016200035d565b945050602062000533878288016200035d565b935050604085015167ffffffffffffffff8111156200055757620005566200030a565b5b6200056587828801620004c0565b925050606085015167ffffffffffffffff8111156200058957620005886200030a565b5b6200059787828801620004c0565b91505092959194509250565b600081519050919050565b7f4e487b7100000000000000000000000000000000000000000000000000000000600052602260045260246000fd5b60006002820490506001821680620005f657607f821691505b6020821081036200060c576200060b620005ae565b5b50919050565b60008190508160005260206000209050919050565b60006020601f8301049050919050565b600082821b905092915050565b600060088302620006767fffffffffffffffffffffffffffffffffffffffffffffffffffffffffffffffff8262000637565b62000682868362000637565b95508019841693508086168417925050509392505050565b6000819050919050565b6000819050919050565b6000620006cf620006c9620006c3846200069a565b620006a4565b6200069a565b9050919050565b6000819050919050565b620006eb83620006ae565b62000703620006fa82620006d6565b84845462000644565b825550505050565b600090565b6200071a6200070b565b62000727818484620006e0565b505050565b5b818110156200074f576200074360008262000710565b6001810190506200072d565b5050565b601f8211156200079e57620007688162000612565b620007738462000627565b8101602085101562000783578190505b6200079b620007928562000627565b8301826200072c565b50505b505050565b600082821c905092915050565b6000620007c360001984600802620007a3565b1980831691505092915050565b6000620007de8383620007b0565b9150826002028217905092915050565b620007f982620005a3565b67ffffffffffffffff8111156200081557620008146200038f565b5b620008218254620005dd565b6200082e82828562000753565b600060209050601f83116001811462000866576000841562000851578287015190505b6200085d8582620007d0565b865550620008cd565b601f198416620008768662000612565b60005b82811015620008a05784890151825560018201915060208501945060208101905062000879565b86831015620008c05784890151620008bc601f891682620007b0565b8355505b6001600288020188555050505b505050505050565b600082825260208201905092915050565b7f4f776e61626c653a206e6577206f776e657220697320746865207a65726f206160008201527f6464726573730000000000000000000000000000000000000000000000000000602082015250565b600062000944602683620008d5565b91506200095182620008e6565b604082019050919050565b60006020820190508181036000830152620009778162000935565b9050919050565b7f4f776e61626c653a2063616c6c6572206973206e6f7420746865206f776e6572600082015250565b6000620009b6602083620008d5565b9150620009c3826200097e565b602082019050919050565b60006020820190508181036000830152620009e981620009a7565b9050919050565b612ae78062000a006000396000f3fe608060405234801561001057600080fd5b506004361061010b5760003560e01c8063715018a6116100a2578063acb9695611610071578063acb96956146102aa578063bad31f5f146102da578063e38e91f91461030a578063e7c9c03314610326578063f2fde38b146103565761010b565b8063715018a61461024657806381a4f0db146102505780638da5cb5b1461026e578063a4a1e2631461028c5761010b565b80631e59c529116100de5780631e59c529146101985780634985e85c146101c85780634bc33e56146101f85780636a3cf768146102165761010b565b80630186f8a4146101105780630193911a1461012e57806306f837d31461014a578063086c4dac14610168575b600080fd5b610118610372565b604051610125919061180e565b60405180910390f35b610148600480360381019061014391906119b9565b610398565b005b61015261052b565b60405161015f9190611a24565b60405180910390f35b610182600480360381019061017d9190611a3f565b610531565b60405161018f9190611aeb565b60405180910390f35b6101b260048036038101906101ad9190611b4b565b6105dd565b6040516101bf9190611bc2565b60405180910390f35b6101e260048036038101906101dd9190611bdd565b61077e565b6040516101ef9190611c35565b60405180910390f35b610200610872565b60405161020d9190611aeb565b60405180910390f35b610230600480360381019061022b9190611bdd565b610900565b60405161023d9190611c35565b60405180910390f35b61024e610949565b005b61025861095d565b6040516102659190611aeb565b60405180910390f35b6102766109eb565b6040516102839190611c35565b60405180910390f35b610294610a14565b6040516102a19190611a24565b60405180910390f35b6102c460048036038101906102bf9190611cf1565b610a21565b6040516102d19190611bc2565b60405180910390f35b6102f460048036038101906102ef9190611cf1565b610b9c565b6040516103019190611bc2565b60405180910390f35b610324600480360381019061031f9190611a3f565b610d47565b005b610340600480360381019061033b91906119b9565b610d59565b60405161034d9190611bc2565b60405180910390f35b610370600480360381019061036b9190611d74565b610f1a565b005b600260009054906101000a900473ffffffffffffffffffffffffffffffffffffffff1681565b6103a0610f9d565b60006103ab8361077e565b905081600260009054906101000a900473ffffffffffffffffffffffffffffffffffffffff1673ffffffffffffffffffffffffffffffffffffffff166370a08231306040518263ffffffff1660e01b81526004016104099190611c35565b602060405180830381865afa158015610426573d6000803e3d6000fd5b505050506040513d601f19601f8201168201806040525081019061044a9190611db6565b101561048b576040517f08c379a000000000000000000000000000000000000000000000000000000000815260040161048290611e2f565b60405180910390fd5b6104d88183600260009054906101000a900473ffffffffffffffffffffffffffffffffffffffff1673ffffffffffffffffffffffffffffffffffffffff1661101b9092919063ffffffff16565b8073ffffffffffffffffffffffffffffffffffffffff167fc023bfc8b9de1030940ad5882588fbc4a6551e1aedcb2ac97fad9c9cfeebffee8360405161051e9190611a24565b60405180910390a2505050565b60035481565b6006818154811061054157600080fd5b90600052602060002001600091509050805461055c90611e7e565b80601f016020809104026020016040519081016040528092919081815260200182805461058890611e7e565b80156105d55780601f106105aa576101008083540402835291602001916105d5565b820191906000526020600020905b8154815290600101906020018083116105b857829003601f168201915b505050505081565b60006105e7610f9d565b600073ffffffffffffffffffffffffffffffffffffffff1660018460405161060f9190611eeb565b908152602001604051809103902060009054906101000a900473ffffffffffffffffffffffffffffffffffffffff1673ffffffffffffffffffffffffffffffffffffffff1614610694576040517f08c379a000000000000000000000000000000000000000000000000000000000815260040161068b90611f4e565b60405180910390fd5b816001846040516106a59190611eeb565b908152602001604051809103902060006101000a81548173ffffffffffffffffffffffffffffffffffffffff021916908373ffffffffffffffffffffffffffffffffffffffff1602179055506006839080600181540180825580915050600190039060005260206000200160009091909190915090816107259190612110565b508173ffffffffffffffffffffffffffffffffffffffff167fb3eccf73f39b1c07947c780b2b39df2a1bb058b4037b0a42d0881ca1a028a1328460405161076c9190611aeb565b60405180910390a26001905092915050565b60008073ffffffffffffffffffffffffffffffffffffffff166001836040516107a79190611eeb565b908152602001604051809103902060009054906101000a900473ffffffffffffffffffffffffffffffffffffffff1673ffffffffffffffffffffffffffffffffffffffff160361082c576040517f08c379a00000000000000000000000000000000000000000000000000000000081526004016108239061222e565b60405180910390fd5b60018260405161083c9190611eeb565b908152602001604051809103902060009054906101000a900473ffffffffffffffffffffffffffffffffffffffff169050919050565b6005805461087f90611e7e565b80601f01602080910402602001604051908101604052809291908181526020018280546108ab90611e7e565b80156108f85780601f106108cd576101008083540402835291602001916108f8565b820191906000526020600020905b8154815290600101906020018083116108db57829003601f168201915b505050505081565b6001818051602081018201805184825260208301602085012081835280955050505050506000915054906101000a900473ffffffffffffffffffffffffffffffffffffffff1681565b610951610f9d565b61095b60006110a1565b565b6004805461096a90611e7e565b80601f016020809104026020016040519081016040528092919081815260200182805461099690611e7e565b80156109e35780601f106109b8576101008083540402835291602001916109e3565b820191906000526020600020905b8154815290600101906020018083116109c657829003601f168201915b505050505081565b60008060009054906101000a900473ffffffffffffffffffffffffffffffffffffffff16905090565b6000600680549050905090565b6000610a2b610f9d565b6000610a60868686604051602001610a45939291906122b7565b60405160208183030381529060405280519060200120611165565b90508573ffffffffffffffffffffffffffffffffffffffff16610a838285611195565b73ffffffffffffffffffffffffffffffffffffffff1614610ad9576040517f08c379a0000000000000000000000000000000000000000000000000000000008152600401610ad090612340565b60405180910390fd5b610b28868686600260009054906101000a900473ffffffffffffffffffffffffffffffffffffffff1673ffffffffffffffffffffffffffffffffffffffff166111a9909392919063ffffffff16565b8473ffffffffffffffffffffffffffffffffffffffff168673ffffffffffffffffffffffffffffffffffffffff167f481e7d56b32ba5694db6d6e1e8664106f5096f0eed26ca72a9323f9a39c2d0d48642604051610b87929190612360565b60405180910390a36001915050949350505050565b6000610ba6610f9d565b6000610bdb868686604051602001610bc0939291906122b7565b60405160208183030381529060405280519060200120611165565b90508573ffffffffffffffffffffffffffffffffffffffff16610bfe8285611195565b73ffffffffffffffffffffffffffffffffffffffff1614610c54576040517f08c379a0000000000000000000000000000000000000000000000000000000008152600401610c4b90612340565b60405180910390fd5b6000600260009054906101000a900473ffffffffffffffffffffffffffffffffffffffff1673ffffffffffffffffffffffffffffffffffffffff16632b9917468888886040518463ffffffff1660e01b8152600401610cb593929190612389565b6020604051808303816000875af1158015610cd4573d6000803e3d6000fd5b505050506040513d601f19601f82011682018060405250810190610cf891906123ec565b905080610d3a576040517f08c379a0000000000000000000000000000000000000000000000000000000008152600401610d3190612465565b60405180910390fd5b8092505050949350505050565b610d4f610f9d565b8060038190555050565b6000610d63610f9d565b6000610d6e8461077e565b90506000670de0b6b3a764000060035485610d8991906124b4565b610d9391906124b4565b905080600260009054906101000a900473ffffffffffffffffffffffffffffffffffffffff1673ffffffffffffffffffffffffffffffffffffffff166370a08231306040518263ffffffff1660e01b8152600401610df19190611c35565b602060405180830381865afa158015610e0e573d6000803e3d6000fd5b505050506040513d601f19601f82011682018060405250810190610e329190611db6565b1015610e73576040517f08c379a0000000000000000000000000000000000000000000000000000000008152600401610e6a90611e2f565b60405180910390fd5b610ec08282600260009054906101000a900473ffffffffffffffffffffffffffffffffffffffff1673ffffffffffffffffffffffffffffffffffffffff1661101b9092919063ffffffff16565b8173ffffffffffffffffffffffffffffffffffffffff167f2cdd0b9dc1e55aa7be2d768970ec6e398da88b8e440c2798c748247ab578ddd782604051610f069190611a24565b60405180910390a260019250505092915050565b610f22610f9d565b600073ffffffffffffffffffffffffffffffffffffffff168173ffffffffffffffffffffffffffffffffffffffff1603610f91576040517f08c379a0000000000000000000000000000000000000000000000000000000008152600401610f8890612568565b60405180910390fd5b610f9a816110a1565b50565b610fa5611232565b73ffffffffffffffffffffffffffffffffffffffff16610fc36109eb565b73ffffffffffffffffffffffffffffffffffffffff1614611019576040517f08c379a0000000000000000000000000000000000000000000000000000000008152600401611010906125d4565b60405180910390fd5b565b61109c8363a9059cbb60e01b848460405160240161103a9291906125f4565b604051602081830303815290604052907bffffffffffffffffffffffffffffffffffffffffffffffffffffffff19166020820180517bffffffffffffffffffffffffffffffffffffffffffffffffffffffff838183161783525050505061123a565b505050565b60008060009054906101000a900473ffffffffffffffffffffffffffffffffffffffff169050816000806101000a81548173ffffffffffffffffffffffffffffffffffffffff021916908373ffffffffffffffffffffffffffffffffffffffff1602179055508173ffffffffffffffffffffffffffffffffffffffff168173ffffffffffffffffffffffffffffffffffffffff167f8be0079c531659141344cd1fd0a4f28419497f9722a3daafe3b4186f6b6457e060405160405180910390a35050565b6000816040516020016111789190612694565b604051602081830303815290604052805190602001209050919050565b60006111a18383611302565b905092915050565b61122c846323b872dd60e01b8585856040516024016111ca93929190612389565b604051602081830303815290604052907bffffffffffffffffffffffffffffffffffffffffffffffffffffffff19166020820180517bffffffffffffffffffffffffffffffffffffffffffffffffffffffff838183161783525050505061123a565b50505050565b600033905090565b600061129c826040518060400160405280602081526020017f5361666545524332303a206c6f772d6c6576656c2063616c6c206661696c65648152508573ffffffffffffffffffffffffffffffffffffffff166113299092919063ffffffff16565b90506000815114806112be5750808060200190518101906112bd91906123ec565b5b6112fd576040517f08c379a00000000000000000000000000000000000000000000000000000000081526004016112f49061272c565b60405180910390fd5b505050565b60008060006113118585611341565b9150915061131e81611392565b819250505092915050565b606061133884846000856114f8565b90509392505050565b60008060418351036113825760008060006020860151925060408601519150606086015160001a9050611376878285856115c5565b9450945050505061138b565b60006002915091505b9250929050565b600060048111156113a6576113a561274c565b5b8160048111156113b9576113b861274c565b5b03156114f557600160048111156113d3576113d261274c565b5b8160048111156113e6576113e561274c565b5b03611426576040517f08c379a000000000000000000000000000000000000000000000000000000000815260040161141d906127c7565b60405180910390fd5b6002600481111561143a5761143961274c565b5b81600481111561144d5761144c61274c565b5b0361148d576040517f08c379a000000000000000000000000000000000000000000000000000000000815260040161148490612833565b60405180910390fd5b600360048111156114a1576114a061274c565b5b8160048111156114b4576114b361274c565b5b036114f4576040517f08c379a00000000000000000000000000000000000000000000000000000000081526004016114eb906128c5565b60405180910390fd5b5b50565b60608247101561153d576040517f08c379a000000000000000000000000000000000000000000000000000000000815260040161153490612957565b60405180910390fd5b6000808673ffffffffffffffffffffffffffffffffffffffff16858760405161156691906129be565b60006040518083038185875af1925050503d80600081146115a3576040519150601f19603f3d011682016040523d82523d6000602084013e6115a8565b606091505b50915091506115b9878383876116a7565b92505050949350505050565b6000807f7fffffffffffffffffffffffffffffff5d576e7357a4501ddfe92f46681b20a08360001c111561160057600060039150915061169e565b6000600187878787604051600081526020016040526040516116259493929190612a00565b6020604051602081039080840390855afa158015611647573d6000803e3d6000fd5b505050602060405103519050600073ffffffffffffffffffffffffffffffffffffffff168173ffffffffffffffffffffffffffffffffffffffff16036116955760006001925092505061169e565b80600092509250505b94509492505050565b60608315611709576000835103611701576116c18561171c565b611700576040517f08c379a00000000000000000000000000000000000000000000000000000000081526004016116f790612a91565b60405180910390fd5b5b829050611714565b611713838361173f565b5b949350505050565b6000808273ffffffffffffffffffffffffffffffffffffffff163b119050919050565b6000825111156117525781518083602001fd5b806040517f08c379a00000000000000000000000000000000000000000000000000000000081526004016117869190611aeb565b60405180910390fd5b600073ffffffffffffffffffffffffffffffffffffffff82169050919050565b6000819050919050565b60006117d46117cf6117ca8461178f565b6117af565b61178f565b9050919050565b60006117e6826117b9565b9050919050565b60006117f8826117db565b9050919050565b611808816117ed565b82525050565b600060208201905061182360008301846117ff565b92915050565b6000604051905090565b600080fd5b600080fd5b600080fd5b600080fd5b6000601f19601f8301169050919050565b7f4e487b7100000000000000000000000000000000000000000000000000000000600052604160045260246000fd5b61189082611847565b810181811067ffffffffffffffff821117156118af576118ae611858565b5b80604052505050565b60006118c2611829565b90506118ce8282611887565b919050565b600067ffffffffffffffff8211156118ee576118ed611858565b5b6118f782611847565b9050602081019050919050565b82818337600083830152505050565b6000611926611921846118d3565b6118b8565b90508281526020810184848401111561194257611941611842565b5b61194d848285611904565b509392505050565b600082601f83011261196a5761196961183d565b5b813561197a848260208601611913565b91505092915050565b6000819050919050565b61199681611983565b81146119a157600080fd5b50565b6000813590506119b38161198d565b92915050565b600080604083850312156119d0576119cf611833565b5b600083013567ffffffffffffffff8111156119ee576119ed611838565b5b6119fa85828601611955565b9250506020611a0b858286016119a4565b9150509250929050565b611a1e81611983565b82525050565b6000602082019050611a396000830184611a15565b92915050565b600060208284031215611a5557611a54611833565b5b6000611a63848285016119a4565b91505092915050565b600081519050919050565b600082825260208201905092915050565b60005b83811015611aa6578082015181840152602081019050611a8b565b60008484015250505050565b6000611abd82611a6c565b611ac78185611a77565b9350611ad7818560208601611a88565b611ae081611847565b840191505092915050565b60006020820190508181036000830152611b058184611ab2565b905092915050565b6000611b188261178f565b9050919050565b611b2881611b0d565b8114611b3357600080fd5b50565b600081359050611b4581611b1f565b92915050565b60008060408385031215611b6257611b61611833565b5b600083013567ffffffffffffffff811115611b8057611b7f611838565b5b611b8c85828601611955565b9250506020611b9d85828601611b36565b9150509250929050565b60008115159050919050565b611bbc81611ba7565b82525050565b6000602082019050611bd76000830184611bb3565b92915050565b600060208284031215611bf357611bf2611833565b5b600082013567ffffffffffffffff811115611c1157611c10611838565b5b611c1d84828501611955565b91505092915050565b611c2f81611b0d565b82525050565b6000602082019050611c4a6000830184611c26565b92915050565b600067ffffffffffffffff821115611c6b57611c6a611858565b5b611c7482611847565b9050602081019050919050565b6000611c94611c8f84611c50565b6118b8565b905082815260208101848484011115611cb057611caf611842565b5b611cbb848285611904565b509392505050565b600082601f830112611cd857611cd761183d565b5b8135611ce8848260208601611c81565b91505092915050565b60008060008060808587031215611d0b57611d0a611833565b5b6000611d1987828801611b36565b9450506020611d2a87828801611b36565b9350506040611d3b878288016119a4565b925050606085013567ffffffffffffffff811115611d5c57611d5b611838565b5b611d6887828801611cc3565b91505092959194509250565b600060208284031215611d8a57611d89611833565b5b6000611d9884828501611b36565b91505092915050565b600081519050611db08161198d565b92915050565b600060208284031215611dcc57611dcb611833565b5b6000611dda84828501611da1565b91505092915050565b7f4e54000000000000000000000000000000000000000000000000000000000000600082015250565b6000611e19600283611a77565b9150611e2482611de3565b602082019050919050565b60006020820190508181036000830152611e4881611e0c565b9050919050565b7f4e487b7100000000000000000000000000000000000000000000000000000000600052602260045260246000fd5b60006002820490506001821680611e9657607f821691505b602082108103611ea957611ea8611e4f565b5b50919050565b600081905092915050565b6000611ec582611a6c565b611ecf8185611eaf565b9350611edf818560208601611a88565b80840191505092915050565b6000611ef78284611eba565b915081905092915050565b7f4c49444600000000000000000000000000000000000000000000000000000000600082015250565b6000611f38600483611a77565b9150611f4382611f02565b602082019050919050565b60006020820190508181036000830152611f6781611f2b565b9050919050565b60008190508160005260206000209050919050565b60006020601f8301049050919050565b600082821b905092915050565b600060088302611fd07fffffffffffffffffffffffffffffffffffffffffffffffffffffffffffffffff82611f93565b611fda8683611f93565b95508019841693508086168417925050509392505050565b600061200d61200861200384611983565b6117af565b611983565b9050919050565b6000819050919050565b61202783611ff2565b61203b61203382612014565b848454611fa0565b825550505050565b600090565b612050612043565b61205b81848461201e565b505050565b5b8181101561207f57612074600082612048565b600181019050612061565b5050565b601f8211156120c45761209581611f6e565b61209e84611f83565b810160208510156120ad578190505b6120c16120b985611f83565b830182612060565b50505b505050565b600082821c905092915050565b60006120e7600019846008026120c9565b1980831691505092915050565b600061210083836120d6565b9150826002028217905092915050565b61211982611a6c565b67ffffffffffffffff81111561213257612131611858565b5b61213c8254611e7e565b612147828285612083565b600060209050601f83116001811461217a5760008415612168578287015190505b61217285826120f4565b8655506121da565b601f19841661218886611f6e565b60005b828110156121b05784890151825560018201915060208501945060208101905061218b565b868310156121cd57848901516121c9601f8916826120d6565b8355505b6001600288020188555050505b505050505050565b7f4c49444e46000000000000000000000000000000000000000000000000000000600082015250565b6000612218600583611a77565b9150612223826121e2565b602082019050919050565b600060208201905081810360008301526122478161220b565b9050919050565b60008160601b9050919050565b60006122668261224e565b9050919050565b60006122788261225b565b9050919050565b61229061228b82611b0d565b61226d565b82525050565b6000819050919050565b6122b16122ac82611983565b612296565b82525050565b60006122c3828661227f565b6014820191506122d3828561227f565b6014820191506122e382846122a0565b602082019150819050949350505050565b7f4953000000000000000000000000000000000000000000000000000000000000600082015250565b600061232a600283611a77565b9150612335826122f4565b602082019050919050565b600060208201905081810360008301526123598161231d565b9050919050565b60006040820190506123756000830185611a15565b6123826020830184611a15565b9392505050565b600060608201905061239e6000830186611c26565b6123ab6020830185611c26565b6123b86040830184611a15565b949350505050565b6123c981611ba7565b81146123d457600080fd5b50565b6000815190506123e6816123c0565b92915050565b60006020828403121561240257612401611833565b5b6000612410848285016123d7565b91505092915050565b7f4146000000000000000000000000000000000000000000000000000000000000600082015250565b600061244f600283611a77565b915061245a82612419565b602082019050919050565b6000602082019050818103600083015261247e81612442565b9050919050565b7f4e487b7100000000000000000000000000000000000000000000000000000000600052601160045260246000fd5b60006124bf82611983565b91506124ca83611983565b92508282026124d881611983565b915082820484148315176124ef576124ee612485565b5b5092915050565b7f4f776e61626c653a206e6577206f776e657220697320746865207a65726f206160008201527f6464726573730000000000000000000000000000000000000000000000000000602082015250565b6000612552602683611a77565b915061255d826124f6565b604082019050919050565b6000602082019050818103600083015261258181612545565b9050919050565b7f4f776e61626c653a2063616c6c6572206973206e6f7420746865206f776e6572600082015250565b60006125be602083611a77565b91506125c982612588565b602082019050919050565b600060208201905081810360008301526125ed816125b1565b9050919050565b60006040820190506126096000830185611c26565b6126166020830184611a15565b9392505050565b7f19457468657265756d205369676e6564204d6573736167653a0a333200000000600082015250565b6000612653601c83611eaf565b915061265e8261261d565b601c82019050919050565b6000819050919050565b6000819050919050565b61268e61268982612669565b612673565b82525050565b600061269f82612646565b91506126ab828461267d565b60208201915081905092915050565b7f5361666545524332303a204552433230206f7065726174696f6e20646964206e60008201527f6f74207375636365656400000000000000000000000000000000000000000000602082015250565b6000612716602a83611a77565b9150612721826126ba565b604082019050919050565b6000602082019050818103600083015261274581612709565b9050919050565b7f4e487b7100000000000000000000000000000000000000000000000000000000600052602160045260246000fd5b7f45434453413a20696e76616c6964207369676e61747572650000000000000000600082015250565b60006127b1601883611a77565b91506127bc8261277b565b602082019050919050565b600060208201905081810360008301526127e0816127a4565b9050919050565b7f45434453413a20696e76616c6964207369676e6174757265206c656e67746800600082015250565b600061281d601f83611a77565b9150612828826127e7565b602082019050919050565b6000602082019050818103600083015261284c81612810565b9050919050565b7f45434453413a20696e76616c6964207369676e6174757265202773272076616c60008201527f7565000000000000000000000000000000000000000000000000000000000000602082015250565b60006128af602283611a77565b91506128ba82612853565b604082019050919050565b600060208201905081810360008301526128de816128a2565b9050919050565b7f416464726573733a20696e73756666696369656e742062616c616e636520666f60008201527f722063616c6c0000000000000000000000000000000000000000000000000000602082015250565b6000612941602683611a77565b915061294c826128e5565b604082019050919050565b6000602082019050818103600083015261297081612934565b9050919050565b600081519050919050565b600081905092915050565b600061299882612977565b6129a28185612982565b93506129b2818560208601611a88565b80840191505092915050565b60006129ca828461298d565b915081905092915050565b6129de81612669565b82525050565b600060ff82169050919050565b6129fa816129e4565b82525050565b6000608082019050612a1560008301876129d5565b612a2260208301866129f1565b612a2f60408301856129d5565b612a3c60608301846129d5565b95945050505050565b7f416464726573733a2063616c6c20746f206e6f6e2d636f6e7472616374000000600082015250565b6000612a7b601d83611a77565b9150612a8682612a45565b602082019050919050565b60006020820190508181036000830152612aaa81612a6e565b905091905056fea264697066735822122026e88bf1bb7f11e5d7c3f98772c69061ac3049294c54e2c5e52e07941f67be9b64736f6c63430008140033",
  "linkReferences": {},
  "deployedLinkReferences": {}
}