{
  "_format": "hh-sol-artifact-1",
  "contractName": "LoyaltyProgram",
  "sourceName": "contracts/LoyaltyProgram.sol",
  "abi": [
    {
      "inputs": [
        {
          "internalType": "address",
          "name": "_omniTokenAddress",
          "type": "address"
        },
        {
          "internalType": "address",
          "name": "_owner",
          "type": "address"
        },
        {
          "internalType": "string",
          "name": "_commerceName",
          "type": "string"
        },
        {
          "internalType": "string",
          "name": "_commercePrefix",
          "type": "string"
        }
      ],
      "stateMutability": "nonpayable",
      "type": "constructor"
    },
    {
      "anonymous": false,
      "inputs": [
        {
          "indexed": true,
          "internalType": "address",
          "name": "owner",
          "type": "address"
        },
        {
          "indexed": true,
          "internalType": "address",
          "name": "spender",
          "type": "address"
        },
        {
          "indexed": false,
          "internalType": "uint256",
          "name": "value",
          "type": "uint256"
        },
        {
          "indexed": false,
          "internalType": "uint256",
          "name": "timestamp",
          "type": "uint256"
        }
      ],
      "name": "GaslessApproval",
      "type": "event"
    },
    {
      "anonymous": false,
      "inputs": [
        {
          "indexed": true,
          "internalType": "address",
          "name": "previousOwner",
          "type": "address"
        },
        {
          "indexed": true,
          "internalType": "address",
          "name": "newOwner",
          "type": "address"
        }
      ],
      "name": "OwnershipTransferred",
      "type": "event"
    },
    {
      "anonymous": false,
      "inputs": [
        {
          "indexed": true,
          "internalType": "address",
          "name": "from",
          "type": "address"
        },
        {
          "indexed": false,
          "internalType": "address",
          "name": "_toProductOwner",
          "type": "address"
        },
        {
          "indexed": true,
          "internalType": "address",
          "name": "_toUserOwner",
          "type": "address"
        },
        {
          "indexed": false,
          "internalType": "uint256",
          "name": "amount",
          "type": "uint256"
        },
        {
          "indexed": false,
          "internalType": "uint256",
          "name": "timestamp",
          "type": "uint256"
        }
      ],
      "name": "RedeemProduct",
      "type": "event"
    },
    {
      "anonymous": false,
      "inputs": [
        {
          "indexed": true,
          "internalType": "address",
          "name": "user",
          "type": "address"
        },
        {
          "indexed": false,
          "internalType": "string",
          "name": "loyal_ID",
          "type": "string"
        },
        {
          "indexed": false,
          "internalType": "uint256",
          "name": "timestamp",
          "type": "uint256"
        }
      ],
      "name": "Registered",
      "type": "event"
    },
    {
      "anonymous": false,
      "inputs": [
        {
          "indexed": true,
          "internalType": "address",
          "name": "from",
          "type": "address"
        },
        {
          "indexed": true,
          "internalType": "address",
          "name": "to",
          "type": "address"
        },
        {
          "indexed": false,
          "internalType": "uint256",
          "name": "amount",
          "type": "uint256"
        },
        {
          "indexed": false,
          "internalType": "uint256",
          "name": "timestamp",
          "type": "uint256"
        }
      ],
      "name": "RewardsSent",
      "type": "event"
    },
    {
      "anonymous": false,
      "inputs": [
        {
          "indexed": true,
          "internalType": "address",
          "name": "from",
          "type": "address"
        },
        {
          "indexed": true,
          "internalType": "address",
          "name": "to",
          "type": "address"
        },
        {
          "indexed": false,
          "internalType": "uint256",
          "name": "amount",
          "type": "uint256"
        },
        {
          "indexed": false,
          "internalType": "uint256",
          "name": "timestamp",
          "type": "uint256"
        }
      ],
      "name": "UserTokenTransfer",
      "type": "event"
    },
    {
      "inputs": [],
      "name": "COMMERCE_RATIO",
      "outputs": [
        {
          "internalType": "uint256",
          "name": "",
          "type": "uint256"
        }
      ],
      "stateMutability": "view",
      "type": "function"
    },
    {
      "inputs": [],
      "name": "PRODUCT_RATIO",
      "outputs": [
        {
          "internalType": "uint256",
          "name": "",
          "type": "uint256"
        }
      ],
      "stateMutability": "view",
      "type": "function"
    },
    {
      "inputs": [
        {
          "internalType": "string",
          "name": "_loyalId",
          "type": "string"
        },
        {
          "internalType": "uint256",
          "name": "_amount",
          "type": "uint256"
        }
      ],
      "name": "adminTransferTokensToUser",
      "outputs": [],
      "stateMutability": "nonpayable",
      "type": "function"
    },
    {
      "inputs": [],
      "name": "commerceName",
      "outputs": [
        {
          "internalType": "string",
          "name": "",
          "type": "string"
        }
      ],
      "stateMutability": "view",
      "type": "function"
    },
    {
      "inputs": [],
      "name": "commercePrefix",
      "outputs": [
        {
          "internalType": "string",
          "name": "",
          "type": "string"
        }
      ],
      "stateMutability": "view",
      "type": "function"
    },
    {
      "inputs": [
        {
          "internalType": "address",
          "name": "_owner",
          "type": "address"
        },
        {
          "internalType": "address",
          "name": "_spender",
          "type": "address"
        },
        {
          "internalType": "uint256",
          "name": "_value",
          "type": "uint256"
        },
        {
          "internalType": "bytes",
          "name": "_signature",
          "type": "bytes"
        }
      ],
      "name": "gaslessApprove",
      "outputs": [
        {
          "internalType": "bool",
          "name": "",
          "type": "bool"
        }
      ],
      "stateMutability": "nonpayable",
      "type": "function"
    },
    {
      "inputs": [
        {
          "internalType": "string",
          "name": "_loyalId",
          "type": "string"
        }
      ],
      "name": "getUserAddress",
      "outputs": [
        {
          "internalType": "address",
          "name": "",
          "type": "address"
        }
      ],
      "stateMutability": "view",
      "type": "function"
    },
    {
      "inputs": [],
      "name": "getUsersCount",
      "outputs": [
        {
          "internalType": "uint256",
          "name": "",
          "type": "uint256"
        }
      ],
      "stateMutability": "view",
      "type": "function"
    },
    {
      "inputs": [
        {
          "internalType": "string",
          "name": "",
          "type": "string"
        }
      ],
      "name": "loyalIdToUser",
      "outputs": [
        {
          "internalType": "address",
          "name": "",
          "type": "address"
        }
      ],
      "stateMutability": "view",
      "type": "function"
    },
    {
      "inputs": [],
      "name": "omniToken",
      "outputs": [
        {
          "internalType": "contract OmniToken",
          "name": "",
          "type": "address"
        }
      ],
      "stateMutability": "view",
      "type": "function"
    },
    {
      "inputs": [],
      "name": "owner",
      "outputs": [
        {
          "internalType": "address",
          "name": "",
          "type": "address"
        }
      ],
      "stateMutability": "view",
      "type": "function"
    },
    {
      "inputs": [
        {
          "internalType": "address",
          "name": "_from",
          "type": "address"
        },
        {
          "internalType": "address",
          "name": "_toProductCommerceAddress",
          "type": "address"
        },
        {
          "internalType": "address",
          "name": "_toUserCommerceAddress",
          "type": "address"
        },
        {
          "internalType": "uint256",
          "name": "_amount",
          "type": "uint256"
        },
        {
          "internalType": "bytes",
          "name": "_signature",
          "type": "bytes"
        }
      ],
      "name": "redeemProduct",
      "outputs": [
        {
          "internalType": "bool",
          "name": "",
          "type": "bool"
        }
      ],
      "stateMutability": "nonpayable",
      "type": "function"
    },
    {
      "inputs": [
        {
          "internalType": "string",
          "name": "_loyalId",
          "type": "string"
        },
        {
          "internalType": "address",
          "name": "_userAddress",
          "type": "address"
        }
      ],
      "name": "register",
      "outputs": [
        {
          "internalType": "bool",
          "name": "",
          "type": "bool"
        }
      ],
      "stateMutability": "nonpayable",
      "type": "function"
    },
    {
      "inputs": [],
      "name": "renounceOwnership",
      "outputs": [],
      "stateMutability": "nonpayable",
      "type": "function"
    },
    {
      "inputs": [
        {
          "internalType": "string",
          "name": "_loyalId",
          "type": "string"
        },
        {
          "internalType": "uint256",
          "name": "_purchaseValue",
          "type": "uint256"
        }
      ],
      "name": "sendRewards",
      "outputs": [
        {
          "internalType": "bool",
          "name": "",
          "type": "bool"
        }
      ],
      "stateMutability": "nonpayable",
      "type": "function"
    },
    {
      "inputs": [
        {
          "internalType": "uint256",
          "name": "_newRatio",
          "type": "uint256"
        }
      ],
      "name": "setTokenRatio",
      "outputs": [],
      "stateMutability": "nonpayable",
      "type": "function"
    },
    {
      "inputs": [],
      "name": "tokenRatio",
      "outputs": [
        {
          "internalType": "uint256",
          "name": "",
          "type": "uint256"
        }
      ],
      "stateMutability": "view",
      "type": "function"
    },
    {
      "inputs": [
        {
          "internalType": "address",
          "name": "newOwner",
          "type": "address"
        }
      ],
      "name": "transferOwnership",
      "outputs": [],
      "stateMutability": "nonpayable",
      "type": "function"
    },
    {
      "inputs": [
        {
          "internalType": "address",
          "name": "_from",
          "type": "address"
        },
        {
          "internalType": "address",
          "name": "_to",
          "type": "address"
        },
        {
          "internalType": "uint256",
          "name": "_amount",
          "type": "uint256"
        },
        {
          "internalType": "bytes",
          "name": "_signature",
          "type": "bytes"
        }
      ],
      "name": "userTransferTokensToUser",
      "outputs": [
        {
          "internalType": "bool",
          "name": "",
          "type": "bool"
        }
      ],
      "stateMutability": "nonpayable",
      "type": "function"
    },
    {
      "inputs": [
        {
          "internalType": "uint256",
          "name": "",
          "type": "uint256"
        }
      ],
      "name": "usersLoyaltyIds",
      "outputs": [
        {
          "internalType": "string",
          "name": "",
          "type": "string"
        }
      ],
      "stateMutability": "view",
      "type": "function"
    }
  ],
  "bytecode": "0x60806040523480156200001157600080fd5b5060405162003aa038038062003aa08339818101604052810190620000379190620004f3565b620000576200004b620000df60201b60201c565b620000e760201b60201c565b83600260006101000a81548173ffffffffffffffffffffffffffffffffffffffff021916908373ffffffffffffffffffffffffffffffffffffffff1602179055508160049081620000a99190620007ee565b508060059081620000bb9190620007ee565b506001600381905550620000d583620001ab60201b60201c565b50505050620009f0565b600033905090565b60008060009054906101000a900473ffffffffffffffffffffffffffffffffffffffff169050816000806101000a81548173ffffffffffffffffffffffffffffffffffffffff021916908373ffffffffffffffffffffffffffffffffffffffff1602179055508173ffffffffffffffffffffffffffffffffffffffff168173ffffffffffffffffffffffffffffffffffffffff167f8be0079c531659141344cd1fd0a4f28419497f9722a3daafe3b4186f6b6457e060405160405180910390a35050565b620001bb6200024160201b60201c565b600073ffffffffffffffffffffffffffffffffffffffff168173ffffffffffffffffffffffffffffffffffffffff16036200022d576040517f08c379a000000000000000000000000000000000000000000000000000000000815260040162000224906200095c565b60405180910390fd5b6200023e81620000e760201b60201c565b50565b62000251620000df60201b60201c565b73ffffffffffffffffffffffffffffffffffffffff1662000277620002d260201b60201c565b73ffffffffffffffffffffffffffffffffffffffff1614620002d0576040517f08c379a0000000000000000000000000000000000000000000000000000000008152600401620002c790620009ce565b60405180910390fd5b565b60008060009054906101000a900473ffffffffffffffffffffffffffffffffffffffff16905090565b6000604051905090565b600080fd5b600080fd5b600073ffffffffffffffffffffffffffffffffffffffff82169050919050565b60006200033c826200030f565b9050919050565b6200034e816200032f565b81146200035a57600080fd5b50565b6000815190506200036e8162000343565b92915050565b600080fd5b600080fd5b6000601f19601f8301169050919050565b7f4e487b7100000000000000000000000000000000000000000000000000000000600052604160045260246000fd5b620003c9826200037e565b810181811067ffffffffffffffff82111715620003eb57620003ea6200038f565b5b80604052505050565b600062000400620002fb565b90506200040e8282620003be565b919050565b600067ffffffffffffffff8211156200043157620004306200038f565b5b6200043c826200037e565b9050602081019050919050565b60005b83811015620004695780820151818401526020810190506200044c565b60008484015250505050565b60006200048c620004868462000413565b620003f4565b905082815260208101848484011115620004ab57620004aa62000379565b5b620004b884828562000449565b509392505050565b600082601f830112620004d857620004d762000374565b5b8151620004ea84826020860162000475565b91505092915050565b6000806000806080858703121562000510576200050f62000305565b5b600062000520878288016200035d565b945050602062000533878288016200035d565b935050604085015167ffffffffffffffff8111156200055757620005566200030a565b5b6200056587828801620004c0565b925050606085015167ffffffffffffffff8111156200058957620005886200030a565b5b6200059787828801620004c0565b91505092959194509250565b600081519050919050565b7f4e487b7100000000000000000000000000000000000000000000000000000000600052602260045260246000fd5b60006002820490506001821680620005f657607f821691505b6020821081036200060c576200060b620005ae565b5b50919050565b60008190508160005260206000209050919050565b60006020601f8301049050919050565b600082821b905092915050565b600060088302620006767fffffffffffffffffffffffffffffffffffffffffffffffffffffffffffffffff8262000637565b62000682868362000637565b95508019841693508086168417925050509392505050565b6000819050919050565b6000819050919050565b6000620006cf620006c9620006c3846200069a565b620006a4565b6200069a565b9050919050565b6000819050919050565b620006eb83620006ae565b62000703620006fa82620006d6565b84845462000644565b825550505050565b600090565b6200071a6200070b565b62000727818484620006e0565b505050565b5b818110156200074f576200074360008262000710565b6001810190506200072d565b5050565b601f8211156200079e57620007688162000612565b620007738462000627565b8101602085101562000783578190505b6200079b620007928562000627565b8301826200072c565b50505b505050565b600082821c905092915050565b6000620007c360001984600802620007a3565b1980831691505092915050565b6000620007de8383620007b0565b9150826002028217905092915050565b620007f982620005a3565b67ffffffffffffffff8111156200081557620008146200038f565b5b620008218254620005dd565b6200082e82828562000753565b600060209050601f83116001811462000866576000841562000851578287015190505b6200085d8582620007d0565b865550620008cd565b601f198416620008768662000612565b60005b82811015620008a05784890151825560018201915060208501945060208101905062000879565b86831015620008c05784890151620008bc601f891682620007b0565b8355505b6001600288020188555050505b505050505050565b600082825260208201905092915050565b7f4f776e61626c653a206e6577206f776e657220697320746865207a65726f206160008201527f6464726573730000000000000000000000000000000000000000000000000000602082015250565b600062000944602683620008d5565b91506200095182620008e6565b604082019050919050565b60006020820190508181036000830152620009778162000935565b9050919050565b7f4f776e61626c653a2063616c6c6572206973206e6f7420746865206f776e6572600082015250565b6000620009b6602083620008d5565b9150620009c3826200097e565b602082019050919050565b60006020820190508181036000830152620009e981620009a7565b9050919050565b6130a08062000a006000396000f3fe608060405234801561001057600080fd5b506004361061012c5760003560e01c806381a4f0db116100ad578063bad31f5f11610071578063bad31f5f14610349578063d212e98014610379578063e38e91f914610397578063e7c9c033146103b3578063f2fde38b146103e35761012c565b806381a4f0db146102a15780638da5cb5b146102bf5780639a08bdcf146102dd578063a4a1e263146102fb578063acb96956146103195761012c565b80631e59c529116100f45780631e59c529146101e95780634985e85c146102195780634bc33e56146102495780636a3cf76814610267578063715018a6146102975761012c565b80630186f8a4146101315780630193911a1461014f5780630224fa311461016b57806306f837d31461019b578063086c4dac146101b9575b600080fd5b6101396103ff565b6040516101469190611c1b565b60405180910390f35b61016960048036038101906101649190611dc6565b610425565b005b61018560048036038101906101809190611f01565b6105d1565b6040516101929190611fb3565b60405180910390f35b6101a3610880565b6040516101b09190611fdd565b60405180910390f35b6101d360048036038101906101ce9190611ff8565b610886565b6040516101e091906120a4565b60405180910390f35b61020360048036038101906101fe91906120c6565b610932565b6040516102109190611fb3565b60405180910390f35b610233600480360381019061022e9190612122565b610ad5565b604051610240919061217a565b60405180910390f35b610251610bc9565b60405161025e91906120a4565b60405180910390f35b610281600480360381019061027c9190612122565b610c57565b60405161028e919061217a565b60405180910390f35b61029f610ca0565b005b6102a9610cb4565b6040516102b691906120a4565b60405180910390f35b6102c7610d42565b6040516102d4919061217a565b60405180910390f35b6102e5610d6b565b6040516102f29190611fdd565b60405180910390f35b610303610d70565b6040516103109190611fdd565b60405180910390f35b610333600480360381019061032e9190612195565b610d7d565b6040516103409190611fb3565b60405180910390f35b610363600480360381019061035e9190612195565b610ef8565b6040516103709190611fb3565b60405180910390f35b61038161110a565b60405161038e9190611fdd565b60405180910390f35b6103b160048036038101906103ac9190611ff8565b61110f565b005b6103cd60048036038101906103c89190611dc6565b611121565b6040516103da9190611fb3565b60405180910390f35b6103fd60048036038101906103f89190612218565b6112fb565b005b600260009054906101000a900473ffffffffffffffffffffffffffffffffffffffff1681565b61042d61137e565b600061043883610ad5565b905081600260009054906101000a900473ffffffffffffffffffffffffffffffffffffffff1673ffffffffffffffffffffffffffffffffffffffff166370a08231306040518263ffffffff1660e01b8152600401610496919061217a565b602060405180830381865afa1580156104b3573d6000803e3d6000fd5b505050506040513d601f19601f820116820180604052508101906104d7919061225a565b1015610518576040517f08c379a000000000000000000000000000000000000000000000000000000000815260040161050f906122d3565b60405180910390fd5b6105658183600260009054906101000a900473ffffffffffffffffffffffffffffffffffffffff1673ffffffffffffffffffffffffffffffffffffffff166113fc9092919063ffffffff16565b8073ffffffffffffffffffffffffffffffffffffffff163073ffffffffffffffffffffffffffffffffffffffff167f481e7d56b32ba5694db6d6e1e8664106f5096f0eed26ca72a9323f9a39c2d0d484426040516105c49291906122f3565b60405180910390a3505050565b60006105db61137e565b6000610612878787876040516020016105f79493929190612385565b60405160208183030381529060405280519060200120611482565b90508673ffffffffffffffffffffffffffffffffffffffff1661063582856114b2565b73ffffffffffffffffffffffffffffffffffffffff161461068b576040517f08c379a00000000000000000000000000000000000000000000000000000000081526004016106829061241f565b60405180910390fd5b8473ffffffffffffffffffffffffffffffffffffffff168673ffffffffffffffffffffffffffffffffffffffff16036107125761070d878786600260009054906101000a900473ffffffffffffffffffffffffffffffffffffffff1673ffffffffffffffffffffffffffffffffffffffff166114c6909392919063ffffffff16565b610809565b600061073b606461072d60508861154f90919063ffffffff16565b61156590919063ffffffff16565b90506000610766606461075860148961154f90919063ffffffff16565b61156590919063ffffffff16565b90506107b7898984600260009054906101000a900473ffffffffffffffffffffffffffffffffffffffff1673ffffffffffffffffffffffffffffffffffffffff166114c6909392919063ffffffff16565b610806898883600260009054906101000a900473ffffffffffffffffffffffffffffffffffffffff1673ffffffffffffffffffffffffffffffffffffffff166114c6909392919063ffffffff16565b50505b8473ffffffffffffffffffffffffffffffffffffffff168773ffffffffffffffffffffffffffffffffffffffff167fa3e11d099a2619bc9f8d86d632d24822044c8e6cc3578aa05dee6045118a6ffa88874260405161086a9392919061243f565b60405180910390a3600191505095945050505050565b60035481565b6006818154811061089657600080fd5b9060005260206000200160009150905080546108b1906124a5565b80601f01602080910402602001604051908101604052809291908181526020018280546108dd906124a5565b801561092a5780601f106108ff5761010080835404028352916020019161092a565b820191906000526020600020905b81548152906001019060200180831161090d57829003601f168201915b505050505081565b600061093c61137e565b600073ffffffffffffffffffffffffffffffffffffffff166001846040516109649190612512565b908152602001604051809103902060009054906101000a900473ffffffffffffffffffffffffffffffffffffffff1673ffffffffffffffffffffffffffffffffffffffff16146109e9576040517f08c379a00000000000000000000000000000000000000000000000000000000081526004016109e090612575565b60405180910390fd5b816001846040516109fa9190612512565b908152602001604051809103902060006101000a81548173ffffffffffffffffffffffffffffffffffffffff021916908373ffffffffffffffffffffffffffffffffffffffff160217905550600683908060018154018082558091505060019003906000526020600020016000909190919091509081610a7a9190612737565b508173ffffffffffffffffffffffffffffffffffffffff167f89b886e508b5806f8c28179176052458c2bd0f54106811773b56be2d51a14e608442604051610ac3929190612809565b60405180910390a26001905092915050565b60008073ffffffffffffffffffffffffffffffffffffffff16600183604051610afe9190612512565b908152602001604051809103902060009054906101000a900473ffffffffffffffffffffffffffffffffffffffff1673ffffffffffffffffffffffffffffffffffffffff1603610b83576040517f08c379a0000000000000000000000000000000000000000000000000000000008152600401610b7a90612885565b60405180910390fd5b600182604051610b939190612512565b908152602001604051809103902060009054906101000a900473ffffffffffffffffffffffffffffffffffffffff169050919050565b60058054610bd6906124a5565b80601f0160208091040260200160405190810160405280929190818152602001828054610c02906124a5565b8015610c4f5780601f10610c2457610100808354040283529160200191610c4f565b820191906000526020600020905b815481529060010190602001808311610c3257829003601f168201915b505050505081565b6001818051602081018201805184825260208301602085012081835280955050505050506000915054906101000a900473ffffffffffffffffffffffffffffffffffffffff1681565b610ca861137e565b610cb2600061157b565b565b60048054610cc1906124a5565b80601f0160208091040260200160405190810160405280929190818152602001828054610ced906124a5565b8015610d3a5780601f10610d0f57610100808354040283529160200191610d3a565b820191906000526020600020905b815481529060010190602001808311610d1d57829003601f168201915b505050505081565b60008060009054906101000a900473ffffffffffffffffffffffffffffffffffffffff16905090565b605081565b6000600680549050905090565b6000610d8761137e565b6000610dbc868686604051602001610da1939291906128a5565b60405160208183030381529060405280519060200120611482565b90508573ffffffffffffffffffffffffffffffffffffffff16610ddf82856114b2565b73ffffffffffffffffffffffffffffffffffffffff1614610e35576040517f08c379a0000000000000000000000000000000000000000000000000000000008152600401610e2c9061241f565b60405180910390fd5b610e84868686600260009054906101000a900473ffffffffffffffffffffffffffffffffffffffff1673ffffffffffffffffffffffffffffffffffffffff166114c6909392919063ffffffff16565b8473ffffffffffffffffffffffffffffffffffffffff168673ffffffffffffffffffffffffffffffffffffffff167f481e7d56b32ba5694db6d6e1e8664106f5096f0eed26ca72a9323f9a39c2d0d48642604051610ee39291906122f3565b60405180910390a36001915050949350505050565b6000610f0261137e565b6000610f37868686604051602001610f1c939291906128a5565b60405160208183030381529060405280519060200120611482565b90508573ffffffffffffffffffffffffffffffffffffffff16610f5a82856114b2565b73ffffffffffffffffffffffffffffffffffffffff1614610fb0576040517f08c379a0000000000000000000000000000000000000000000000000000000008152600401610fa79061241f565b60405180910390fd5b6000600260009054906101000a900473ffffffffffffffffffffffffffffffffffffffff1673ffffffffffffffffffffffffffffffffffffffff16632b9917468888886040518463ffffffff1660e01b8152600401611011939291906128e2565b6020604051808303816000875af1158015611030573d6000803e3d6000fd5b505050506040513d601f19601f820116820180604052508101906110549190612945565b905080611096576040517f08c379a000000000000000000000000000000000000000000000000000000000815260040161108d906129be565b60405180910390fd5b8573ffffffffffffffffffffffffffffffffffffffff168773ffffffffffffffffffffffffffffffffffffffff167faabc2eccec5ca4fab864a7efea6519e0e5d807a8a069ca5b5956a36ddaba5a2f87426040516110f59291906122f3565b60405180910390a38092505050949350505050565b601481565b61111761137e565b8060038190555050565b600061112b61137e565b600061113684610ad5565b90506000670de0b6b3a7640000600354856111519190612a0d565b61115b9190612a0d565b905080600260009054906101000a900473ffffffffffffffffffffffffffffffffffffffff1673ffffffffffffffffffffffffffffffffffffffff166370a08231306040518263ffffffff1660e01b81526004016111b9919061217a565b602060405180830381865afa1580156111d6573d6000803e3d6000fd5b505050506040513d601f19601f820116820180604052508101906111fa919061225a565b101561123b576040517f08c379a0000000000000000000000000000000000000000000000000000000008152600401611232906122d3565b60405180910390fd5b6112888282600260009054906101000a900473ffffffffffffffffffffffffffffffffffffffff1673ffffffffffffffffffffffffffffffffffffffff166113fc9092919063ffffffff16565b8173ffffffffffffffffffffffffffffffffffffffff163073ffffffffffffffffffffffffffffffffffffffff167fb3796f1efbf51f21bedf963e93652b4a3c669fe3c6155c8f0ab5712443f9d21383426040516112e79291906122f3565b60405180910390a360019250505092915050565b61130361137e565b600073ffffffffffffffffffffffffffffffffffffffff168173ffffffffffffffffffffffffffffffffffffffff1603611372576040517f08c379a000000000000000000000000000000000000000000000000000000000815260040161136990612ac1565b60405180910390fd5b61137b8161157b565b50565b61138661163f565b73ffffffffffffffffffffffffffffffffffffffff166113a4610d42565b73ffffffffffffffffffffffffffffffffffffffff16146113fa576040517f08c379a00000000000000000000000000000000000000000000000000000000081526004016113f190612b2d565b60405180910390fd5b565b61147d8363a9059cbb60e01b848460405160240161141b929190612b4d565b604051602081830303815290604052907bffffffffffffffffffffffffffffffffffffffffffffffffffffffff19166020820180517bffffffffffffffffffffffffffffffffffffffffffffffffffffffff8381831617835250505050611647565b505050565b6000816040516020016114959190612bed565b604051602081830303815290604052805190602001209050919050565b60006114be838361170f565b905092915050565b611549846323b872dd60e01b8585856040516024016114e7939291906128e2565b604051602081830303815290604052907bffffffffffffffffffffffffffffffffffffffffffffffffffffffff19166020820180517bffffffffffffffffffffffffffffffffffffffffffffffffffffffff8381831617835250505050611647565b50505050565b6000818361155d9190612a0d565b905092915050565b600081836115739190612c42565b905092915050565b60008060009054906101000a900473ffffffffffffffffffffffffffffffffffffffff169050816000806101000a81548173ffffffffffffffffffffffffffffffffffffffff021916908373ffffffffffffffffffffffffffffffffffffffff1602179055508173ffffffffffffffffffffffffffffffffffffffff168173ffffffffffffffffffffffffffffffffffffffff167f8be0079c531659141344cd1fd0a4f28419497f9722a3daafe3b4186f6b6457e060405160405180910390a35050565b600033905090565b60006116a9826040518060400160405280602081526020017f5361666545524332303a206c6f772d6c6576656c2063616c6c206661696c65648152508573ffffffffffffffffffffffffffffffffffffffff166117369092919063ffffffff16565b90506000815114806116cb5750808060200190518101906116ca9190612945565b5b61170a576040517f08c379a000000000000000000000000000000000000000000000000000000000815260040161170190612ce5565b60405180910390fd5b505050565b600080600061171e858561174e565b9150915061172b8161179f565b819250505092915050565b60606117458484600085611905565b90509392505050565b600080604183510361178f5760008060006020860151925060408601519150606086015160001a9050611783878285856119d2565b94509450505050611798565b60006002915091505b9250929050565b600060048111156117b3576117b2612d05565b5b8160048111156117c6576117c5612d05565b5b031561190257600160048111156117e0576117df612d05565b5b8160048111156117f3576117f2612d05565b5b03611833576040517f08c379a000000000000000000000000000000000000000000000000000000000815260040161182a90612d80565b60405180910390fd5b6002600481111561184757611846612d05565b5b81600481111561185a57611859612d05565b5b0361189a576040517f08c379a000000000000000000000000000000000000000000000000000000000815260040161189190612dec565b60405180910390fd5b600360048111156118ae576118ad612d05565b5b8160048111156118c1576118c0612d05565b5b03611901576040517f08c379a00000000000000000000000000000000000000000000000000000000081526004016118f890612e7e565b60405180910390fd5b5b50565b60608247101561194a576040517f08c379a000000000000000000000000000000000000000000000000000000000815260040161194190612f10565b60405180910390fd5b6000808673ffffffffffffffffffffffffffffffffffffffff1685876040516119739190612f77565b60006040518083038185875af1925050503d80600081146119b0576040519150601f19603f3d011682016040523d82523d6000602084013e6119b5565b606091505b50915091506119c687838387611ab4565b92505050949350505050565b6000807f7fffffffffffffffffffffffffffffff5d576e7357a4501ddfe92f46681b20a08360001c1115611a0d576000600391509150611aab565b600060018787878760405160008152602001604052604051611a329493929190612fb9565b6020604051602081039080840390855afa158015611a54573d6000803e3d6000fd5b505050602060405103519050600073ffffffffffffffffffffffffffffffffffffffff168173ffffffffffffffffffffffffffffffffffffffff1603611aa257600060019250925050611aab565b80600092509250505b94509492505050565b60608315611b16576000835103611b0e57611ace85611b29565b611b0d576040517f08c379a0000000000000000000000000000000000000000000000000000000008152600401611b049061304a565b60405180910390fd5b5b829050611b21565b611b208383611b4c565b5b949350505050565b6000808273ffffffffffffffffffffffffffffffffffffffff163b119050919050565b600082511115611b5f5781518083602001fd5b806040517f08c379a0000000000000000000000000000000000000000000000000000000008152600401611b9391906120a4565b60405180910390fd5b600073ffffffffffffffffffffffffffffffffffffffff82169050919050565b6000819050919050565b6000611be1611bdc611bd784611b9c565b611bbc565b611b9c565b9050919050565b6000611bf382611bc6565b9050919050565b6000611c0582611be8565b9050919050565b611c1581611bfa565b82525050565b6000602082019050611c306000830184611c0c565b92915050565b6000604051905090565b600080fd5b600080fd5b600080fd5b600080fd5b6000601f19601f8301169050919050565b7f4e487b7100000000000000000000000000000000000000000000000000000000600052604160045260246000fd5b611c9d82611c54565b810181811067ffffffffffffffff82111715611cbc57611cbb611c65565b5b80604052505050565b6000611ccf611c36565b9050611cdb8282611c94565b919050565b600067ffffffffffffffff821115611cfb57611cfa611c65565b5b611d0482611c54565b9050602081019050919050565b82818337600083830152505050565b6000611d33611d2e84611ce0565b611cc5565b905082815260208101848484011115611d4f57611d4e611c4f565b5b611d5a848285611d11565b509392505050565b600082601f830112611d7757611d76611c4a565b5b8135611d87848260208601611d20565b91505092915050565b6000819050919050565b611da381611d90565b8114611dae57600080fd5b50565b600081359050611dc081611d9a565b92915050565b60008060408385031215611ddd57611ddc611c40565b5b600083013567ffffffffffffffff811115611dfb57611dfa611c45565b5b611e0785828601611d62565b9250506020611e1885828601611db1565b9150509250929050565b6000611e2d82611b9c565b9050919050565b611e3d81611e22565b8114611e4857600080fd5b50565b600081359050611e5a81611e34565b92915050565b600067ffffffffffffffff821115611e7b57611e7a611c65565b5b611e8482611c54565b9050602081019050919050565b6000611ea4611e9f84611e60565b611cc5565b905082815260208101848484011115611ec057611ebf611c4f565b5b611ecb848285611d11565b509392505050565b600082601f830112611ee857611ee7611c4a565b5b8135611ef8848260208601611e91565b91505092915050565b600080600080600060a08688031215611f1d57611f1c611c40565b5b6000611f2b88828901611e4b565b9550506020611f3c88828901611e4b565b9450506040611f4d88828901611e4b565b9350506060611f5e88828901611db1565b925050608086013567ffffffffffffffff811115611f7f57611f7e611c45565b5b611f8b88828901611ed3565b9150509295509295909350565b60008115159050919050565b611fad81611f98565b82525050565b6000602082019050611fc86000830184611fa4565b92915050565b611fd781611d90565b82525050565b6000602082019050611ff26000830184611fce565b92915050565b60006020828403121561200e5761200d611c40565b5b600061201c84828501611db1565b91505092915050565b600081519050919050565b600082825260208201905092915050565b60005b8381101561205f578082015181840152602081019050612044565b60008484015250505050565b600061207682612025565b6120808185612030565b9350612090818560208601612041565b61209981611c54565b840191505092915050565b600060208201905081810360008301526120be818461206b565b905092915050565b600080604083850312156120dd576120dc611c40565b5b600083013567ffffffffffffffff8111156120fb576120fa611c45565b5b61210785828601611d62565b925050602061211885828601611e4b565b9150509250929050565b60006020828403121561213857612137611c40565b5b600082013567ffffffffffffffff81111561215657612155611c45565b5b61216284828501611d62565b91505092915050565b61217481611e22565b82525050565b600060208201905061218f600083018461216b565b92915050565b600080600080608085870312156121af576121ae611c40565b5b60006121bd87828801611e4b565b94505060206121ce87828801611e4b565b93505060406121df87828801611db1565b925050606085013567ffffffffffffffff811115612200576121ff611c45565b5b61220c87828801611ed3565b91505092959194509250565b60006020828403121561222e5761222d611c40565b5b600061223c84828501611e4b565b91505092915050565b60008151905061225481611d9a565b92915050565b6000602082840312156122705761226f611c40565b5b600061227e84828501612245565b91505092915050565b7f4e54000000000000000000000000000000000000000000000000000000000000600082015250565b60006122bd600283612030565b91506122c882612287565b602082019050919050565b600060208201905081810360008301526122ec816122b0565b9050919050565b60006040820190506123086000830185611fce565b6123156020830184611fce565b9392505050565b60008160601b9050919050565b60006123348261231c565b9050919050565b600061234682612329565b9050919050565b61235e61235982611e22565b61233b565b82525050565b6000819050919050565b61237f61237a82611d90565b612364565b82525050565b6000612391828761234d565b6014820191506123a1828661234d565b6014820191506123b1828561234d565b6014820191506123c1828461236e565b60208201915081905095945050505050565b7f4953000000000000000000000000000000000000000000000000000000000000600082015250565b6000612409600283612030565b9150612414826123d3565b602082019050919050565b60006020820190508181036000830152612438816123fc565b9050919050565b6000606082019050612454600083018661216b565b6124616020830185611fce565b61246e6040830184611fce565b949350505050565b7f4e487b7100000000000000000000000000000000000000000000000000000000600052602260045260246000fd5b600060028204905060018216806124bd57607f821691505b6020821081036124d0576124cf612476565b5b50919050565b600081905092915050565b60006124ec82612025565b6124f681856124d6565b9350612506818560208601612041565b80840191505092915050565b600061251e82846124e1565b915081905092915050565b7f4c49444600000000000000000000000000000000000000000000000000000000600082015250565b600061255f600483612030565b915061256a82612529565b602082019050919050565b6000602082019050818103600083015261258e81612552565b9050919050565b60008190508160005260206000209050919050565b60006020601f8301049050919050565b600082821b905092915050565b6000600883026125f77fffffffffffffffffffffffffffffffffffffffffffffffffffffffffffffffff826125ba565b61260186836125ba565b95508019841693508086168417925050509392505050565b600061263461262f61262a84611d90565b611bbc565b611d90565b9050919050565b6000819050919050565b61264e83612619565b61266261265a8261263b565b8484546125c7565b825550505050565b600090565b61267761266a565b612682818484612645565b505050565b5b818110156126a65761269b60008261266f565b600181019050612688565b5050565b601f8211156126eb576126bc81612595565b6126c5846125aa565b810160208510156126d4578190505b6126e86126e0856125aa565b830182612687565b50505b505050565b600082821c905092915050565b600061270e600019846008026126f0565b1980831691505092915050565b600061272783836126fd565b9150826002028217905092915050565b61274082612025565b67ffffffffffffffff81111561275957612758611c65565b5b61276382546124a5565b61276e8282856126aa565b600060209050601f8311600181146127a1576000841561278f578287015190505b612799858261271b565b865550612801565b601f1984166127af86612595565b60005b828110156127d7578489015182556001820191506020850194506020810190506127b2565b868310156127f457848901516127f0601f8916826126fd565b8355505b6001600288020188555050505b505050505050565b60006040820190508181036000830152612823818561206b565b90506128326020830184611fce565b9392505050565b7f4c49444e46000000000000000000000000000000000000000000000000000000600082015250565b600061286f600583612030565b915061287a82612839565b602082019050919050565b6000602082019050818103600083015261289e81612862565b9050919050565b60006128b1828661234d565b6014820191506128c1828561234d565b6014820191506128d1828461236e565b602082019150819050949350505050565b60006060820190506128f7600083018661216b565b612904602083018561216b565b6129116040830184611fce565b949350505050565b61292281611f98565b811461292d57600080fd5b50565b60008151905061293f81612919565b92915050565b60006020828403121561295b5761295a611c40565b5b600061296984828501612930565b91505092915050565b7f4146000000000000000000000000000000000000000000000000000000000000600082015250565b60006129a8600283612030565b91506129b382612972565b602082019050919050565b600060208201905081810360008301526129d78161299b565b9050919050565b7f4e487b7100000000000000000000000000000000000000000000000000000000600052601160045260246000fd5b6000612a1882611d90565b9150612a2383611d90565b9250828202612a3181611d90565b91508282048414831517612a4857612a476129de565b5b5092915050565b7f4f776e61626c653a206e6577206f776e657220697320746865207a65726f206160008201527f6464726573730000000000000000000000000000000000000000000000000000602082015250565b6000612aab602683612030565b9150612ab682612a4f565b604082019050919050565b60006020820190508181036000830152612ada81612a9e565b9050919050565b7f4f776e61626c653a2063616c6c6572206973206e6f7420746865206f776e6572600082015250565b6000612b17602083612030565b9150612b2282612ae1565b602082019050919050565b60006020820190508181036000830152612b4681612b0a565b9050919050565b6000604082019050612b62600083018561216b565b612b6f6020830184611fce565b9392505050565b7f19457468657265756d205369676e6564204d6573736167653a0a333200000000600082015250565b6000612bac601c836124d6565b9150612bb782612b76565b601c82019050919050565b6000819050919050565b6000819050919050565b612be7612be282612bc2565b612bcc565b82525050565b6000612bf882612b9f565b9150612c048284612bd6565b60208201915081905092915050565b7f4e487b7100000000000000000000000000000000000000000000000000000000600052601260045260246000fd5b6000612c4d82611d90565b9150612c5883611d90565b925082612c6857612c67612c13565b5b828204905092915050565b7f5361666545524332303a204552433230206f7065726174696f6e20646964206e60008201527f6f74207375636365656400000000000000000000000000000000000000000000602082015250565b6000612ccf602a83612030565b9150612cda82612c73565b604082019050919050565b60006020820190508181036000830152612cfe81612cc2565b9050919050565b7f4e487b7100000000000000000000000000000000000000000000000000000000600052602160045260246000fd5b7f45434453413a20696e76616c6964207369676e61747572650000000000000000600082015250565b6000612d6a601883612030565b9150612d7582612d34565b602082019050919050565b60006020820190508181036000830152612d9981612d5d565b9050919050565b7f45434453413a20696e76616c6964207369676e6174757265206c656e67746800600082015250565b6000612dd6601f83612030565b9150612de182612da0565b602082019050919050565b60006020820190508181036000830152612e0581612dc9565b9050919050565b7f45434453413a20696e76616c6964207369676e6174757265202773272076616c60008201527f7565000000000000000000000000000000000000000000000000000000000000602082015250565b6000612e68602283612030565b9150612e7382612e0c565b604082019050919050565b60006020820190508181036000830152612e9781612e5b565b9050919050565b7f416464726573733a20696e73756666696369656e742062616c616e636520666f60008201527f722063616c6c0000000000000000000000000000000000000000000000000000602082015250565b6000612efa602683612030565b9150612f0582612e9e565b604082019050919050565b60006020820190508181036000830152612f2981612eed565b9050919050565b600081519050919050565b600081905092915050565b6000612f5182612f30565b612f5b8185612f3b565b9350612f6b818560208601612041565b80840191505092915050565b6000612f838284612f46565b915081905092915050565b612f9781612bc2565b82525050565b600060ff82169050919050565b612fb381612f9d565b82525050565b6000608082019050612fce6000830187612f8e565b612fdb6020830186612faa565b612fe86040830185612f8e565b612ff56060830184612f8e565b95945050505050565b7f416464726573733a2063616c6c20746f206e6f6e2d636f6e7472616374000000600082015250565b6000613034601d83612030565b915061303f82612ffe565b602082019050919050565b6000602082019050818103600083015261306381613027565b905091905056fea264697066735822122003426b21756d0a92d4b97df607fc8e428fee01b068c8248a9dca76d06a26206364736f6c63430008140033",
  "linkReferences": {},
  "deployedLinkReferences": {}
}