{
    "_format": "hh-sol-artifact-1",
    "contractName": "LoyaltyProgram",
    "sourceName": "contracts/LoyaltyProgram.sol",
    "abi": [
        {
            "inputs": [
                {
                    "internalType": "address",
                    "name": "_omniTokenAddress",
                    "type": "address"
                },
                {
                    "internalType": "address",
                    "name": "_owner",
                    "type": "address"
                },
                {
                    "internalType": "string",
                    "name": "_commerceName",
                    "type": "string"
                },
                {
                    "internalType": "string",
                    "name": "_commercePrefix",
                    "type": "string"
                }
            ],
            "stateMutability": "nonpayable",
            "type": "constructor"
        },
        {
            "anonymous": false,
            "inputs": [
                {
                    "indexed": true,
                    "internalType": "address",
                    "name": "owner",
                    "type": "address"
                },
                {
                    "indexed": true,
                    "internalType": "address",
                    "name": "spender",
                    "type": "address"
                },
                {
                    "indexed": false,
                    "internalType": "uint256",
                    "name": "value",
                    "type": "uint256"
                },
                {
                    "indexed": false,
                    "internalType": "uint256",
                    "name": "timestamp",
                    "type": "uint256"
                }
            ],
            "name": "GaslessApproval",
            "type": "event"
        },
        {
            "anonymous": false,
            "inputs": [
                {
                    "indexed": true,
                    "internalType": "address",
                    "name": "previousOwner",
                    "type": "address"
                },
                {
                    "indexed": true,
                    "internalType": "address",
                    "name": "newOwner",
                    "type": "address"
                }
            ],
            "name": "OwnershipTransferred",
            "type": "event"
        },
        {
            "anonymous": false,
            "inputs": [
                {
                    "indexed": true,
                    "internalType": "address",
                    "name": "user",
                    "type": "address"
                },
                {
                    "indexed": false,
                    "internalType": "string",
                    "name": "loyal_ID",
                    "type": "string"
                }
            ],
            "name": "Registered",
            "type": "event"
        },
        {
            "anonymous": false,
            "inputs": [
                {
                    "indexed": true,
                    "internalType": "address",
                    "name": "to",
                    "type": "address"
                },
                {
                    "indexed": false,
                    "internalType": "uint256",
                    "name": "amount",
                    "type": "uint256"
                }
            ],
            "name": "RewardsSent",
            "type": "event"
        },
        {
            "anonymous": false,
            "inputs": [
                {
                    "indexed": false,
                    "internalType": "uint256",
                    "name": "newRatio",
                    "type": "uint256"
                }
            ],
            "name": "TokenRatioUpdated",
            "type": "event"
        },
        {
            "anonymous": false,
            "inputs": [
                {
                    "indexed": true,
                    "internalType": "address",
                    "name": "from",
                    "type": "address"
                },
                {
                    "indexed": true,
                    "internalType": "address",
                    "name": "to",
                    "type": "address"
                },
                {
                    "indexed": false,
                    "internalType": "uint256",
                    "name": "amount",
                    "type": "uint256"
                },
                {
                    "indexed": false,
                    "internalType": "uint256",
                    "name": "timestamp",
                    "type": "uint256"
                }
            ],
            "name": "UserTokenTransfer",
            "type": "event"
        },
        {
            "inputs": [],
            "name": "adminTransferTokensToUser",
            "outputs": [],
            "stateMutability": "nonpayable",
            "type": "function"
        },
        {
            "inputs": [],
            "name": "commerceName",
            "outputs": [
                {
                    "internalType": "string",
                    "name": "",
                    "type": "string"
                }
            ],
            "stateMutability": "view",
            "type": "function"
        },
        {
            "inputs": [],
            "name": "commercePrefix",
            "outputs": [
                {
                    "internalType": "string",
                    "name": "",
                    "type": "string"
                }
            ],
            "stateMutability": "view",
            "type": "function"
        },
        {
            "inputs": [
                {
                    "internalType": "address",
                    "name": "_owner",
                    "type": "address"
                },
                {
                    "internalType": "address",
                    "name": "_spender",
                    "type": "address"
                },
                {
                    "internalType": "uint256",
                    "name": "_value",
                    "type": "uint256"
                },
                {
                    "internalType": "bytes",
                    "name": "_signature",
                    "type": "bytes"
                }
            ],
            "name": "gaslessApprove",
            "outputs": [
                {
                    "internalType": "bool",
                    "name": "",
                    "type": "bool"
                }
            ],
            "stateMutability": "nonpayable",
            "type": "function"
        },
        {
            "inputs": [
                {
                    "internalType": "string",
                    "name": "_loyalId",
                    "type": "string"
                }
            ],
            "name": "getUserAddress",
            "outputs": [
                {
                    "internalType": "address",
                    "name": "",
                    "type": "address"
                }
            ],
            "stateMutability": "view",
            "type": "function"
        },
        {
            "inputs": [],
            "name": "getUsersCount",
            "outputs": [
                {
                    "internalType": "uint256",
                    "name": "",
                    "type": "uint256"
                }
            ],
            "stateMutability": "view",
            "type": "function"
        },
        {
            "inputs": [
                {
                    "internalType": "string",
                    "name": "",
                    "type": "string"
                }
            ],
            "name": "loyalIdToUser",
            "outputs": [
                {
                    "internalType": "address",
                    "name": "",
                    "type": "address"
                }
            ],
            "stateMutability": "view",
            "type": "function"
        },
        {
            "inputs": [],
            "name": "omniToken",
            "outputs": [
                {
                    "internalType": "contract OmniToken",
                    "name": "",
                    "type": "address"
                }
            ],
            "stateMutability": "view",
            "type": "function"
        },
        {
            "inputs": [],
            "name": "owner",
            "outputs": [
                {
                    "internalType": "address",
                    "name": "",
                    "type": "address"
                }
            ],
            "stateMutability": "view",
            "type": "function"
        },
        {
            "inputs": [
                {
                    "internalType": "string",
                    "name": "_loyalId",
                    "type": "string"
                },
                {
                    "internalType": "address",
                    "name": "_userAddress",
                    "type": "address"
                }
            ],
            "name": "register",
            "outputs": [
                {
                    "internalType": "bool",
                    "name": "",
                    "type": "bool"
                }
            ],
            "stateMutability": "nonpayable",
            "type": "function"
        },
        {
            "inputs": [],
            "name": "renounceOwnership",
            "outputs": [],
            "stateMutability": "nonpayable",
            "type": "function"
        },
        {
            "inputs": [
                {
                    "internalType": "string",
                    "name": "_loyalId",
                    "type": "string"
                },
                {
                    "internalType": "uint256",
                    "name": "_purchaseValue",
                    "type": "uint256"
                }
            ],
            "name": "sendRewards",
            "outputs": [
                {
                    "internalType": "bool",
                    "name": "",
                    "type": "bool"
                }
            ],
            "stateMutability": "nonpayable",
            "type": "function"
        },
        {
            "inputs": [
                {
                    "internalType": "uint256",
                    "name": "_newRatio",
                    "type": "uint256"
                }
            ],
            "name": "setTokenRatio",
            "outputs": [],
            "stateMutability": "nonpayable",
            "type": "function"
        },
        {
            "inputs": [],
            "name": "tokenRatio",
            "outputs": [
                {
                    "internalType": "uint256",
                    "name": "",
                    "type": "uint256"
                }
            ],
            "stateMutability": "view",
            "type": "function"
        },
        {
            "inputs": [
                {
                    "internalType": "address",
                    "name": "newOwner",
                    "type": "address"
                }
            ],
            "name": "transferOwnership",
            "outputs": [],
            "stateMutability": "nonpayable",
            "type": "function"
        },
        {
            "inputs": [
                {
                    "internalType": "address",
                    "name": "_from",
                    "type": "address"
                },
                {
                    "internalType": "address",
                    "name": "_to",
                    "type": "address"
                },
                {
                    "internalType": "uint256",
                    "name": "_amount",
                    "type": "uint256"
                },
                {
                    "internalType": "bytes",
                    "name": "_signature",
                    "type": "bytes"
                }
            ],
            "name": "userTransferTokensToUser",
            "outputs": [
                {
                    "internalType": "bool",
                    "name": "",
                    "type": "bool"
                }
            ],
            "stateMutability": "nonpayable",
            "type": "function"
        },
        {
            "inputs": [
                {
                    "internalType": "uint256",
                    "name": "",
                    "type": "uint256"
                }
            ],
            "name": "usersLoyaltyIds",
            "outputs": [
                {
                    "internalType": "string",
                    "name": "",
                    "type": "string"
                }
            ],
            "stateMutability": "view",
            "type": "function"
        }
    ],
    "bytecode": "0x60806040523480156200001157600080fd5b506040516200338e3803806200338e8339818101604052810190620000379190620004eb565b620000576200004b620000d760201b60201c565b620000df60201b60201c565b83600260006101000a81548173ffffffffffffffffffffffffffffffffffffffff021916908373ffffffffffffffffffffffffffffffffffffffff1602179055508160049081620000a99190620007e6565b508060059081620000bb9190620007e6565b50620000cd83620001a360201b60201c565b50505050620009e8565b600033905090565b60008060009054906101000a900473ffffffffffffffffffffffffffffffffffffffff169050816000806101000a81548173ffffffffffffffffffffffffffffffffffffffff021916908373ffffffffffffffffffffffffffffffffffffffff1602179055508173ffffffffffffffffffffffffffffffffffffffff168173ffffffffffffffffffffffffffffffffffffffff167f8be0079c531659141344cd1fd0a4f28419497f9722a3daafe3b4186f6b6457e060405160405180910390a35050565b620001b36200023960201b60201c565b600073ffffffffffffffffffffffffffffffffffffffff168173ffffffffffffffffffffffffffffffffffffffff160362000225576040517f08c379a00000000000000000000000000000000000000000000000000000000081526004016200021c9062000954565b60405180910390fd5b6200023681620000df60201b60201c565b50565b62000249620000d760201b60201c565b73ffffffffffffffffffffffffffffffffffffffff166200026f620002ca60201b60201c565b73ffffffffffffffffffffffffffffffffffffffff1614620002c8576040517f08c379a0000000000000000000000000000000000000000000000000000000008152600401620002bf90620009c6565b60405180910390fd5b565b60008060009054906101000a900473ffffffffffffffffffffffffffffffffffffffff16905090565b6000604051905090565b600080fd5b600080fd5b600073ffffffffffffffffffffffffffffffffffffffff82169050919050565b6000620003348262000307565b9050919050565b620003468162000327565b81146200035257600080fd5b50565b60008151905062000366816200033b565b92915050565b600080fd5b600080fd5b6000601f19601f8301169050919050565b7f4e487b7100000000000000000000000000000000000000000000000000000000600052604160045260246000fd5b620003c18262000376565b810181811067ffffffffffffffff82111715620003e357620003e262000387565b5b80604052505050565b6000620003f8620002f3565b9050620004068282620003b6565b919050565b600067ffffffffffffffff82111562000429576200042862000387565b5b620004348262000376565b9050602081019050919050565b60005b838110156200046157808201518184015260208101905062000444565b60008484015250505050565b6000620004846200047e846200040b565b620003ec565b905082815260208101848484011115620004a357620004a262000371565b5b620004b084828562000441565b509392505050565b600082601f830112620004d057620004cf6200036c565b5b8151620004e28482602086016200046d565b91505092915050565b60008060008060808587031215620005085762000507620002fd565b5b6000620005188782880162000355565b94505060206200052b8782880162000355565b935050604085015167ffffffffffffffff8111156200054f576200054e62000302565b5b6200055d87828801620004b8565b925050606085015167ffffffffffffffff81111562000581576200058062000302565b5b6200058f87828801620004b8565b91505092959194509250565b600081519050919050565b7f4e487b7100000000000000000000000000000000000000000000000000000000600052602260045260246000fd5b60006002820490506001821680620005ee57607f821691505b602082108103620006045762000603620005a6565b5b50919050565b60008190508160005260206000209050919050565b60006020601f8301049050919050565b600082821b905092915050565b6000600883026200066e7fffffffffffffffffffffffffffffffffffffffffffffffffffffffffffffffff826200062f565b6200067a86836200062f565b95508019841693508086168417925050509392505050565b6000819050919050565b6000819050919050565b6000620006c7620006c1620006bb8462000692565b6200069c565b62000692565b9050919050565b6000819050919050565b620006e383620006a6565b620006fb620006f282620006ce565b8484546200063c565b825550505050565b600090565b6200071262000703565b6200071f818484620006d8565b505050565b5b8181101562000747576200073b60008262000708565b60018101905062000725565b5050565b601f821115620007965762000760816200060a565b6200076b846200061f565b810160208510156200077b578190505b620007936200078a856200061f565b83018262000724565b50505b505050565b600082821c905092915050565b6000620007bb600019846008026200079b565b1980831691505092915050565b6000620007d68383620007a8565b9150826002028217905092915050565b620007f1826200059b565b67ffffffffffffffff8111156200080d576200080c62000387565b5b620008198254620005d5565b620008268282856200074b565b600060209050601f8311600181146200085e576000841562000849578287015190505b620008558582620007c8565b865550620008c5565b601f1984166200086e866200060a565b60005b82811015620008985784890151825560018201915060208501945060208101905062000871565b86831015620008b85784890151620008b4601f891682620007a8565b8355505b6001600288020188555050505b505050505050565b600082825260208201905092915050565b7f4f776e61626c653a206e6577206f776e657220697320746865207a65726f206160008201527f6464726573730000000000000000000000000000000000000000000000000000602082015250565b60006200093c602683620008cd565b91506200094982620008de565b604082019050919050565b600060208201905081810360008301526200096f816200092d565b9050919050565b7f4f776e61626c653a2063616c6c6572206973206e6f7420746865206f776e6572600082015250565b6000620009ae602083620008cd565b9150620009bb8262000976565b602082019050919050565b60006020820190508181036000830152620009e1816200099f565b9050919050565b61299680620009f86000396000f3fe608060405234801561001057600080fd5b506004361061010b5760003560e01c806381a4f0db116100a2578063acb9695611610071578063acb9695614610298578063bad31f5f146102c8578063e38e91f9146102f8578063e7c9c03314610314578063f2fde38b146103445761010b565b806381a4f0db146102345780638da5cb5b1461025257806393f32fbe14610270578063a4a1e2631461027a5761010b565b80634985e85c116100de5780634985e85c146101ac5780634bc33e56146101dc5780636a3cf768146101fa578063715018a61461022a5761010b565b80630186f8a41461011057806306f837d31461012e578063086c4dac1461014c5780631e59c5291461017c575b600080fd5b610118610360565b6040516101259190611697565b60405180910390f35b610136610386565b60405161014391906116cb565b60405180910390f35b61016660048036038101906101619190611726565b61038c565b60405161017391906117e3565b60405180910390f35b61019660048036038101906101919190611978565b610438565b6040516101a391906119ef565b60405180910390f35b6101c660048036038101906101c19190611a0a565b6105d9565b6040516101d39190611a62565b60405180910390f35b6101e46106cd565b6040516101f191906117e3565b60405180910390f35b610214600480360381019061020f9190611a0a565b61075b565b6040516102219190611a62565b60405180910390f35b6102326107a4565b005b61023c6107b8565b60405161024991906117e3565b60405180910390f35b61025a610846565b6040516102679190611a62565b60405180910390f35b61027861086f565b005b610282610879565b60405161028f91906116cb565b60405180910390f35b6102b260048036038101906102ad9190611b1e565b610886565b6040516102bf91906119ef565b60405180910390f35b6102e260048036038101906102dd9190611b1e565b610a01565b6040516102ef91906119ef565b60405180910390f35b610312600480360381019061030d9190611726565b610bac565b005b61032e60048036038101906103299190611ba1565b610bf5565b60405161033b91906119ef565b60405180910390f35b61035e60048036038101906103599190611bfd565b610da3565b005b600260009054906101000a900473ffffffffffffffffffffffffffffffffffffffff1681565b60035481565b6006818154811061039c57600080fd5b9060005260206000200160009150905080546103b790611c59565b80601f01602080910402602001604051908101604052809291908181526020018280546103e390611c59565b80156104305780601f1061040557610100808354040283529160200191610430565b820191906000526020600020905b81548152906001019060200180831161041357829003601f168201915b505050505081565b6000610442610e26565b600073ffffffffffffffffffffffffffffffffffffffff1660018460405161046a9190611cc6565b908152602001604051809103902060009054906101000a900473ffffffffffffffffffffffffffffffffffffffff1673ffffffffffffffffffffffffffffffffffffffff16146104ef576040517f08c379a00000000000000000000000000000000000000000000000000000000081526004016104e690611d29565b60405180910390fd5b816001846040516105009190611cc6565b908152602001604051809103902060006101000a81548173ffffffffffffffffffffffffffffffffffffffff021916908373ffffffffffffffffffffffffffffffffffffffff1602179055506006839080600181540180825580915050600190039060005260206000200160009091909190915090816105809190611eeb565b508173ffffffffffffffffffffffffffffffffffffffff167fb3eccf73f39b1c07947c780b2b39df2a1bb058b4037b0a42d0881ca1a028a132846040516105c791906117e3565b60405180910390a26001905092915050565b60008073ffffffffffffffffffffffffffffffffffffffff166001836040516106029190611cc6565b908152602001604051809103902060009054906101000a900473ffffffffffffffffffffffffffffffffffffffff1673ffffffffffffffffffffffffffffffffffffffff1603610687576040517f08c379a000000000000000000000000000000000000000000000000000000000815260040161067e90612009565b60405180910390fd5b6001826040516106979190611cc6565b908152602001604051809103902060009054906101000a900473ffffffffffffffffffffffffffffffffffffffff169050919050565b600580546106da90611c59565b80601f016020809104026020016040519081016040528092919081815260200182805461070690611c59565b80156107535780601f1061072857610100808354040283529160200191610753565b820191906000526020600020905b81548152906001019060200180831161073657829003601f168201915b505050505081565b6001818051602081018201805184825260208301602085012081835280955050505050506000915054906101000a900473ffffffffffffffffffffffffffffffffffffffff1681565b6107ac610e26565b6107b66000610ea4565b565b600480546107c590611c59565b80601f01602080910402602001604051908101604052809291908181526020018280546107f190611c59565b801561083e5780601f106108135761010080835404028352916020019161083e565b820191906000526020600020905b81548152906001019060200180831161082157829003601f168201915b505050505081565b60008060009054906101000a900473ffffffffffffffffffffffffffffffffffffffff16905090565b610877610e26565b565b6000600680549050905090565b6000610890610e26565b60006108c58686866040516020016108aa93929190612092565b60405160208183030381529060405280519060200120610f68565b90508573ffffffffffffffffffffffffffffffffffffffff166108e88285610f98565b73ffffffffffffffffffffffffffffffffffffffff161461093e576040517f08c379a00000000000000000000000000000000000000000000000000000000081526004016109359061211b565b60405180910390fd5b61098d868686600260009054906101000a900473ffffffffffffffffffffffffffffffffffffffff1673ffffffffffffffffffffffffffffffffffffffff16610fac909392919063ffffffff16565b8473ffffffffffffffffffffffffffffffffffffffff168673ffffffffffffffffffffffffffffffffffffffff167f481e7d56b32ba5694db6d6e1e8664106f5096f0eed26ca72a9323f9a39c2d0d486426040516109ec92919061213b565b60405180910390a36001915050949350505050565b6000610a0b610e26565b6000610a40868686604051602001610a2593929190612092565b60405160208183030381529060405280519060200120610f68565b90508573ffffffffffffffffffffffffffffffffffffffff16610a638285610f98565b73ffffffffffffffffffffffffffffffffffffffff1614610ab9576040517f08c379a0000000000000000000000000000000000000000000000000000000008152600401610ab09061211b565b60405180910390fd5b6000600260009054906101000a900473ffffffffffffffffffffffffffffffffffffffff1673ffffffffffffffffffffffffffffffffffffffff16632b9917468888886040518463ffffffff1660e01b8152600401610b1a93929190612164565b6020604051808303816000875af1158015610b39573d6000803e3d6000fd5b505050506040513d601f19601f82011682018060405250810190610b5d91906121c7565b905080610b9f576040517f08c379a0000000000000000000000000000000000000000000000000000000008152600401610b9690612240565b60405180910390fd5b8092505050949350505050565b610bb4610e26565b806003819055507fa6fcf4ef5694b64c318882d1f2c29c6012dc1bd85ac0004bef4616b6e6b048bc81604051610bea91906116cb565b60405180910390a150565b6000610bff610e26565b6000610c0a846105d9565b9050600060035484610c1c919061228f565b905080600260009054906101000a900473ffffffffffffffffffffffffffffffffffffffff1673ffffffffffffffffffffffffffffffffffffffff166370a08231306040518263ffffffff1660e01b8152600401610c7a9190611a62565b602060405180830381865afa158015610c97573d6000803e3d6000fd5b505050506040513d601f19601f82011682018060405250810190610cbb91906122e6565b1015610cfc576040517f08c379a0000000000000000000000000000000000000000000000000000000008152600401610cf390612385565b60405180910390fd5b610d498282600260009054906101000a900473ffffffffffffffffffffffffffffffffffffffff1673ffffffffffffffffffffffffffffffffffffffff166110359092919063ffffffff16565b8173ffffffffffffffffffffffffffffffffffffffff167f2cdd0b9dc1e55aa7be2d768970ec6e398da88b8e440c2798c748247ab578ddd782604051610d8f91906116cb565b60405180910390a260019250505092915050565b610dab610e26565b600073ffffffffffffffffffffffffffffffffffffffff168173ffffffffffffffffffffffffffffffffffffffff1603610e1a576040517f08c379a0000000000000000000000000000000000000000000000000000000008152600401610e1190612417565b60405180910390fd5b610e2381610ea4565b50565b610e2e6110bb565b73ffffffffffffffffffffffffffffffffffffffff16610e4c610846565b73ffffffffffffffffffffffffffffffffffffffff1614610ea2576040517f08c379a0000000000000000000000000000000000000000000000000000000008152600401610e9990612483565b60405180910390fd5b565b60008060009054906101000a900473ffffffffffffffffffffffffffffffffffffffff169050816000806101000a81548173ffffffffffffffffffffffffffffffffffffffff021916908373ffffffffffffffffffffffffffffffffffffffff1602179055508173ffffffffffffffffffffffffffffffffffffffff168173ffffffffffffffffffffffffffffffffffffffff167f8be0079c531659141344cd1fd0a4f28419497f9722a3daafe3b4186f6b6457e060405160405180910390a35050565b600081604051602001610f7b919061251a565b604051602081830303815290604052805190602001209050919050565b6000610fa483836110c3565b905092915050565b61102f846323b872dd60e01b858585604051602401610fcd93929190612164565b604051602081830303815290604052907bffffffffffffffffffffffffffffffffffffffffffffffffffffffff19166020820180517bffffffffffffffffffffffffffffffffffffffffffffffffffffffff83818316178352505050506110ea565b50505050565b6110b68363a9059cbb60e01b8484604051602401611054929190612540565b604051602081830303815290604052907bffffffffffffffffffffffffffffffffffffffffffffffffffffffff19166020820180517bffffffffffffffffffffffffffffffffffffffffffffffffffffffff83818316178352505050506110ea565b505050565b600033905090565b60008060006110d285856111b2565b915091506110df81611203565b819250505092915050565b600061114c826040518060400160405280602081526020017f5361666545524332303a206c6f772d6c6576656c2063616c6c206661696c65648152508573ffffffffffffffffffffffffffffffffffffffff166113699092919063ffffffff16565b905060008151148061116e57508080602001905181019061116d91906121c7565b5b6111ad576040517f08c379a00000000000000000000000000000000000000000000000000000000081526004016111a4906125db565b60405180910390fd5b505050565b60008060418351036111f35760008060006020860151925060408601519150606086015160001a90506111e787828585611381565b945094505050506111fc565b60006002915091505b9250929050565b60006004811115611217576112166125fb565b5b81600481111561122a576112296125fb565b5b03156113665760016004811115611244576112436125fb565b5b816004811115611257576112566125fb565b5b03611297576040517f08c379a000000000000000000000000000000000000000000000000000000000815260040161128e90612676565b60405180910390fd5b600260048111156112ab576112aa6125fb565b5b8160048111156112be576112bd6125fb565b5b036112fe576040517f08c379a00000000000000000000000000000000000000000000000000000000081526004016112f5906126e2565b60405180910390fd5b60036004811115611312576113116125fb565b5b816004811115611325576113246125fb565b5b03611365576040517f08c379a000000000000000000000000000000000000000000000000000000000815260040161135c90612774565b60405180910390fd5b5b50565b60606113788484600085611463565b90509392505050565b6000807f7fffffffffffffffffffffffffffffff5d576e7357a4501ddfe92f46681b20a08360001c11156113bc57600060039150915061145a565b6000600187878787604051600081526020016040526040516113e194939291906127bf565b6020604051602081039080840390855afa158015611403573d6000803e3d6000fd5b505050602060405103519050600073ffffffffffffffffffffffffffffffffffffffff168173ffffffffffffffffffffffffffffffffffffffff16036114515760006001925092505061145a565b80600092509250505b94509492505050565b6060824710156114a8576040517f08c379a000000000000000000000000000000000000000000000000000000000815260040161149f90612876565b60405180910390fd5b6000808673ffffffffffffffffffffffffffffffffffffffff1685876040516114d191906128dd565b60006040518083038185875af1925050503d806000811461150e576040519150601f19603f3d011682016040523d82523d6000602084013e611513565b606091505b509150915061152487838387611530565b92505050949350505050565b6060831561159257600083510361158a5761154a856115a5565b611589576040517f08c379a000000000000000000000000000000000000000000000000000000000815260040161158090612940565b60405180910390fd5b5b82905061159d565b61159c83836115c8565b5b949350505050565b6000808273ffffffffffffffffffffffffffffffffffffffff163b119050919050565b6000825111156115db5781518083602001fd5b806040517f08c379a000000000000000000000000000000000000000000000000000000000815260040161160f91906117e3565b60405180910390fd5b600073ffffffffffffffffffffffffffffffffffffffff82169050919050565b6000819050919050565b600061165d61165861165384611618565b611638565b611618565b9050919050565b600061166f82611642565b9050919050565b600061168182611664565b9050919050565b61169181611676565b82525050565b60006020820190506116ac6000830184611688565b92915050565b6000819050919050565b6116c5816116b2565b82525050565b60006020820190506116e060008301846116bc565b92915050565b6000604051905090565b600080fd5b600080fd5b611703816116b2565b811461170e57600080fd5b50565b600081359050611720816116fa565b92915050565b60006020828403121561173c5761173b6116f0565b5b600061174a84828501611711565b91505092915050565b600081519050919050565b600082825260208201905092915050565b60005b8381101561178d578082015181840152602081019050611772565b60008484015250505050565b6000601f19601f8301169050919050565b60006117b582611753565b6117bf818561175e565b93506117cf81856020860161176f565b6117d881611799565b840191505092915050565b600060208201905081810360008301526117fd81846117aa565b905092915050565b600080fd5b600080fd5b7f4e487b7100000000000000000000000000000000000000000000000000000000600052604160045260246000fd5b61184782611799565b810181811067ffffffffffffffff821117156118665761186561180f565b5b80604052505050565b60006118796116e6565b9050611885828261183e565b919050565b600067ffffffffffffffff8211156118a5576118a461180f565b5b6118ae82611799565b9050602081019050919050565b82818337600083830152505050565b60006118dd6118d88461188a565b61186f565b9050828152602081018484840111156118f9576118f861180a565b5b6119048482856118bb565b509392505050565b600082601f83011261192157611920611805565b5b81356119318482602086016118ca565b91505092915050565b600061194582611618565b9050919050565b6119558161193a565b811461196057600080fd5b50565b6000813590506119728161194c565b92915050565b6000806040838503121561198f5761198e6116f0565b5b600083013567ffffffffffffffff8111156119ad576119ac6116f5565b5b6119b98582860161190c565b92505060206119ca85828601611963565b9150509250929050565b60008115159050919050565b6119e9816119d4565b82525050565b6000602082019050611a0460008301846119e0565b92915050565b600060208284031215611a2057611a1f6116f0565b5b600082013567ffffffffffffffff811115611a3e57611a3d6116f5565b5b611a4a8482850161190c565b91505092915050565b611a5c8161193a565b82525050565b6000602082019050611a776000830184611a53565b92915050565b600067ffffffffffffffff821115611a9857611a9761180f565b5b611aa182611799565b9050602081019050919050565b6000611ac1611abc84611a7d565b61186f565b905082815260208101848484011115611add57611adc61180a565b5b611ae88482856118bb565b509392505050565b600082601f830112611b0557611b04611805565b5b8135611b15848260208601611aae565b91505092915050565b60008060008060808587031215611b3857611b376116f0565b5b6000611b4687828801611963565b9450506020611b5787828801611963565b9350506040611b6887828801611711565b925050606085013567ffffffffffffffff811115611b8957611b886116f5565b5b611b9587828801611af0565b91505092959194509250565b60008060408385031215611bb857611bb76116f0565b5b600083013567ffffffffffffffff811115611bd657611bd56116f5565b5b611be28582860161190c565b9250506020611bf385828601611711565b9150509250929050565b600060208284031215611c1357611c126116f0565b5b6000611c2184828501611963565b91505092915050565b7f4e487b7100000000000000000000000000000000000000000000000000000000600052602260045260246000fd5b60006002820490506001821680611c7157607f821691505b602082108103611c8457611c83611c2a565b5b50919050565b600081905092915050565b6000611ca082611753565b611caa8185611c8a565b9350611cba81856020860161176f565b80840191505092915050565b6000611cd28284611c95565b915081905092915050565b7f4c6f79616c20494420616c726561647920726567697374657265640000000000600082015250565b6000611d13601b8361175e565b9150611d1e82611cdd565b602082019050919050565b60006020820190508181036000830152611d4281611d06565b9050919050565b60008190508160005260206000209050919050565b60006020601f8301049050919050565b600082821b905092915050565b600060088302611dab7fffffffffffffffffffffffffffffffffffffffffffffffffffffffffffffffff82611d6e565b611db58683611d6e565b95508019841693508086168417925050509392505050565b6000611de8611de3611dde846116b2565b611638565b6116b2565b9050919050565b6000819050919050565b611e0283611dcd565b611e16611e0e82611def565b848454611d7b565b825550505050565b600090565b611e2b611e1e565b611e36818484611df9565b505050565b5b81811015611e5a57611e4f600082611e23565b600181019050611e3c565b5050565b601f821115611e9f57611e7081611d49565b611e7984611d5e565b81016020851015611e88578190505b611e9c611e9485611d5e565b830182611e3b565b50505b505050565b600082821c905092915050565b6000611ec260001984600802611ea4565b1980831691505092915050565b6000611edb8383611eb1565b9150826002028217905092915050565b611ef482611753565b67ffffffffffffffff811115611f0d57611f0c61180f565b5b611f178254611c59565b611f22828285611e5e565b600060209050601f831160018114611f555760008415611f43578287015190505b611f4d8582611ecf565b865550611fb5565b601f198416611f6386611d49565b60005b82811015611f8b57848901518255600182019150602085019450602081019050611f66565b86831015611fa85784890151611fa4601f891682611eb1565b8355505b6001600288020188555050505b505050505050565b7f4c6f79616c204944206e6f742072656769737465726564000000000000000000600082015250565b6000611ff360178361175e565b9150611ffe82611fbd565b602082019050919050565b6000602082019050818103600083015261202281611fe6565b9050919050565b60008160601b9050919050565b600061204182612029565b9050919050565b600061205382612036565b9050919050565b61206b6120668261193a565b612048565b82525050565b6000819050919050565b61208c612087826116b2565b612071565b82525050565b600061209e828661205a565b6014820191506120ae828561205a565b6014820191506120be828461207b565b602082019150819050949350505050565b7f496e76616c6964207369676e6174757265000000000000000000000000000000600082015250565b600061210560118361175e565b9150612110826120cf565b602082019050919050565b60006020820190508181036000830152612134816120f8565b9050919050565b600060408201905061215060008301856116bc565b61215d60208301846116bc565b9392505050565b60006060820190506121796000830186611a53565b6121866020830185611a53565b61219360408301846116bc565b949350505050565b6121a4816119d4565b81146121af57600080fd5b50565b6000815190506121c18161219b565b92915050565b6000602082840312156121dd576121dc6116f0565b5b60006121eb848285016121b2565b91505092915050565b7f417070726f76616c206661696c65640000000000000000000000000000000000600082015250565b600061222a600f8361175e565b9150612235826121f4565b602082019050919050565b600060208201905081810360008301526122598161221d565b9050919050565b7f4e487b7100000000000000000000000000000000000000000000000000000000600052601160045260246000fd5b600061229a826116b2565b91506122a5836116b2565b92508282026122b3816116b2565b915082820484148315176122ca576122c9612260565b5b5092915050565b6000815190506122e0816116fa565b92915050565b6000602082840312156122fc576122fb6116f0565b5b600061230a848285016122d1565b91505092915050565b7f4e6f7420656e6f75676820746f6b656e7320746f2073656e642072657761726460008201527f7300000000000000000000000000000000000000000000000000000000000000602082015250565b600061236f60218361175e565b915061237a82612313565b604082019050919050565b6000602082019050818103600083015261239e81612362565b9050919050565b7f4f776e61626c653a206e6577206f776e657220697320746865207a65726f206160008201527f6464726573730000000000000000000000000000000000000000000000000000602082015250565b600061240160268361175e565b915061240c826123a5565b604082019050919050565b60006020820190508181036000830152612430816123f4565b9050919050565b7f4f776e61626c653a2063616c6c6572206973206e6f7420746865206f776e6572600082015250565b600061246d60208361175e565b915061247882612437565b602082019050919050565b6000602082019050818103600083015261249c81612460565b9050919050565b7f19457468657265756d205369676e6564204d6573736167653a0a333200000000600082015250565b60006124d9601c83611c8a565b91506124e4826124a3565b601c82019050919050565b6000819050919050565b6000819050919050565b61251461250f826124ef565b6124f9565b82525050565b6000612525826124cc565b91506125318284612503565b60208201915081905092915050565b60006040820190506125556000830185611a53565b61256260208301846116bc565b9392505050565b7f5361666545524332303a204552433230206f7065726174696f6e20646964206e60008201527f6f74207375636365656400000000000000000000000000000000000000000000602082015250565b60006125c5602a8361175e565b91506125d082612569565b604082019050919050565b600060208201905081810360008301526125f4816125b8565b9050919050565b7f4e487b7100000000000000000000000000000000000000000000000000000000600052602160045260246000fd5b7f45434453413a20696e76616c6964207369676e61747572650000000000000000600082015250565b600061266060188361175e565b915061266b8261262a565b602082019050919050565b6000602082019050818103600083015261268f81612653565b9050919050565b7f45434453413a20696e76616c6964207369676e6174757265206c656e67746800600082015250565b60006126cc601f8361175e565b91506126d782612696565b602082019050919050565b600060208201905081810360008301526126fb816126bf565b9050919050565b7f45434453413a20696e76616c6964207369676e6174757265202773272076616c60008201527f7565000000000000000000000000000000000000000000000000000000000000602082015250565b600061275e60228361175e565b915061276982612702565b604082019050919050565b6000602082019050818103600083015261278d81612751565b9050919050565b61279d816124ef565b82525050565b600060ff82169050919050565b6127b9816127a3565b82525050565b60006080820190506127d46000830187612794565b6127e160208301866127b0565b6127ee6040830185612794565b6127fb6060830184612794565b95945050505050565b7f416464726573733a20696e73756666696369656e742062616c616e636520666f60008201527f722063616c6c0000000000000000000000000000000000000000000000000000602082015250565b600061286060268361175e565b915061286b82612804565b604082019050919050565b6000602082019050818103600083015261288f81612853565b9050919050565b600081519050919050565b600081905092915050565b60006128b782612896565b6128c181856128a1565b93506128d181856020860161176f565b80840191505092915050565b60006128e982846128ac565b915081905092915050565b7f416464726573733a2063616c6c20746f206e6f6e2d636f6e7472616374000000600082015250565b600061292a601d8361175e565b9150612935826128f4565b602082019050919050565b600060208201905081810360008301526129598161291d565b905091905056fea2646970667358221220d4844166d50133cd541c3f26780dae6d1d7d2fca0cd5fb233d95367d956f770964736f6c63430008130033",
    "linkReferences": {},
    "deployedLinkReferences": {}
}