{
  "_format": "hh-sol-artifact-1",
  "contractName": "LoyaltyProgram",
  "sourceName": "contracts/LoyaltyProgram.sol",
  "abi": [
    {
      "inputs": [
        {
          "internalType": "address",
          "name": "_omniTokenAddress",
          "type": "address"
        },
        {
          "internalType": "address",
          "name": "_owner",
          "type": "address"
        },
        {
          "internalType": "string",
          "name": "_commerceName",
          "type": "string"
        },
        {
          "internalType": "string",
          "name": "_commercePrefix",
          "type": "string"
        }
      ],
      "stateMutability": "nonpayable",
      "type": "constructor"
    },
    {
      "inputs": [],
      "name": "InvalidShortString",
      "type": "error"
    },
    {
      "inputs": [
        {
          "internalType": "string",
          "name": "str",
          "type": "string"
        }
      ],
      "name": "StringTooLong",
      "type": "error"
    },
    {
      "anonymous": false,
      "inputs": [],
      "name": "EIP712DomainChanged",
      "type": "event"
    },
    {
      "anonymous": false,
      "inputs": [
        {
          "indexed": true,
          "internalType": "address",
          "name": "owner",
          "type": "address"
        },
        {
          "indexed": true,
          "internalType": "address",
          "name": "spender",
          "type": "address"
        },
        {
          "indexed": false,
          "internalType": "uint256",
          "name": "value",
          "type": "uint256"
        },
        {
          "indexed": false,
          "internalType": "uint256",
          "name": "timestamp",
          "type": "uint256"
        }
      ],
      "name": "GaslessApproval",
      "type": "event"
    },
    {
      "anonymous": false,
      "inputs": [
        {
          "indexed": true,
          "internalType": "address",
          "name": "previousOwner",
          "type": "address"
        },
        {
          "indexed": true,
          "internalType": "address",
          "name": "newOwner",
          "type": "address"
        }
      ],
      "name": "OwnershipTransferred",
      "type": "event"
    },
    {
      "anonymous": false,
      "inputs": [
        {
          "indexed": true,
          "internalType": "address",
          "name": "from",
          "type": "address"
        },
        {
          "indexed": false,
          "internalType": "address",
          "name": "_toProductOwner",
          "type": "address"
        },
        {
          "indexed": true,
          "internalType": "address",
          "name": "_toUserOwner",
          "type": "address"
        },
        {
          "indexed": false,
          "internalType": "uint256",
          "name": "amount",
          "type": "uint256"
        },
        {
          "indexed": false,
          "internalType": "uint256",
          "name": "timestamp",
          "type": "uint256"
        }
      ],
      "name": "RedeemProduct",
      "type": "event"
    },
    {
      "anonymous": false,
      "inputs": [
        {
          "indexed": true,
          "internalType": "address",
          "name": "user",
          "type": "address"
        },
        {
          "indexed": false,
          "internalType": "string",
          "name": "loyal_ID",
          "type": "string"
        },
        {
          "indexed": false,
          "internalType": "uint256",
          "name": "timestamp",
          "type": "uint256"
        }
      ],
      "name": "Registered",
      "type": "event"
    },
    {
      "anonymous": false,
      "inputs": [
        {
          "indexed": true,
          "internalType": "address",
          "name": "from",
          "type": "address"
        },
        {
          "indexed": true,
          "internalType": "address",
          "name": "to",
          "type": "address"
        },
        {
          "indexed": false,
          "internalType": "uint256",
          "name": "amount",
          "type": "uint256"
        },
        {
          "indexed": false,
          "internalType": "uint256",
          "name": "timestamp",
          "type": "uint256"
        }
      ],
      "name": "RewardsSent",
      "type": "event"
    },
    {
      "anonymous": false,
      "inputs": [
        {
          "indexed": true,
          "internalType": "address",
          "name": "from",
          "type": "address"
        },
        {
          "indexed": false,
          "internalType": "uint256",
          "name": "ratio",
          "type": "uint256"
        },
        {
          "indexed": false,
          "internalType": "uint256",
          "name": "timestamp",
          "type": "uint256"
        }
      ],
      "name": "SetTokenRatio",
      "type": "event"
    },
    {
      "anonymous": false,
      "inputs": [
        {
          "indexed": true,
          "internalType": "address",
          "name": "from",
          "type": "address"
        },
        {
          "indexed": true,
          "internalType": "address",
          "name": "to",
          "type": "address"
        },
        {
          "indexed": false,
          "internalType": "uint256",
          "name": "amount",
          "type": "uint256"
        },
        {
          "indexed": false,
          "internalType": "uint256",
          "name": "timestamp",
          "type": "uint256"
        }
      ],
      "name": "UserTokenTransfer",
      "type": "event"
    },
    {
      "anonymous": false,
      "inputs": [
        {
          "indexed": true,
          "internalType": "address",
          "name": "from",
          "type": "address"
        },
        {
          "indexed": true,
          "internalType": "address",
          "name": "to",
          "type": "address"
        },
        {
          "indexed": false,
          "internalType": "uint256",
          "name": "amount",
          "type": "uint256"
        },
        {
          "indexed": false,
          "internalType": "uint256",
          "name": "timestamp",
          "type": "uint256"
        }
      ],
      "name": "Withdrawal",
      "type": "event"
    },
    {
      "inputs": [],
      "name": "APPROVAL_TYPEHASH",
      "outputs": [
        {
          "internalType": "bytes32",
          "name": "",
          "type": "bytes32"
        }
      ],
      "stateMutability": "view",
      "type": "function"
    },
    {
      "inputs": [],
      "name": "COMMERCE_RATIO",
      "outputs": [
        {
          "internalType": "uint256",
          "name": "",
          "type": "uint256"
        }
      ],
      "stateMutability": "view",
      "type": "function"
    },
    {
      "inputs": [],
      "name": "PRODUCT_RATIO",
      "outputs": [
        {
          "internalType": "uint256",
          "name": "",
          "type": "uint256"
        }
      ],
      "stateMutability": "view",
      "type": "function"
    },
    {
      "inputs": [],
      "name": "REDEEM_TYPEHASH",
      "outputs": [
        {
          "internalType": "bytes32",
          "name": "",
          "type": "bytes32"
        }
      ],
      "stateMutability": "view",
      "type": "function"
    },
    {
      "inputs": [],
      "name": "TRANSFER_TYPEHASH",
      "outputs": [
        {
          "internalType": "bytes32",
          "name": "",
          "type": "bytes32"
        }
      ],
      "stateMutability": "view",
      "type": "function"
    },
    {
      "inputs": [
        {
          "internalType": "string",
          "name": "_loyalId",
          "type": "string"
        },
        {
          "internalType": "uint256",
          "name": "_amount",
          "type": "uint256"
        }
      ],
      "name": "adminTransferTokensToUser",
      "outputs": [],
      "stateMutability": "nonpayable",
      "type": "function"
    },
    {
      "inputs": [],
      "name": "commerceName",
      "outputs": [
        {
          "internalType": "string",
          "name": "",
          "type": "string"
        }
      ],
      "stateMutability": "view",
      "type": "function"
    },
    {
      "inputs": [],
      "name": "commercePrefix",
      "outputs": [
        {
          "internalType": "string",
          "name": "",
          "type": "string"
        }
      ],
      "stateMutability": "view",
      "type": "function"
    },
    {
      "inputs": [],
      "name": "eip712Domain",
      "outputs": [
        {
          "internalType": "bytes1",
          "name": "fields",
          "type": "bytes1"
        },
        {
          "internalType": "string",
          "name": "name",
          "type": "string"
        },
        {
          "internalType": "string",
          "name": "version",
          "type": "string"
        },
        {
          "internalType": "uint256",
          "name": "chainId",
          "type": "uint256"
        },
        {
          "internalType": "address",
          "name": "verifyingContract",
          "type": "address"
        },
        {
          "internalType": "bytes32",
          "name": "salt",
          "type": "bytes32"
        },
        {
          "internalType": "uint256[]",
          "name": "extensions",
          "type": "uint256[]"
        }
      ],
      "stateMutability": "view",
      "type": "function"
    },
    {
      "inputs": [
        {
          "internalType": "address",
          "name": "_owner",
          "type": "address"
        },
        {
          "internalType": "address",
          "name": "_spender",
          "type": "address"
        },
        {
          "internalType": "uint256",
          "name": "_value",
          "type": "uint256"
        },
        {
          "internalType": "bytes",
          "name": "_signature",
          "type": "bytes"
        }
      ],
      "name": "gaslessApprove",
      "outputs": [
        {
          "internalType": "bool",
          "name": "",
          "type": "bool"
        }
      ],
      "stateMutability": "nonpayable",
      "type": "function"
    },
    {
      "inputs": [
        {
          "internalType": "string",
          "name": "_loyalId",
          "type": "string"
        }
      ],
      "name": "getUserAddress",
      "outputs": [
        {
          "internalType": "address",
          "name": "",
          "type": "address"
        }
      ],
      "stateMutability": "view",
      "type": "function"
    },
    {
      "inputs": [],
      "name": "getUsersCount",
      "outputs": [
        {
          "internalType": "uint256",
          "name": "",
          "type": "uint256"
        }
      ],
      "stateMutability": "view",
      "type": "function"
    },
    {
      "inputs": [
        {
          "internalType": "string",
          "name": "",
          "type": "string"
        }
      ],
      "name": "loyalIdToUser",
      "outputs": [
        {
          "internalType": "address",
          "name": "",
          "type": "address"
        }
      ],
      "stateMutability": "view",
      "type": "function"
    },
    {
      "inputs": [],
      "name": "omniToken",
      "outputs": [
        {
          "internalType": "contract OmniToken",
          "name": "",
          "type": "address"
        }
      ],
      "stateMutability": "view",
      "type": "function"
    },
    {
      "inputs": [],
      "name": "owner",
      "outputs": [
        {
          "internalType": "address",
          "name": "",
          "type": "address"
        }
      ],
      "stateMutability": "view",
      "type": "function"
    },
    {
      "inputs": [
        {
          "internalType": "address",
          "name": "_from",
          "type": "address"
        },
        {
          "internalType": "address",
          "name": "_toProductCommerceAddress",
          "type": "address"
        },
        {
          "internalType": "address",
          "name": "_toUserCommerceAddress",
          "type": "address"
        },
        {
          "internalType": "uint256",
          "name": "_amount",
          "type": "uint256"
        },
        {
          "internalType": "bytes",
          "name": "_signature",
          "type": "bytes"
        }
      ],
      "name": "redeemProduct",
      "outputs": [
        {
          "internalType": "bool",
          "name": "",
          "type": "bool"
        }
      ],
      "stateMutability": "nonpayable",
      "type": "function"
    },
    {
      "inputs": [
        {
          "internalType": "string",
          "name": "_loyalId",
          "type": "string"
        },
        {
          "internalType": "address",
          "name": "_userAddress",
          "type": "address"
        }
      ],
      "name": "register",
      "outputs": [
        {
          "internalType": "bool",
          "name": "",
          "type": "bool"
        }
      ],
      "stateMutability": "nonpayable",
      "type": "function"
    },
    {
      "inputs": [],
      "name": "renounceOwnership",
      "outputs": [],
      "stateMutability": "nonpayable",
      "type": "function"
    },
    {
      "inputs": [
        {
          "internalType": "string",
          "name": "_loyalId",
          "type": "string"
        },
        {
          "internalType": "uint256",
          "name": "_purchaseValue",
          "type": "uint256"
        }
      ],
      "name": "sendRewards",
      "outputs": [
        {
          "internalType": "bool",
          "name": "",
          "type": "bool"
        }
      ],
      "stateMutability": "nonpayable",
      "type": "function"
    },
    {
      "inputs": [
        {
          "internalType": "uint256",
          "name": "_newRatio",
          "type": "uint256"
        }
      ],
      "name": "setTokenRatio",
      "outputs": [],
      "stateMutability": "nonpayable",
      "type": "function"
    },
    {
      "inputs": [],
      "name": "tokenRatio",
      "outputs": [
        {
          "internalType": "uint256",
          "name": "",
          "type": "uint256"
        }
      ],
      "stateMutability": "view",
      "type": "function"
    },
    {
      "inputs": [
        {
          "internalType": "address",
          "name": "newOwner",
          "type": "address"
        }
      ],
      "name": "transferOwnership",
      "outputs": [],
      "stateMutability": "nonpayable",
      "type": "function"
    },
    {
      "inputs": [
        {
          "internalType": "address",
          "name": "_from",
          "type": "address"
        },
        {
          "internalType": "address",
          "name": "_to",
          "type": "address"
        },
        {
          "internalType": "uint256",
          "name": "_amount",
          "type": "uint256"
        },
        {
          "internalType": "bytes",
          "name": "_signature",
          "type": "bytes"
        }
      ],
      "name": "userTransferTokensToUser",
      "outputs": [
        {
          "internalType": "bool",
          "name": "",
          "type": "bool"
        }
      ],
      "stateMutability": "nonpayable",
      "type": "function"
    },
    {
      "inputs": [
        {
          "internalType": "uint256",
          "name": "",
          "type": "uint256"
        }
      ],
      "name": "usersLoyaltyIds",
      "outputs": [
        {
          "internalType": "string",
          "name": "",
          "type": "string"
        }
      ],
      "stateMutability": "view",
      "type": "function"
    },
    {
      "inputs": [
        {
          "internalType": "address",
          "name": "_to",
          "type": "address"
        },
        {
          "internalType": "uint256",
          "name": "_amount",
          "type": "uint256"
        }
      ],
      "name": "withdrawal",
      "outputs": [
        {
          "internalType": "bool",
          "name": "",
          "type": "bool"
        }
      ],
      "stateMutability": "nonpayable",
      "type": "function"
    }
  ],
  "bytecode": "0x6101606040523480156200001257600080fd5b50604051620025a6380380620025a6833981016040819052620000359162000430565b6040518060400160405280600b81526020016a4f6d6e6957616c6c65743360a81b815250604051806040016040528060018152602001603160f81b8152506200008d620000876200019560201b60201c565b62000199565b6200009a826001620001e9565b61012052620000ab816002620001e9565b61014052815160208084019190912060e052815190820120610100524660a0526200013960e05161010051604080517f8b73c3c69bb8fe3d512ecc4cf759cc79239f7b179b0ffacaa9a75d522b39400f60208201529081019290925260608201524660808201523060a082015260009060c00160405160208183030381529060405280519060200120905090565b60805250503060c052600480546001600160a01b0319166001600160a01b03861617905560066200016b83826200054f565b5060076200017a82826200054f565b5060016005556200018b8362000222565b5050505062000675565b3390565b600080546001600160a01b038381166001600160a01b0319831681178455604051919092169283917f8be0079c531659141344cd1fd0a4f28419497f9722a3daafe3b4186f6b6457e09190a35050565b600060208351101562000209576200020183620002a5565b90506200021c565b816200021684826200054f565b5060ff90505b92915050565b6200022c620002e8565b6001600160a01b038116620002975760405162461bcd60e51b815260206004820152602660248201527f4f776e61626c653a206e6577206f776e657220697320746865207a65726f206160448201526564647265737360d01b60648201526084015b60405180910390fd5b620002a28162000199565b50565b600080829050601f81511115620002d3578260405163305a27a960e01b81526004016200028e91906200061b565b8051620002e08262000650565b179392505050565b6000546001600160a01b03163314620003445760405162461bcd60e51b815260206004820181905260248201527f4f776e61626c653a2063616c6c6572206973206e6f7420746865206f776e657260448201526064016200028e565b565b80516001600160a01b03811681146200035e57600080fd5b919050565b634e487b7160e01b600052604160045260246000fd5b60005b83811015620003965781810151838201526020016200037c565b50506000910152565b600082601f830112620003b157600080fd5b81516001600160401b0380821115620003ce57620003ce62000363565b604051601f8301601f19908116603f01168101908282118183101715620003f957620003f962000363565b816040528381528660208588010111156200041357600080fd5b6200042684602083016020890162000379565b9695505050505050565b600080600080608085870312156200044757600080fd5b620004528562000346565b9350620004626020860162000346565b60408601519093506001600160401b03808211156200048057600080fd5b6200048e888389016200039f565b93506060870151915080821115620004a557600080fd5b50620004b4878288016200039f565b91505092959194509250565b600181811c90821680620004d557607f821691505b602082108103620004f657634e487b7160e01b600052602260045260246000fd5b50919050565b601f8211156200054a57600081815260208120601f850160051c81016020861015620005255750805b601f850160051c820191505b81811015620005465782815560010162000531565b5050505b505050565b81516001600160401b038111156200056b576200056b62000363565b62000583816200057c8454620004c0565b84620004fc565b602080601f831160018114620005bb5760008415620005a25750858301515b600019600386901b1c1916600185901b17855562000546565b600085815260208120601f198616915b82811015620005ec57888601518255948401946001909101908401620005cb565b50858210156200060b5787850151600019600388901b60f8161c191681555b5050505050600190811b01905550565b60208152600082518060208401526200063c81604085016020870162000379565b601f01601f19169190910160400192915050565b80516020808301519190811015620004f65760001960209190910360031b1b16919050565b60805160a05160c05160e051610100516101205161014051611ed6620006d06000396000610a7801526000610a4d015260006113f3015260006113cb01526000611326015260006113500152600061137a0152611ed66000f3fe608060405234801561001057600080fd5b50600436106101725760003560e01c8063715018a6116100de578063a4a1e26311610097578063d212e98011610071578063d212e98014610372578063e38e91f91461037a578063e7c9c0331461038d578063f2fde38b146103a057600080fd5b8063a4a1e26314610344578063acb969561461034c578063bad31f5f1461035f57600080fd5b8063715018a6146102d957806381a4f0db146102e157806384b0196e146102e957806385a99879146103045780638da5cb5b1461032b5780639a08bdcf1461033c57600080fd5b80631e59c529116101305780631e59c5291461023d5780634985e85c146102505780634bc33e56146102635780635a6b26ba1461026b57806365a724971461027e5780636a3cf768146102a557600080fd5b8062bf26f4146101775780630186f8a4146101b15780630193911a146101dc5780630224fa31146101f157806306f837d314610214578063086c4dac1461021d575b600080fd5b61019e7fecaf94e1ddab99cbad46d45c645015736fee6a8188643cd359ce8020f82ec65f81565b6040519081526020015b60405180910390f35b6004546101c4906001600160a01b031681565b6040516001600160a01b0390911681526020016101a8565b6101ef6101ea36600461192e565b6103b3565b005b6102046101ff36600461198f565b6104c0565b60405190151581526020016101a8565b61019e60055481565b61023061022b366004611a08565b610690565b6040516101a89190611a71565b61020461024b366004611a84565b61073c565b6101c461025e366004611ad2565b61087a565b610230610913565b610204610279366004611b07565b610920565b61019e7f9099bf5a210fca40ad25f8da4f9b4cacc7142bac2bb1f1e40181751009d2258e81565b6101c46102b3366004611ad2565b80516020818301810180516003825292820191909301209152546001600160a01b031681565b6101ef610a1e565b610230610a32565b6102f1610a3f565b6040516101a89796959493929190611b31565b61019e7fb701066b5f3778b1b490f13f739f8a33d3146982e821529bd106ec546172327581565b6000546001600160a01b03166101c4565b61019e605081565b60085461019e565b61020461035a366004611bc7565b610ac8565b61020461036d366004611bc7565b610c09565b61019e601481565b6101ef610388366004611a08565b610de6565b61020461039b36600461192e565b610e30565b6101ef6103ae366004611c2f565b610f60565b6103bb610fd9565b60006103c68361087a565b600480546040516370a0823160e01b8152309281019290925291925083916001600160a01b0316906370a0823190602401602060405180830381865afa158015610414573d6000803e3d6000fd5b505050506040513d601f19601f820116820180604052508101906104389190611c4a565b101561045f5760405162461bcd60e51b815260040161045690611c63565b60405180910390fd5b600454610476906001600160a01b03168284611033565b604080518381524260208201526001600160a01b0383169130917f481e7d56b32ba5694db6d6e1e8664106f5096f0eed26ca72a9323f9a39c2d0d4910160405180910390a3505050565b60006104ca610fd9565b604080517fb701066b5f3778b1b490f13f739f8a33d3146982e821529bd106ec54617232756020808301919091526001600160a01b038981168385015288811660608401528716608083015260a08083018790528351808403909101815260c0909201909252805191012060006105408261109b565b9050600061054e82866110c8565b9050886001600160a01b0316816001600160a01b0316146105815760405162461bcd60e51b815260040161045690611c7f565b600061059587670de0b6b3a76400006110ec565b9050876001600160a01b0316896001600160a01b0316036105cd576004546105c8906001600160a01b03168b8b846110ff565b61062f565b60006105e560646105df8460506110ec565b9061113d565b905060006105f960646105df8560146110ec565b600454909150610614906001600160a01b03168d8d856110ff565b60045461062c906001600160a01b03168d8c846110ff565b50505b604080516001600160a01b038b8116825260208201849052428284015291518a8316928d16917fa3e11d099a2619bc9f8d86d632d24822044c8e6cc3578aa05dee6045118a6ffa919081900360600190a35060019998505050505050505050565b600881815481106106a057600080fd5b9060005260206000200160009150905080546106bb90611c9b565b80601f01602080910402602001604051908101604052809291908181526020018280546106e790611c9b565b80156107345780601f1061070957610100808354040283529160200191610734565b820191906000526020600020905b81548152906001019060200180831161071757829003601f168201915b505050505081565b6000610746610fd9565b60006001600160a01b03166003846040516107619190611cd5565b908152604051908190036020019020546001600160a01b0316146107b05760405162461bcd60e51b8152600401610456906020808252600490820152632624a22360e11b604082015260600190565b816003846040516107c19190611cd5565b90815260405190819003602001902080546001600160a01b03929092166001600160a01b0319909216919091179055600880546001810182556000919091527ff3f7a9fe364faab93b216da50a3214154f22a0a2b415b23a84c8169e8b636ee30161082c8482611d3f565b50816001600160a01b03167f89b886e508b5806f8c28179176052458c2bd0f54106811773b56be2d51a14e608442604051610868929190611dff565b60405180910390a25060015b92915050565b6000806001600160a01b03166003836040516108969190611cd5565b908152604051908190036020019020546001600160a01b0316036108e45760405162461bcd60e51b81526020600482015260056024820152642624a2272360d91b6044820152606401610456565b6003826040516108f49190611cd5565b908152604051908190036020019020546001600160a01b031692915050565b600780546106bb90611c9b565b600061092a610fd9565b600480546040516370a0823160e01b8152309281019290925283916001600160a01b03909116906370a0823190602401602060405180830381865afa158015610977573d6000803e3d6000fd5b505050506040513d601f19601f8201168201806040525081019061099b9190611c4a565b10156109b95760405162461bcd60e51b815260040161045690611c63565b6004546109d0906001600160a01b03168484611033565b604080518381524260208201526001600160a01b0385169130917fc2b4a290c20fb28939d29f102514fbffd2b73c059ffba8b78250c94161d5fcc6910160405180910390a350600192915050565b610a26610fd9565b610a306000611149565b565b600680546106bb90611c9b565b600060608082808083610a737f00000000000000000000000000000000000000000000000000000000000000006001611199565b610a9e7f00000000000000000000000000000000000000000000000000000000000000006002611199565b60408051600080825260208201909252600f60f81b9b939a50919850469750309650945092509050565b6000610ad2610fd9565b604080517fecaf94e1ddab99cbad46d45c645015736fee6a8188643cd359ce8020f82ec65f6020808301919091526001600160a01b03888116838501528716606083015260808083018790528351808403909101815260a090920190925280519101206000610b408261109b565b90506000610b4e82866110c8565b9050876001600160a01b0316816001600160a01b031614610b815760405162461bcd60e51b815260040161045690611c7f565b6000610b9587670de0b6b3a76400006110ec565b600454909150610bb0906001600160a01b03168a8a846110ff565b604080518281524260208201526001600160a01b03808b1692908c16917f481e7d56b32ba5694db6d6e1e8664106f5096f0eed26ca72a9323f9a39c2d0d4910160405180910390a360019450505050505b949350505050565b6000610c13610fd9565b604080517f9099bf5a210fca40ad25f8da4f9b4cacc7142bac2bb1f1e40181751009d2258e6020808301919091526001600160a01b03888116838501528716606083015260808083018790528351808403909101815260a090920190925280519101206000610c818261109b565b90506000610c8f82866110c8565b9050876001600160a01b0316816001600160a01b031614610cc25760405162461bcd60e51b815260040161045690611c7f565b6000610cd687670de0b6b3a76400006110ec565b600480546040516315cc8ba360e11b81526001600160a01b038d8116938201939093528b8316602482015260448101849052929350600092911690632b991746906064016020604051808303816000875af1158015610d39573d6000803e3d6000fd5b505050506040513d601f19601f82011682018060405250810190610d5d9190611e21565b905080610d915760405162461bcd60e51b815260206004820152600260248201526120a360f11b6044820152606401610456565b604080518381524260208201526001600160a01b03808c1692908d16917faabc2eccec5ca4fab864a7efea6519e0e5d807a8a069ca5b5956a36ddaba5a2f910160405180910390a39998505050505050505050565b610dee610fd9565b60058190556040805182815242602082015230917ff5ddf882edc9b8326ec3dd981e28df082b55fbf2a35bf83c1f15355bea27f7f1910160405180910390a250565b6000610e3a610fd9565b6000610e458461087a565b9050600060055484610e579190611e43565b610e6990670de0b6b3a7640000611e43565b600480546040516370a0823160e01b8152309281019290925291925082916001600160a01b0316906370a0823190602401602060405180830381865afa158015610eb7573d6000803e3d6000fd5b505050506040513d601f19601f82011682018060405250810190610edb9190611c4a565b1015610ef95760405162461bcd60e51b815260040161045690611c63565b600454610f10906001600160a01b03168383611033565b604080518281524260208201526001600160a01b0384169130917fb3796f1efbf51f21bedf963e93652b4a3c669fe3c6155c8f0ab5712443f9d213910160405180910390a3506001949350505050565b610f68610fd9565b6001600160a01b038116610fcd5760405162461bcd60e51b815260206004820152602660248201527f4f776e61626c653a206e6577206f776e657220697320746865207a65726f206160448201526564647265737360d01b6064820152608401610456565b610fd681611149565b50565b6000546001600160a01b03163314610a305760405162461bcd60e51b815260206004820181905260248201527f4f776e61626c653a2063616c6c6572206973206e6f7420746865206f776e65726044820152606401610456565b6040516001600160a01b03831660248201526044810182905261109690849063a9059cbb60e01b906064015b60408051601f198184030181529190526020810180516001600160e01b03166001600160e01b031990931692909217909152611244565b505050565b60006108746110a8611319565b8360405161190160f01b8152600281019290925260228201526042902090565b60008060006110d78585611449565b915091506110e48161148e565b509392505050565b60006110f88284611e43565b9392505050565b6040516001600160a01b03808516602483015283166044820152606481018290526111379085906323b872dd60e01b9060840161105f565b50505050565b60006110f88284611e68565b600080546001600160a01b038381166001600160a01b0319831681178455604051919092169283917f8be0079c531659141344cd1fd0a4f28419497f9722a3daafe3b4186f6b6457e09190a35050565b606060ff83146111b3576111ac836115d8565b9050610874565b8180546111bf90611c9b565b80601f01602080910402602001604051908101604052809291908181526020018280546111eb90611c9b565b80156112385780601f1061120d57610100808354040283529160200191611238565b820191906000526020600020905b81548152906001019060200180831161121b57829003601f168201915b50505050509050610874565b6000611299826040518060400160405280602081526020017f5361666545524332303a206c6f772d6c6576656c2063616c6c206661696c6564815250856001600160a01b03166116179092919063ffffffff16565b90508051600014806112ba5750808060200190518101906112ba9190611e21565b6110965760405162461bcd60e51b815260206004820152602a60248201527f5361666545524332303a204552433230206f7065726174696f6e20646964206e6044820152691bdd081cdd58d8d9595960b21b6064820152608401610456565b6000306001600160a01b037f00000000000000000000000000000000000000000000000000000000000000001614801561137257507f000000000000000000000000000000000000000000000000000000000000000046145b1561139c57507f000000000000000000000000000000000000000000000000000000000000000090565b611444604080517f8b73c3c69bb8fe3d512ecc4cf759cc79239f7b179b0ffacaa9a75d522b39400f60208201527f0000000000000000000000000000000000000000000000000000000000000000918101919091527f000000000000000000000000000000000000000000000000000000000000000060608201524660808201523060a082015260009060c00160405160208183030381529060405280519060200120905090565b905090565b600080825160410361147f5760208301516040840151606085015160001a61147387828585611626565b94509450505050611487565b506000905060025b9250929050565b60008160048111156114a2576114a2611e8a565b036114aa5750565b60018160048111156114be576114be611e8a565b0361150b5760405162461bcd60e51b815260206004820152601860248201527f45434453413a20696e76616c6964207369676e617475726500000000000000006044820152606401610456565b600281600481111561151f5761151f611e8a565b0361156c5760405162461bcd60e51b815260206004820152601f60248201527f45434453413a20696e76616c6964207369676e6174757265206c656e677468006044820152606401610456565b600381600481111561158057611580611e8a565b03610fd65760405162461bcd60e51b815260206004820152602260248201527f45434453413a20696e76616c6964207369676e6174757265202773272076616c604482015261756560f01b6064820152608401610456565b606060006115e5836116ea565b604080516020808252818301909252919250600091906020820181803683375050509182525060208101929092525090565b6060610c018484600085611712565b6000807f7fffffffffffffffffffffffffffffff5d576e7357a4501ddfe92f46681b20a083111561165d57506000905060036116e1565b6040805160008082526020820180845289905260ff881692820192909252606081018690526080810185905260019060a0016020604051602081039080840390855afa1580156116b1573d6000803e3d6000fd5b5050604051601f1901519150506001600160a01b0381166116da576000600192509250506116e1565b9150600090505b94509492505050565b600060ff8216601f81111561087457604051632cd44ac360e21b815260040160405180910390fd5b6060824710156117735760405162461bcd60e51b815260206004820152602660248201527f416464726573733a20696e73756666696369656e742062616c616e636520666f6044820152651c8818d85b1b60d21b6064820152608401610456565b600080866001600160a01b0316858760405161178f9190611cd5565b60006040518083038185875af1925050503d80600081146117cc576040519150601f19603f3d011682016040523d82523d6000602084013e6117d1565b606091505b50915091506117e2878383876117ed565b979650505050505050565b6060831561185c578251600003611855576001600160a01b0385163b6118555760405162461bcd60e51b815260206004820152601d60248201527f416464726573733a2063616c6c20746f206e6f6e2d636f6e74726163740000006044820152606401610456565b5081610c01565b610c0183838151156118715781518083602001fd5b8060405162461bcd60e51b81526004016104569190611a71565b634e487b7160e01b600052604160045260246000fd5b600082601f8301126118b257600080fd5b813567ffffffffffffffff808211156118cd576118cd61188b565b604051601f8301601f19908116603f011681019082821181831017156118f5576118f561188b565b8160405283815286602085880101111561190e57600080fd5b836020870160208301376000602085830101528094505050505092915050565b6000806040838503121561194157600080fd5b823567ffffffffffffffff81111561195857600080fd5b611964858286016118a1565b95602094909401359450505050565b80356001600160a01b038116811461198a57600080fd5b919050565b600080600080600060a086880312156119a757600080fd5b6119b086611973565b94506119be60208701611973565b93506119cc60408701611973565b925060608601359150608086013567ffffffffffffffff8111156119ef57600080fd5b6119fb888289016118a1565b9150509295509295909350565b600060208284031215611a1a57600080fd5b5035919050565b60005b83811015611a3c578181015183820152602001611a24565b50506000910152565b60008151808452611a5d816020860160208601611a21565b601f01601f19169290920160200192915050565b6020815260006110f86020830184611a45565b60008060408385031215611a9757600080fd5b823567ffffffffffffffff811115611aae57600080fd5b611aba858286016118a1565b925050611ac960208401611973565b90509250929050565b600060208284031215611ae457600080fd5b813567ffffffffffffffff811115611afb57600080fd5b610c01848285016118a1565b60008060408385031215611b1a57600080fd5b611b2383611973565b946020939093013593505050565b60ff60f81b881681526000602060e081840152611b5160e084018a611a45565b8381036040850152611b63818a611a45565b606085018990526001600160a01b038816608086015260a0850187905284810360c0860152855180825283870192509083019060005b81811015611bb557835183529284019291840191600101611b99565b50909c9b505050505050505050505050565b60008060008060808587031215611bdd57600080fd5b611be685611973565b9350611bf460208601611973565b925060408501359150606085013567ffffffffffffffff811115611c1757600080fd5b611c23878288016118a1565b91505092959194509250565b600060208284031215611c4157600080fd5b6110f882611973565b600060208284031215611c5c57600080fd5b5051919050565b602080825260029082015261139560f21b604082015260600190565b602080825260029082015261495360f01b604082015260600190565b600181811c90821680611caf57607f821691505b602082108103611ccf57634e487b7160e01b600052602260045260246000fd5b50919050565b60008251611ce7818460208701611a21565b9190910192915050565b601f82111561109657600081815260208120601f850160051c81016020861015611d185750805b601f850160051c820191505b81811015611d3757828155600101611d24565b505050505050565b815167ffffffffffffffff811115611d5957611d5961188b565b611d6d81611d678454611c9b565b84611cf1565b602080601f831160018114611da25760008415611d8a5750858301515b600019600386901b1c1916600185901b178555611d37565b600085815260208120601f198616915b82811015611dd157888601518255948401946001909101908401611db2565b5085821015611def5787850151600019600388901b60f8161c191681555b5050505050600190811b01905550565b604081526000611e126040830185611a45565b90508260208301529392505050565b600060208284031215611e3357600080fd5b815180151581146110f857600080fd5b808202811582820484141761087457634e487b7160e01b600052601160045260246000fd5b600082611e8557634e487b7160e01b600052601260045260246000fd5b500490565b634e487b7160e01b600052602160045260246000fdfea2646970667358221220e567806ae9adb544f0d335d295b19bd6c803546d6d6c78731f28503d05abc77064736f6c63430008140033",
  "linkReferences": {},
  "deployedLinkReferences": {}
}