{
  "_format": "hh-sol-artifact-1",
  "contractName": "LoyaltyProgram",
  "sourceName": "contracts/LoyaltyProgram.sol",
  "abi": [
    {
      "inputs": [
        {
          "internalType": "address",
          "name": "_omniTokenAddress",
          "type": "address"
        },
        {
          "internalType": "address",
          "name": "_owner",
          "type": "address"
        },
        {
          "internalType": "string",
          "name": "_commerceName",
          "type": "string"
        },
        {
          "internalType": "string",
          "name": "_commercePrefix",
          "type": "string"
        }
      ],
      "stateMutability": "nonpayable",
      "type": "constructor"
    },
    {
      "inputs": [],
      "name": "InvalidShortString",
      "type": "error"
    },
    {
      "inputs": [
        {
          "internalType": "string",
          "name": "str",
          "type": "string"
        }
      ],
      "name": "StringTooLong",
      "type": "error"
    },
    {
      "anonymous": false,
      "inputs": [],
      "name": "EIP712DomainChanged",
      "type": "event"
    },
    {
      "anonymous": false,
      "inputs": [
        {
          "indexed": true,
          "internalType": "address",
          "name": "owner",
          "type": "address"
        },
        {
          "indexed": true,
          "internalType": "address",
          "name": "spender",
          "type": "address"
        },
        {
          "indexed": false,
          "internalType": "uint256",
          "name": "value",
          "type": "uint256"
        },
        {
          "indexed": false,
          "internalType": "uint256",
          "name": "timestamp",
          "type": "uint256"
        }
      ],
      "name": "GaslessApproval",
      "type": "event"
    },
    {
      "anonymous": false,
      "inputs": [
        {
          "indexed": true,
          "internalType": "address",
          "name": "previousOwner",
          "type": "address"
        },
        {
          "indexed": true,
          "internalType": "address",
          "name": "newOwner",
          "type": "address"
        }
      ],
      "name": "OwnershipTransferred",
      "type": "event"
    },
    {
      "anonymous": false,
      "inputs": [
        {
          "indexed": false,
          "internalType": "string",
          "name": "productSku",
          "type": "string"
        },
        {
          "indexed": true,
          "internalType": "address",
          "name": "from",
          "type": "address"
        },
        {
          "indexed": false,
          "internalType": "address",
          "name": "toProductCommerce",
          "type": "address"
        },
        {
          "indexed": true,
          "internalType": "address",
          "name": "toUserCommerce",
          "type": "address"
        },
        {
          "indexed": false,
          "internalType": "uint256",
          "name": "amount",
          "type": "uint256"
        },
        {
          "indexed": false,
          "internalType": "uint256",
          "name": "timestamp",
          "type": "uint256"
        }
      ],
      "name": "RedeemProduct",
      "type": "event"
    },
    {
      "anonymous": false,
      "inputs": [
        {
          "indexed": true,
          "internalType": "address",
          "name": "user",
          "type": "address"
        },
        {
          "indexed": false,
          "internalType": "string",
          "name": "loyal_ID",
          "type": "string"
        },
        {
          "indexed": false,
          "internalType": "uint256",
          "name": "timestamp",
          "type": "uint256"
        }
      ],
      "name": "Registered",
      "type": "event"
    },
    {
      "anonymous": false,
      "inputs": [
        {
          "indexed": true,
          "internalType": "address",
          "name": "from",
          "type": "address"
        },
        {
          "indexed": true,
          "internalType": "address",
          "name": "to",
          "type": "address"
        },
        {
          "indexed": false,
          "internalType": "uint256",
          "name": "amount",
          "type": "uint256"
        },
        {
          "indexed": false,
          "internalType": "uint256",
          "name": "timestamp",
          "type": "uint256"
        }
      ],
      "name": "RewardsSent",
      "type": "event"
    },
    {
      "anonymous": false,
      "inputs": [
        {
          "indexed": true,
          "internalType": "address",
          "name": "from",
          "type": "address"
        },
        {
          "indexed": false,
          "internalType": "uint256",
          "name": "ratio",
          "type": "uint256"
        },
        {
          "indexed": false,
          "internalType": "uint256",
          "name": "timestamp",
          "type": "uint256"
        }
      ],
      "name": "SetTokenRatio",
      "type": "event"
    },
    {
      "anonymous": false,
      "inputs": [
        {
          "indexed": true,
          "internalType": "address",
          "name": "from",
          "type": "address"
        },
        {
          "indexed": true,
          "internalType": "address",
          "name": "to",
          "type": "address"
        },
        {
          "indexed": false,
          "internalType": "uint256",
          "name": "amount",
          "type": "uint256"
        },
        {
          "indexed": false,
          "internalType": "uint256",
          "name": "timestamp",
          "type": "uint256"
        }
      ],
      "name": "UserTokenTransfer",
      "type": "event"
    },
    {
      "anonymous": false,
      "inputs": [
        {
          "indexed": true,
          "internalType": "address",
          "name": "from",
          "type": "address"
        },
        {
          "indexed": true,
          "internalType": "address",
          "name": "to",
          "type": "address"
        },
        {
          "indexed": false,
          "internalType": "uint256",
          "name": "amount",
          "type": "uint256"
        },
        {
          "indexed": false,
          "internalType": "uint256",
          "name": "timestamp",
          "type": "uint256"
        }
      ],
      "name": "Withdrawal",
      "type": "event"
    },
    {
      "inputs": [],
      "name": "APPROVAL_TYPEHASH",
      "outputs": [
        {
          "internalType": "bytes32",
          "name": "",
          "type": "bytes32"
        }
      ],
      "stateMutability": "view",
      "type": "function"
    },
    {
      "inputs": [],
      "name": "COMMERCE_RATIO",
      "outputs": [
        {
          "internalType": "uint256",
          "name": "",
          "type": "uint256"
        }
      ],
      "stateMutability": "view",
      "type": "function"
    },
    {
      "inputs": [],
      "name": "PRODUCT_RATIO",
      "outputs": [
        {
          "internalType": "uint256",
          "name": "",
          "type": "uint256"
        }
      ],
      "stateMutability": "view",
      "type": "function"
    },
    {
      "inputs": [],
      "name": "REDEEM_TYPEHASH",
      "outputs": [
        {
          "internalType": "bytes32",
          "name": "",
          "type": "bytes32"
        }
      ],
      "stateMutability": "view",
      "type": "function"
    },
    {
      "inputs": [],
      "name": "TRANSFER_TYPEHASH",
      "outputs": [
        {
          "internalType": "bytes32",
          "name": "",
          "type": "bytes32"
        }
      ],
      "stateMutability": "view",
      "type": "function"
    },
    {
      "inputs": [
        {
          "internalType": "string",
          "name": "_loyalId",
          "type": "string"
        },
        {
          "internalType": "uint256",
          "name": "_amount",
          "type": "uint256"
        }
      ],
      "name": "adminTransferTokensToUser",
      "outputs": [],
      "stateMutability": "nonpayable",
      "type": "function"
    },
    {
      "inputs": [],
      "name": "commerceName",
      "outputs": [
        {
          "internalType": "string",
          "name": "",
          "type": "string"
        }
      ],
      "stateMutability": "view",
      "type": "function"
    },
    {
      "inputs": [],
      "name": "commercePrefix",
      "outputs": [
        {
          "internalType": "string",
          "name": "",
          "type": "string"
        }
      ],
      "stateMutability": "view",
      "type": "function"
    },
    {
      "inputs": [],
      "name": "eip712Domain",
      "outputs": [
        {
          "internalType": "bytes1",
          "name": "fields",
          "type": "bytes1"
        },
        {
          "internalType": "string",
          "name": "name",
          "type": "string"
        },
        {
          "internalType": "string",
          "name": "version",
          "type": "string"
        },
        {
          "internalType": "uint256",
          "name": "chainId",
          "type": "uint256"
        },
        {
          "internalType": "address",
          "name": "verifyingContract",
          "type": "address"
        },
        {
          "internalType": "bytes32",
          "name": "salt",
          "type": "bytes32"
        },
        {
          "internalType": "uint256[]",
          "name": "extensions",
          "type": "uint256[]"
        }
      ],
      "stateMutability": "view",
      "type": "function"
    },
    {
      "inputs": [
        {
          "internalType": "address",
          "name": "_owner",
          "type": "address"
        },
        {
          "internalType": "address",
          "name": "_spender",
          "type": "address"
        },
        {
          "internalType": "uint256",
          "name": "_value",
          "type": "uint256"
        },
        {
          "internalType": "bytes",
          "name": "_signature",
          "type": "bytes"
        }
      ],
      "name": "gaslessApprove",
      "outputs": [
        {
          "internalType": "bool",
          "name": "",
          "type": "bool"
        }
      ],
      "stateMutability": "nonpayable",
      "type": "function"
    },
    {
      "inputs": [
        {
          "internalType": "string",
          "name": "_loyalId",
          "type": "string"
        }
      ],
      "name": "getUserAddress",
      "outputs": [
        {
          "internalType": "address",
          "name": "",
          "type": "address"
        }
      ],
      "stateMutability": "view",
      "type": "function"
    },
    {
      "inputs": [],
      "name": "getUsersCount",
      "outputs": [
        {
          "internalType": "uint256",
          "name": "",
          "type": "uint256"
        }
      ],
      "stateMutability": "view",
      "type": "function"
    },
    {
      "inputs": [
        {
          "internalType": "string",
          "name": "",
          "type": "string"
        }
      ],
      "name": "loyalIdToUser",
      "outputs": [
        {
          "internalType": "address",
          "name": "",
          "type": "address"
        }
      ],
      "stateMutability": "view",
      "type": "function"
    },
    {
      "inputs": [],
      "name": "omniToken",
      "outputs": [
        {
          "internalType": "contract OmniToken",
          "name": "",
          "type": "address"
        }
      ],
      "stateMutability": "view",
      "type": "function"
    },
    {
      "inputs": [],
      "name": "owner",
      "outputs": [
        {
          "internalType": "address",
          "name": "",
          "type": "address"
        }
      ],
      "stateMutability": "view",
      "type": "function"
    },
    {
      "inputs": [
        {
          "internalType": "string",
          "name": "_productSku",
          "type": "string"
        },
        {
          "internalType": "address",
          "name": "_from",
          "type": "address"
        },
        {
          "internalType": "address",
          "name": "_toProductCommerceAddress",
          "type": "address"
        },
        {
          "internalType": "address",
          "name": "_toUserCommerceAddress",
          "type": "address"
        },
        {
          "internalType": "uint256",
          "name": "_amount",
          "type": "uint256"
        },
        {
          "internalType": "bytes",
          "name": "_signature",
          "type": "bytes"
        }
      ],
      "name": "redeemProduct",
      "outputs": [
        {
          "internalType": "bool",
          "name": "",
          "type": "bool"
        }
      ],
      "stateMutability": "nonpayable",
      "type": "function"
    },
    {
      "inputs": [
        {
          "internalType": "string",
          "name": "_loyalId",
          "type": "string"
        },
        {
          "internalType": "address",
          "name": "_userAddress",
          "type": "address"
        }
      ],
      "name": "register",
      "outputs": [
        {
          "internalType": "bool",
          "name": "",
          "type": "bool"
        }
      ],
      "stateMutability": "nonpayable",
      "type": "function"
    },
    {
      "inputs": [],
      "name": "renounceOwnership",
      "outputs": [],
      "stateMutability": "nonpayable",
      "type": "function"
    },
    {
      "inputs": [
        {
          "internalType": "string",
          "name": "_loyalId",
          "type": "string"
        },
        {
          "internalType": "uint256",
          "name": "_purchaseValue",
          "type": "uint256"
        }
      ],
      "name": "sendRewards",
      "outputs": [
        {
          "internalType": "bool",
          "name": "",
          "type": "bool"
        }
      ],
      "stateMutability": "nonpayable",
      "type": "function"
    },
    {
      "inputs": [
        {
          "internalType": "uint256",
          "name": "_newRatio",
          "type": "uint256"
        }
      ],
      "name": "setTokenRatio",
      "outputs": [],
      "stateMutability": "nonpayable",
      "type": "function"
    },
    {
      "inputs": [],
      "name": "tokenRatio",
      "outputs": [
        {
          "internalType": "uint256",
          "name": "",
          "type": "uint256"
        }
      ],
      "stateMutability": "view",
      "type": "function"
    },
    {
      "inputs": [
        {
          "internalType": "address",
          "name": "newOwner",
          "type": "address"
        }
      ],
      "name": "transferOwnership",
      "outputs": [],
      "stateMutability": "nonpayable",
      "type": "function"
    },
    {
      "inputs": [
        {
          "internalType": "address",
          "name": "_from",
          "type": "address"
        },
        {
          "internalType": "address",
          "name": "_to",
          "type": "address"
        },
        {
          "internalType": "uint256",
          "name": "_amount",
          "type": "uint256"
        },
        {
          "internalType": "bytes",
          "name": "_signature",
          "type": "bytes"
        }
      ],
      "name": "userTransferTokensToUser",
      "outputs": [
        {
          "internalType": "bool",
          "name": "",
          "type": "bool"
        }
      ],
      "stateMutability": "nonpayable",
      "type": "function"
    },
    {
      "inputs": [
        {
          "internalType": "uint256",
          "name": "",
          "type": "uint256"
        }
      ],
      "name": "usersLoyaltyIds",
      "outputs": [
        {
          "internalType": "string",
          "name": "",
          "type": "string"
        }
      ],
      "stateMutability": "view",
      "type": "function"
    },
    {
      "inputs": [
        {
          "internalType": "address",
          "name": "_to",
          "type": "address"
        },
        {
          "internalType": "uint256",
          "name": "_amount",
          "type": "uint256"
        }
      ],
      "name": "withdrawal",
      "outputs": [
        {
          "internalType": "bool",
          "name": "",
          "type": "bool"
        }
      ],
      "stateMutability": "nonpayable",
      "type": "function"
    }
  ],
  "bytecode": "0x6101606040523480156200001257600080fd5b506040516200263338038062002633833981016040819052620000359162000430565b6040518060400160405280600b81526020016a4f6d6e6957616c6c65743360a81b815250604051806040016040528060018152602001603160f81b8152506200008d620000876200019560201b60201c565b62000199565b6200009a826001620001e9565b61012052620000ab816002620001e9565b61014052815160208084019190912060e052815190820120610100524660a0526200013960e05161010051604080517f8b73c3c69bb8fe3d512ecc4cf759cc79239f7b179b0ffacaa9a75d522b39400f60208201529081019290925260608201524660808201523060a082015260009060c00160405160208183030381529060405280519060200120905090565b60805250503060c052600480546001600160a01b0319166001600160a01b03861617905560066200016b83826200054f565b5060076200017a82826200054f565b5060016005556200018b8362000222565b5050505062000675565b3390565b600080546001600160a01b038381166001600160a01b0319831681178455604051919092169283917f8be0079c531659141344cd1fd0a4f28419497f9722a3daafe3b4186f6b6457e09190a35050565b600060208351101562000209576200020183620002a5565b90506200021c565b816200021684826200054f565b5060ff90505b92915050565b6200022c620002e8565b6001600160a01b038116620002975760405162461bcd60e51b815260206004820152602660248201527f4f776e61626c653a206e6577206f776e657220697320746865207a65726f206160448201526564647265737360d01b60648201526084015b60405180910390fd5b620002a28162000199565b50565b600080829050601f81511115620002d3578260405163305a27a960e01b81526004016200028e91906200061b565b8051620002e08262000650565b179392505050565b6000546001600160a01b03163314620003445760405162461bcd60e51b815260206004820181905260248201527f4f776e61626c653a2063616c6c6572206973206e6f7420746865206f776e657260448201526064016200028e565b565b80516001600160a01b03811681146200035e57600080fd5b919050565b634e487b7160e01b600052604160045260246000fd5b60005b83811015620003965781810151838201526020016200037c565b50506000910152565b600082601f830112620003b157600080fd5b81516001600160401b0380821115620003ce57620003ce62000363565b604051601f8301601f19908116603f01168101908282118183101715620003f957620003f962000363565b816040528381528660208588010111156200041357600080fd5b6200042684602083016020890162000379565b9695505050505050565b600080600080608085870312156200044757600080fd5b620004528562000346565b9350620004626020860162000346565b60408601519093506001600160401b03808211156200048057600080fd5b6200048e888389016200039f565b93506060870151915080821115620004a557600080fd5b50620004b4878288016200039f565b91505092959194509250565b600181811c90821680620004d557607f821691505b602082108103620004f657634e487b7160e01b600052602260045260246000fd5b50919050565b601f8211156200054a57600081815260208120601f850160051c81016020861015620005255750805b601f850160051c820191505b81811015620005465782815560010162000531565b5050505b505050565b81516001600160401b038111156200056b576200056b62000363565b62000583816200057c8454620004c0565b84620004fc565b602080601f831160018114620005bb5760008415620005a25750858301515b600019600386901b1c1916600185901b17855562000546565b600085815260208120601f198616915b82811015620005ec57888601518255948401946001909101908401620005cb565b50858210156200060b5787850151600019600388901b60f8161c191681555b5050505050600190811b01905550565b60208152600082518060208401526200063c81604085016020870162000379565b601f01601f19169190910160400192915050565b80516020808301519190811015620004f65760001960209190910360031b1b16919050565b60805160a05160c05160e051610100516101205161014051611f63620006d06000396000610aa801526000610a7d01526000611423015260006113fb0152600061135601526000611380015260006113aa0152611f636000f3fe608060405234801561001057600080fd5b50600436106101725760003560e01c8063715018a6116100de578063a4a1e26311610097578063d212e98011610071578063d212e98014610372578063e38e91f91461037a578063e7c9c0331461038d578063f2fde38b146103a057600080fd5b8063a4a1e26314610344578063acb969561461034c578063bad31f5f1461035f57600080fd5b8063715018a6146102d957806381a4f0db146102e157806384b0196e146102e957806385a99879146103045780638da5cb5b1461032b5780639a08bdcf1461033c57600080fd5b8063201078c411610130578063201078c41461023d5780634985e85c146102505780634bc33e56146102635780635a6b26ba1461026b57806365a724971461027e5780636a3cf768146102a557600080fd5b8062bf26f4146101775780630186f8a4146101b15780630193911a146101dc57806306f837d3146101f1578063086c4dac146101fa5780631e59c5291461021a575b600080fd5b61019e7fecaf94e1ddab99cbad46d45c645015736fee6a8188643cd359ce8020f82ec65f81565b6040519081526020015b60405180910390f35b6004546101c4906001600160a01b031681565b6040516001600160a01b0390911681526020016101a8565b6101ef6101ea36600461195e565b6103b3565b005b61019e60055481565b61020d6102083660046119a3565b6104c0565b6040516101a89190611a0c565b61022d610228366004611a3b565b61056c565b60405190151581526020016101a8565b61022d61024b366004611a89565b6106aa565b6101c461025e366004611b27565b6108aa565b61020d610943565b61022d610279366004611b5c565b610950565b61019e7f9099bf5a210fca40ad25f8da4f9b4cacc7142bac2bb1f1e40181751009d2258e81565b6101c46102b3366004611b27565b80516020818301810180516003825292820191909301209152546001600160a01b031681565b6101ef610a4e565b61020d610a62565b6102f1610a6f565b6040516101a89796959493929190611b86565b61019e7ff1e9db1c70fb468a96d261b739cb6e7a9630a7553777c86612cd98d835c8fa4081565b6000546001600160a01b03166101c4565b61019e605081565b60085461019e565b61022d61035a366004611c1c565b610af8565b61022d61036d366004611c1c565b610c39565b61019e601481565b6101ef6103883660046119a3565b610e16565b61022d61039b36600461195e565b610e60565b6101ef6103ae366004611c84565b610f90565b6103bb611009565b60006103c6836108aa565b600480546040516370a0823160e01b8152309281019290925291925083916001600160a01b0316906370a0823190602401602060405180830381865afa158015610414573d6000803e3d6000fd5b505050506040513d601f19601f820116820180604052508101906104389190611c9f565b101561045f5760405162461bcd60e51b815260040161045690611cb8565b60405180910390fd5b600454610476906001600160a01b03168284611063565b604080518381524260208201526001600160a01b0383169130917f481e7d56b32ba5694db6d6e1e8664106f5096f0eed26ca72a9323f9a39c2d0d4910160405180910390a3505050565b600881815481106104d057600080fd5b9060005260206000200160009150905080546104eb90611cd4565b80601f016020809104026020016040519081016040528092919081815260200182805461051790611cd4565b80156105645780601f1061053957610100808354040283529160200191610564565b820191906000526020600020905b81548152906001019060200180831161054757829003601f168201915b505050505081565b6000610576611009565b60006001600160a01b03166003846040516105919190611d0e565b908152604051908190036020019020546001600160a01b0316146105e05760405162461bcd60e51b8152600401610456906020808252600490820152632624a22360e11b604082015260600190565b816003846040516105f19190611d0e565b90815260405190819003602001902080546001600160a01b03929092166001600160a01b0319909216919091179055600880546001810182556000919091527ff3f7a9fe364faab93b216da50a3214154f22a0a2b415b23a84c8169e8b636ee30161065c8482611d78565b50816001600160a01b03167f89b886e508b5806f8c28179176052458c2bd0f54106811773b56be2d51a14e608442604051610698929190611e38565b60405180910390a25060015b92915050565b60006106b4611009565b60007ff1e9db1c70fb468a96d261b739cb6e7a9630a7553777c86612cd98d835c8fa40886040516020016106e89190611d0e565b60408051601f198184030181528282528051602091820120908301939093528101919091526001600160a01b0380891660608301528088166080830152861660a082015260c0810185905260e0016040516020818303038152906040528051906020012090506000610759826110cb565b9050600061076782866110f8565b9050886001600160a01b0316816001600160a01b03161461079a5760405162461bcd60e51b815260040161045690611e5a565b60006107ae87670de0b6b3a764000061111c565b9050876001600160a01b0316896001600160a01b0316036107e6576004546107e1906001600160a01b03168b8b8461112f565b610848565b60006107fe60646107f884605061111c565b9061116d565b9050600061081260646107f885601461111c565b60045490915061082d906001600160a01b03168d8d8561112f565b600454610845906001600160a01b03168d8c8461112f565b50505b876001600160a01b03168a6001600160a01b03167f22400d335049d5a5509df351bec6e020237c547b30040976b7e067e38179abe48d8c85426040516108919493929190611e76565b60405180910390a35060019a9950505050505050505050565b6000806001600160a01b03166003836040516108c69190611d0e565b908152604051908190036020019020546001600160a01b0316036109145760405162461bcd60e51b81526020600482015260056024820152642624a2272360d91b6044820152606401610456565b6003826040516109249190611d0e565b908152604051908190036020019020546001600160a01b031692915050565b600780546104eb90611cd4565b600061095a611009565b600480546040516370a0823160e01b8152309281019290925283916001600160a01b03909116906370a0823190602401602060405180830381865afa1580156109a7573d6000803e3d6000fd5b505050506040513d601f19601f820116820180604052508101906109cb9190611c9f565b10156109e95760405162461bcd60e51b815260040161045690611cb8565b600454610a00906001600160a01b03168484611063565b604080518381524260208201526001600160a01b0385169130917fc2b4a290c20fb28939d29f102514fbffd2b73c059ffba8b78250c94161d5fcc6910160405180910390a350600192915050565b610a56611009565b610a606000611179565b565b600680546104eb90611cd4565b600060608082808083610aa37f000000000000000000000000000000000000000000000000000000000000000060016111c9565b610ace7f000000000000000000000000000000000000000000000000000000000000000060026111c9565b60408051600080825260208201909252600f60f81b9b939a50919850469750309650945092509050565b6000610b02611009565b604080517fecaf94e1ddab99cbad46d45c645015736fee6a8188643cd359ce8020f82ec65f6020808301919091526001600160a01b03888116838501528716606083015260808083018790528351808403909101815260a090920190925280519101206000610b70826110cb565b90506000610b7e82866110f8565b9050876001600160a01b0316816001600160a01b031614610bb15760405162461bcd60e51b815260040161045690611e5a565b6000610bc587670de0b6b3a764000061111c565b600454909150610be0906001600160a01b03168a8a8461112f565b604080518281524260208201526001600160a01b03808b1692908c16917f481e7d56b32ba5694db6d6e1e8664106f5096f0eed26ca72a9323f9a39c2d0d4910160405180910390a360019450505050505b949350505050565b6000610c43611009565b604080517f9099bf5a210fca40ad25f8da4f9b4cacc7142bac2bb1f1e40181751009d2258e6020808301919091526001600160a01b03888116838501528716606083015260808083018790528351808403909101815260a090920190925280519101206000610cb1826110cb565b90506000610cbf82866110f8565b9050876001600160a01b0316816001600160a01b031614610cf25760405162461bcd60e51b815260040161045690611e5a565b6000610d0687670de0b6b3a764000061111c565b600480546040516315cc8ba360e11b81526001600160a01b038d8116938201939093528b8316602482015260448101849052929350600092911690632b991746906064016020604051808303816000875af1158015610d69573d6000803e3d6000fd5b505050506040513d601f19601f82011682018060405250810190610d8d9190611eae565b905080610dc15760405162461bcd60e51b815260206004820152600260248201526120a360f11b6044820152606401610456565b604080518381524260208201526001600160a01b03808c1692908d16917faabc2eccec5ca4fab864a7efea6519e0e5d807a8a069ca5b5956a36ddaba5a2f910160405180910390a39998505050505050505050565b610e1e611009565b60058190556040805182815242602082015230917ff5ddf882edc9b8326ec3dd981e28df082b55fbf2a35bf83c1f15355bea27f7f1910160405180910390a250565b6000610e6a611009565b6000610e75846108aa565b9050600060055484610e879190611ed0565b610e9990670de0b6b3a7640000611ed0565b600480546040516370a0823160e01b8152309281019290925291925082916001600160a01b0316906370a0823190602401602060405180830381865afa158015610ee7573d6000803e3d6000fd5b505050506040513d601f19601f82011682018060405250810190610f0b9190611c9f565b1015610f295760405162461bcd60e51b815260040161045690611cb8565b600454610f40906001600160a01b03168383611063565b604080518281524260208201526001600160a01b0384169130917fb3796f1efbf51f21bedf963e93652b4a3c669fe3c6155c8f0ab5712443f9d213910160405180910390a3506001949350505050565b610f98611009565b6001600160a01b038116610ffd5760405162461bcd60e51b815260206004820152602660248201527f4f776e61626c653a206e6577206f776e657220697320746865207a65726f206160448201526564647265737360d01b6064820152608401610456565b61100681611179565b50565b6000546001600160a01b03163314610a605760405162461bcd60e51b815260206004820181905260248201527f4f776e61626c653a2063616c6c6572206973206e6f7420746865206f776e65726044820152606401610456565b6040516001600160a01b0383166024820152604481018290526110c690849063a9059cbb60e01b906064015b60408051601f198184030181529190526020810180516001600160e01b03166001600160e01b031990931692909217909152611274565b505050565b60006106a46110d8611349565b8360405161190160f01b8152600281019290925260228201526042902090565b60008060006111078585611479565b91509150611114816114be565b509392505050565b60006111288284611ed0565b9392505050565b6040516001600160a01b03808516602483015283166044820152606481018290526111679085906323b872dd60e01b9060840161108f565b50505050565b60006111288284611ef5565b600080546001600160a01b038381166001600160a01b0319831681178455604051919092169283917f8be0079c531659141344cd1fd0a4f28419497f9722a3daafe3b4186f6b6457e09190a35050565b606060ff83146111e3576111dc83611608565b90506106a4565b8180546111ef90611cd4565b80601f016020809104026020016040519081016040528092919081815260200182805461121b90611cd4565b80156112685780601f1061123d57610100808354040283529160200191611268565b820191906000526020600020905b81548152906001019060200180831161124b57829003601f168201915b505050505090506106a4565b60006112c9826040518060400160405280602081526020017f5361666545524332303a206c6f772d6c6576656c2063616c6c206661696c6564815250856001600160a01b03166116479092919063ffffffff16565b90508051600014806112ea5750808060200190518101906112ea9190611eae565b6110c65760405162461bcd60e51b815260206004820152602a60248201527f5361666545524332303a204552433230206f7065726174696f6e20646964206e6044820152691bdd081cdd58d8d9595960b21b6064820152608401610456565b6000306001600160a01b037f0000000000000000000000000000000000000000000000000000000000000000161480156113a257507f000000000000000000000000000000000000000000000000000000000000000046145b156113cc57507f000000000000000000000000000000000000000000000000000000000000000090565b611474604080517f8b73c3c69bb8fe3d512ecc4cf759cc79239f7b179b0ffacaa9a75d522b39400f60208201527f0000000000000000000000000000000000000000000000000000000000000000918101919091527f000000000000000000000000000000000000000000000000000000000000000060608201524660808201523060a082015260009060c00160405160208183030381529060405280519060200120905090565b905090565b60008082516041036114af5760208301516040840151606085015160001a6114a387828585611656565b945094505050506114b7565b506000905060025b9250929050565b60008160048111156114d2576114d2611f17565b036114da5750565b60018160048111156114ee576114ee611f17565b0361153b5760405162461bcd60e51b815260206004820152601860248201527f45434453413a20696e76616c6964207369676e617475726500000000000000006044820152606401610456565b600281600481111561154f5761154f611f17565b0361159c5760405162461bcd60e51b815260206004820152601f60248201527f45434453413a20696e76616c6964207369676e6174757265206c656e677468006044820152606401610456565b60038160048111156115b0576115b0611f17565b036110065760405162461bcd60e51b815260206004820152602260248201527f45434453413a20696e76616c6964207369676e6174757265202773272076616c604482015261756560f01b6064820152608401610456565b606060006116158361171a565b604080516020808252818301909252919250600091906020820181803683375050509182525060208101929092525090565b6060610c318484600085611742565b6000807f7fffffffffffffffffffffffffffffff5d576e7357a4501ddfe92f46681b20a083111561168d5750600090506003611711565b6040805160008082526020820180845289905260ff881692820192909252606081018690526080810185905260019060a0016020604051602081039080840390855afa1580156116e1573d6000803e3d6000fd5b5050604051601f1901519150506001600160a01b03811661170a57600060019250925050611711565b9150600090505b94509492505050565b600060ff8216601f8111156106a457604051632cd44ac360e21b815260040160405180910390fd5b6060824710156117a35760405162461bcd60e51b815260206004820152602660248201527f416464726573733a20696e73756666696369656e742062616c616e636520666f6044820152651c8818d85b1b60d21b6064820152608401610456565b600080866001600160a01b031685876040516117bf9190611d0e565b60006040518083038185875af1925050503d80600081146117fc576040519150601f19603f3d011682016040523d82523d6000602084013e611801565b606091505b50915091506118128783838761181d565b979650505050505050565b6060831561188c578251600003611885576001600160a01b0385163b6118855760405162461bcd60e51b815260206004820152601d60248201527f416464726573733a2063616c6c20746f206e6f6e2d636f6e74726163740000006044820152606401610456565b5081610c31565b610c3183838151156118a15781518083602001fd5b8060405162461bcd60e51b81526004016104569190611a0c565b634e487b7160e01b600052604160045260246000fd5b600082601f8301126118e257600080fd5b813567ffffffffffffffff808211156118fd576118fd6118bb565b604051601f8301601f19908116603f01168101908282118183101715611925576119256118bb565b8160405283815286602085880101111561193e57600080fd5b836020870160208301376000602085830101528094505050505092915050565b6000806040838503121561197157600080fd5b823567ffffffffffffffff81111561198857600080fd5b611994858286016118d1565b95602094909401359450505050565b6000602082840312156119b557600080fd5b5035919050565b60005b838110156119d75781810151838201526020016119bf565b50506000910152565b600081518084526119f88160208601602086016119bc565b601f01601f19169290920160200192915050565b60208152600061112860208301846119e0565b80356001600160a01b0381168114611a3657600080fd5b919050565b60008060408385031215611a4e57600080fd5b823567ffffffffffffffff811115611a6557600080fd5b611a71858286016118d1565b925050611a8060208401611a1f565b90509250929050565b60008060008060008060c08789031215611aa257600080fd5b863567ffffffffffffffff80821115611aba57600080fd5b611ac68a838b016118d1565b9750611ad460208a01611a1f565b9650611ae260408a01611a1f565b9550611af060608a01611a1f565b94506080890135935060a0890135915080821115611b0d57600080fd5b50611b1a89828a016118d1565b9150509295509295509295565b600060208284031215611b3957600080fd5b813567ffffffffffffffff811115611b5057600080fd5b610c31848285016118d1565b60008060408385031215611b6f57600080fd5b611b7883611a1f565b946020939093013593505050565b60ff60f81b881681526000602060e081840152611ba660e084018a6119e0565b8381036040850152611bb8818a6119e0565b606085018990526001600160a01b038816608086015260a0850187905284810360c0860152855180825283870192509083019060005b81811015611c0a57835183529284019291840191600101611bee565b50909c9b505050505050505050505050565b60008060008060808587031215611c3257600080fd5b611c3b85611a1f565b9350611c4960208601611a1f565b925060408501359150606085013567ffffffffffffffff811115611c6c57600080fd5b611c78878288016118d1565b91505092959194509250565b600060208284031215611c9657600080fd5b61112882611a1f565b600060208284031215611cb157600080fd5b5051919050565b602080825260029082015261139560f21b604082015260600190565b600181811c90821680611ce857607f821691505b602082108103611d0857634e487b7160e01b600052602260045260246000fd5b50919050565b60008251611d208184602087016119bc565b9190910192915050565b601f8211156110c657600081815260208120601f850160051c81016020861015611d515750805b601f850160051c820191505b81811015611d7057828155600101611d5d565b505050505050565b815167ffffffffffffffff811115611d9257611d926118bb565b611da681611da08454611cd4565b84611d2a565b602080601f831160018114611ddb5760008415611dc35750858301515b600019600386901b1c1916600185901b178555611d70565b600085815260208120601f198616915b82811015611e0a57888601518255948401946001909101908401611deb565b5085821015611e285787850151600019600388901b60f8161c191681555b5050505050600190811b01905550565b604081526000611e4b60408301856119e0565b90508260208301529392505050565b602080825260029082015261495360f01b604082015260600190565b608081526000611e8960808301876119e0565b6001600160a01b03959095166020830152506040810192909252606090910152919050565b600060208284031215611ec057600080fd5b8151801515811461112857600080fd5b80820281158282048414176106a457634e487b7160e01b600052601160045260246000fd5b600082611f1257634e487b7160e01b600052601260045260246000fd5b500490565b634e487b7160e01b600052602160045260246000fdfea26469706673582212209e2c2595bb66f0a6889388fa2beefae76c39b7ef034ed3e501be53720cfbdcd164736f6c63430008140033",
  "linkReferences": {},
  "deployedLinkReferences": {}
}