{
  "_format": "hh-sol-artifact-1",
  "contractName": "OmniToken",
  "sourceName": "contracts/OmniToken.sol",
  "abi": [
    {
      "inputs": [],
      "stateMutability": "nonpayable",
      "type": "constructor"
    },
    {
      "anonymous": false,
      "inputs": [
        {
          "indexed": true,
          "internalType": "address",
          "name": "owner",
          "type": "address"
        },
        {
          "indexed": true,
          "internalType": "address",
          "name": "spender",
          "type": "address"
        },
        {
          "indexed": false,
          "internalType": "uint256",
          "name": "value",
          "type": "uint256"
        }
      ],
      "name": "Approval",
      "type": "event"
    },
    {
      "anonymous": false,
      "inputs": [
        {
          "indexed": true,
          "internalType": "address",
          "name": "previousOwner",
          "type": "address"
        },
        {
          "indexed": true,
          "internalType": "address",
          "name": "newOwner",
          "type": "address"
        }
      ],
      "name": "OwnershipTransferred",
      "type": "event"
    },
    {
      "anonymous": false,
      "inputs": [
        {
          "indexed": true,
          "internalType": "address",
          "name": "from",
          "type": "address"
        },
        {
          "indexed": true,
          "internalType": "address",
          "name": "to",
          "type": "address"
        },
        {
          "indexed": false,
          "internalType": "uint256",
          "name": "value",
          "type": "uint256"
        }
      ],
      "name": "Transfer",
      "type": "event"
    },
    {
      "inputs": [
        {
          "internalType": "address",
          "name": "relayer",
          "type": "address"
        }
      ],
      "name": "addTrustedRelayer",
      "outputs": [],
      "stateMutability": "nonpayable",
      "type": "function"
    },
    {
      "inputs": [
        {
          "internalType": "address",
          "name": "owner",
          "type": "address"
        },
        {
          "internalType": "address",
          "name": "spender",
          "type": "address"
        }
      ],
      "name": "allowance",
      "outputs": [
        {
          "internalType": "uint256",
          "name": "",
          "type": "uint256"
        }
      ],
      "stateMutability": "view",
      "type": "function"
    },
    {
      "inputs": [
        {
          "internalType": "address",
          "name": "spender",
          "type": "address"
        },
        {
          "internalType": "uint256",
          "name": "amount",
          "type": "uint256"
        }
      ],
      "name": "approve",
      "outputs": [
        {
          "internalType": "bool",
          "name": "",
          "type": "bool"
        }
      ],
      "stateMutability": "nonpayable",
      "type": "function"
    },
    {
      "inputs": [
        {
          "internalType": "address",
          "name": "owner",
          "type": "address"
        },
        {
          "internalType": "address",
          "name": "spender",
          "type": "address"
        },
        {
          "internalType": "uint256",
          "name": "value",
          "type": "uint256"
        }
      ],
      "name": "approveFor",
      "outputs": [
        {
          "internalType": "bool",
          "name": "",
          "type": "bool"
        }
      ],
      "stateMutability": "nonpayable",
      "type": "function"
    },
    {
      "inputs": [
        {
          "internalType": "address",
          "name": "account",
          "type": "address"
        }
      ],
      "name": "balanceOf",
      "outputs": [
        {
          "internalType": "uint256",
          "name": "",
          "type": "uint256"
        }
      ],
      "stateMutability": "view",
      "type": "function"
    },
    {
      "inputs": [
        {
          "internalType": "uint256",
          "name": "amount",
          "type": "uint256"
        }
      ],
      "name": "burn",
      "outputs": [],
      "stateMutability": "nonpayable",
      "type": "function"
    },
    {
      "inputs": [
        {
          "internalType": "address",
          "name": "account",
          "type": "address"
        },
        {
          "internalType": "uint256",
          "name": "amount",
          "type": "uint256"
        }
      ],
      "name": "burnFrom",
      "outputs": [],
      "stateMutability": "nonpayable",
      "type": "function"
    },
    {
      "inputs": [],
      "name": "decimals",
      "outputs": [
        {
          "internalType": "uint8",
          "name": "",
          "type": "uint8"
        }
      ],
      "stateMutability": "view",
      "type": "function"
    },
    {
      "inputs": [
        {
          "internalType": "address",
          "name": "spender",
          "type": "address"
        },
        {
          "internalType": "uint256",
          "name": "subtractedValue",
          "type": "uint256"
        }
      ],
      "name": "decreaseAllowance",
      "outputs": [
        {
          "internalType": "bool",
          "name": "",
          "type": "bool"
        }
      ],
      "stateMutability": "nonpayable",
      "type": "function"
    },
    {
      "inputs": [
        {
          "internalType": "address",
          "name": "spender",
          "type": "address"
        },
        {
          "internalType": "uint256",
          "name": "addedValue",
          "type": "uint256"
        }
      ],
      "name": "increaseAllowance",
      "outputs": [
        {
          "internalType": "bool",
          "name": "",
          "type": "bool"
        }
      ],
      "stateMutability": "nonpayable",
      "type": "function"
    },
    {
      "inputs": [
        {
          "internalType": "address",
          "name": "loyaltyProgramAddress",
          "type": "address"
        }
      ],
      "name": "isTrustedRelayer",
      "outputs": [
        {
          "internalType": "bool",
          "name": "",
          "type": "bool"
        }
      ],
      "stateMutability": "view",
      "type": "function"
    },
    {
      "inputs": [
        {
          "internalType": "address",
          "name": "to",
          "type": "address"
        },
        {
          "internalType": "uint256",
          "name": "amount",
          "type": "uint256"
        }
      ],
      "name": "mint",
      "outputs": [],
      "stateMutability": "nonpayable",
      "type": "function"
    },
    {
      "inputs": [],
      "name": "name",
      "outputs": [
        {
          "internalType": "string",
          "name": "",
          "type": "string"
        }
      ],
      "stateMutability": "view",
      "type": "function"
    },
    {
      "inputs": [],
      "name": "owner",
      "outputs": [
        {
          "internalType": "address",
          "name": "",
          "type": "address"
        }
      ],
      "stateMutability": "view",
      "type": "function"
    },
    {
      "inputs": [
        {
          "internalType": "address",
          "name": "relayer",
          "type": "address"
        }
      ],
      "name": "removeTrustedRelayer",
      "outputs": [],
      "stateMutability": "nonpayable",
      "type": "function"
    },
    {
      "inputs": [],
      "name": "renounceOwnership",
      "outputs": [],
      "stateMutability": "nonpayable",
      "type": "function"
    },
    {
      "inputs": [],
      "name": "symbol",
      "outputs": [
        {
          "internalType": "string",
          "name": "",
          "type": "string"
        }
      ],
      "stateMutability": "view",
      "type": "function"
    },
    {
      "inputs": [],
      "name": "totalSupply",
      "outputs": [
        {
          "internalType": "uint256",
          "name": "",
          "type": "uint256"
        }
      ],
      "stateMutability": "view",
      "type": "function"
    },
    {
      "inputs": [
        {
          "internalType": "address",
          "name": "to",
          "type": "address"
        },
        {
          "internalType": "uint256",
          "name": "amount",
          "type": "uint256"
        }
      ],
      "name": "transfer",
      "outputs": [
        {
          "internalType": "bool",
          "name": "",
          "type": "bool"
        }
      ],
      "stateMutability": "nonpayable",
      "type": "function"
    },
    {
      "inputs": [
        {
          "internalType": "address",
          "name": "from",
          "type": "address"
        },
        {
          "internalType": "address",
          "name": "to",
          "type": "address"
        },
        {
          "internalType": "uint256",
          "name": "amount",
          "type": "uint256"
        }
      ],
      "name": "transferFrom",
      "outputs": [
        {
          "internalType": "bool",
          "name": "",
          "type": "bool"
        }
      ],
      "stateMutability": "nonpayable",
      "type": "function"
    },
    {
      "inputs": [
        {
          "internalType": "address",
          "name": "newOwner",
          "type": "address"
        }
      ],
      "name": "transferOwnership",
      "outputs": [],
      "stateMutability": "nonpayable",
      "type": "function"
    },
    {
      "inputs": [
        {
          "internalType": "address",
          "name": "",
          "type": "address"
        }
      ],
      "name": "trustedRelayers",
      "outputs": [
        {
          "internalType": "bool",
          "name": "",
          "type": "bool"
        }
      ],
      "stateMutability": "view",
      "type": "function"
    }
  ],
  "bytecode": "0x60806040523480156200001157600080fd5b506040518060400160405280600981526020016827b6b734aa37b5b2b760b91b8152506040518060400160405280600581526020016413d355d51560da1b815250816003908162000063919062000282565b50600462000072828262000282565b5050506200008f62000089620000bd60201b60201c565b620000c1565b620000b733620000a26012600a62000463565b620000b1906207a1206200047b565b62000113565b620004ab565b3390565b600580546001600160a01b038381166001600160a01b0319831681179093556040519116919082907f8be0079c531659141344cd1fd0a4f28419497f9722a3daafe3b4186f6b6457e090600090a35050565b6001600160a01b0382166200016e5760405162461bcd60e51b815260206004820152601f60248201527f45524332303a206d696e7420746f20746865207a65726f206164647265737300604482015260640160405180910390fd5b806002600082825462000182919062000495565b90915550506001600160a01b038216600081815260208181526040808320805486019055518481527fddf252ad1be2c89b69c2b068fc378daa952ba7f163c4a11628f55a4df523b3ef910160405180910390a35050565b505050565b634e487b7160e01b600052604160045260246000fd5b600181811c908216806200020957607f821691505b6020821081036200022a57634e487b7160e01b600052602260045260246000fd5b50919050565b601f821115620001d957600081815260208120601f850160051c81016020861015620002595750805b601f850160051c820191505b818110156200027a5782815560010162000265565b505050505050565b81516001600160401b038111156200029e576200029e620001de565b620002b681620002af8454620001f4565b8462000230565b602080601f831160018114620002ee5760008415620002d55750858301515b600019600386901b1c1916600185901b1785556200027a565b600085815260208120601f198616915b828110156200031f57888601518255948401946001909101908401620002fe565b50858210156200033e5787850151600019600388901b60f8161c191681555b5050505050600190811b01905550565b634e487b7160e01b600052601160045260246000fd5b600181815b80851115620003a55781600019048211156200038957620003896200034e565b808516156200039757918102915b93841c939080029062000369565b509250929050565b600082620003be575060016200045d565b81620003cd575060006200045d565b8160018114620003e65760028114620003f15762000411565b60019150506200045d565b60ff8411156200040557620004056200034e565b50506001821b6200045d565b5060208310610133831016604e8410600b841016171562000436575081810a6200045d565b62000442838362000364565b80600019048211156200045957620004596200034e565b0290505b92915050565b60006200047460ff841683620003ad565b9392505050565b80820281158282048414176200045d576200045d6200034e565b808201808211156200045d576200045d6200034e565b610e0480620004bb6000396000f3fe608060405234801561001057600080fd5b50600436106101425760003560e01c806379cc6790116100b8578063b36fcb791161007c578063b36fcb7914610297578063b9b48f50146102aa578063c57e8901146102cd578063cde86f38146102e0578063dd62ed3e1461030c578063f2fde38b1461031f57600080fd5b806379cc67901461023b5780638da5cb5b1461024e57806395d89b4114610269578063a457c2d714610271578063a9059cbb1461028457600080fd5b8063313ce5671161010a578063313ce567146101c057806339509351146101cf57806340c10f19146101e257806342966c68146101f757806370a082311461020a578063715018a61461023357600080fd5b806306fdde0314610147578063095ea7b31461016557806318160ddd1461018857806323b872dd1461019a5780632b991746146101ad575b600080fd5b61014f610332565b60405161015c9190610c35565b60405180910390f35b610178610173366004610c9f565b6103c4565b604051901515815260200161015c565b6002545b60405190815260200161015c565b6101786101a8366004610cc9565b6103de565b6101786101bb366004610cc9565b610402565b6040516012815260200161015c565b6101786101dd366004610c9f565b610461565b6101f56101f0366004610c9f565b610483565b005b6101f5610205366004610d05565b610499565b61018c610218366004610d1e565b6001600160a01b031660009081526020819052604090205490565b6101f56104a6565b6101f5610249366004610c9f565b6104ba565b6005546040516001600160a01b03909116815260200161015c565b61014f6104cf565b61017861027f366004610c9f565b6104de565b610178610292366004610c9f565b610559565b6101f56102a5366004610d1e565b610567565b6101786102b8366004610d1e565b60066020526000908152604090205460ff1681565b6101f56102db366004610d1e565b610590565b6101786102ee366004610d1e565b6001600160a01b031660009081526006602052604090205460ff1690565b61018c61031a366004610d40565b6105bc565b6101f561032d366004610d1e565b6105e7565b60606003805461034190610d73565b80601f016020809104026020016040519081016040528092919081815260200182805461036d90610d73565b80156103ba5780601f1061038f576101008083540402835291602001916103ba565b820191906000526020600020905b81548152906001019060200180831161039d57829003601f168201915b5050505050905090565b6000336103d281858561065d565b60019150505b92915050565b6000336103ec858285610782565b6103f78585856107fc565b506001949350505050565b3360009081526006602052604081205460ff1661044c5760405162461bcd60e51b8152602060048201526003602482015262272a2960e91b60448201526064015b60405180910390fd5b61045784848461065d565b5060019392505050565b6000336103d281858561047483836105bc565b61047e9190610dad565b61065d565b61048b6109a0565b61049582826109fa565b5050565b6104a33382610ab9565b50565b6104ae6109a0565b6104b86000610be3565b565b6104c5823383610782565b6104958282610ab9565b60606004805461034190610d73565b600033816104ec82866105bc565b90508381101561054c5760405162461bcd60e51b815260206004820152602560248201527f45524332303a2064656372656173656420616c6c6f77616e63652062656c6f77604482015264207a65726f60d81b6064820152608401610443565b6103f7828686840361065d565b6000336103d28185856107fc565b61056f6109a0565b6001600160a01b03166000908152600660205260409020805460ff19169055565b6105986109a0565b6001600160a01b03166000908152600660205260409020805460ff19166001179055565b6001600160a01b03918216600090815260016020908152604080832093909416825291909152205490565b6105ef6109a0565b6001600160a01b0381166106545760405162461bcd60e51b815260206004820152602660248201527f4f776e61626c653a206e6577206f776e657220697320746865207a65726f206160448201526564647265737360d01b6064820152608401610443565b6104a381610be3565b6001600160a01b0383166106bf5760405162461bcd60e51b8152602060048201526024808201527f45524332303a20617070726f76652066726f6d20746865207a65726f206164646044820152637265737360e01b6064820152608401610443565b6001600160a01b0382166107205760405162461bcd60e51b815260206004820152602260248201527f45524332303a20617070726f766520746f20746865207a65726f206164647265604482015261737360f01b6064820152608401610443565b6001600160a01b0383811660008181526001602090815260408083209487168084529482529182902085905590518481527f8c5be1e5ebec7d5bd14f71427d1e84f3dd0314c0f7b2291e5b200ac8c7c3b92591015b60405180910390a3505050565b600061078e84846105bc565b905060001981146107f657818110156107e95760405162461bcd60e51b815260206004820152601d60248201527f45524332303a20696e73756666696369656e7420616c6c6f77616e63650000006044820152606401610443565b6107f6848484840361065d565b50505050565b6001600160a01b0383166108605760405162461bcd60e51b815260206004820152602560248201527f45524332303a207472616e736665722066726f6d20746865207a65726f206164604482015264647265737360d81b6064820152608401610443565b6001600160a01b0382166108c25760405162461bcd60e51b815260206004820152602360248201527f45524332303a207472616e7366657220746f20746865207a65726f206164647260448201526265737360e81b6064820152608401610443565b6001600160a01b0383166000908152602081905260409020548181101561093a5760405162461bcd60e51b815260206004820152602660248201527f45524332303a207472616e7366657220616d6f756e7420657863656564732062604482015265616c616e636560d01b6064820152608401610443565b6001600160a01b03848116600081815260208181526040808320878703905593871680835291849020805487019055925185815290927fddf252ad1be2c89b69c2b068fc378daa952ba7f163c4a11628f55a4df523b3ef910160405180910390a36107f6565b6005546001600160a01b031633146104b85760405162461bcd60e51b815260206004820181905260248201527f4f776e61626c653a2063616c6c6572206973206e6f7420746865206f776e65726044820152606401610443565b6001600160a01b038216610a505760405162461bcd60e51b815260206004820152601f60248201527f45524332303a206d696e7420746f20746865207a65726f2061646472657373006044820152606401610443565b8060026000828254610a629190610dad565b90915550506001600160a01b038216600081815260208181526040808320805486019055518481527fddf252ad1be2c89b69c2b068fc378daa952ba7f163c4a11628f55a4df523b3ef910160405180910390a35050565b6001600160a01b038216610b195760405162461bcd60e51b815260206004820152602160248201527f45524332303a206275726e2066726f6d20746865207a65726f206164647265736044820152607360f81b6064820152608401610443565b6001600160a01b03821660009081526020819052604090205481811015610b8d5760405162461bcd60e51b815260206004820152602260248201527f45524332303a206275726e20616d6f756e7420657863656564732062616c616e604482015261636560f01b6064820152608401610443565b6001600160a01b0383166000818152602081815260408083208686039055600280548790039055518581529192917fddf252ad1be2c89b69c2b068fc378daa952ba7f163c4a11628f55a4df523b3ef9101610775565b600580546001600160a01b038381166001600160a01b0319831681179093556040519116919082907f8be0079c531659141344cd1fd0a4f28419497f9722a3daafe3b4186f6b6457e090600090a35050565b600060208083528351808285015260005b81811015610c6257858101830151858201604001528201610c46565b506000604082860101526040601f19601f8301168501019250505092915050565b80356001600160a01b0381168114610c9a57600080fd5b919050565b60008060408385031215610cb257600080fd5b610cbb83610c83565b946020939093013593505050565b600080600060608486031215610cde57600080fd5b610ce784610c83565b9250610cf560208501610c83565b9150604084013590509250925092565b600060208284031215610d1757600080fd5b5035919050565b600060208284031215610d3057600080fd5b610d3982610c83565b9392505050565b60008060408385031215610d5357600080fd5b610d5c83610c83565b9150610d6a60208401610c83565b90509250929050565b600181811c90821680610d8757607f821691505b602082108103610da757634e487b7160e01b600052602260045260246000fd5b50919050565b808201808211156103d857634e487b7160e01b600052601160045260246000fdfea2646970667358221220b8bd401c6626b46d6b7e5c078e8094bd61fbb6853cc03d54e3ef1a11af68bb0d64736f6c63430008140033",
  "linkReferences": {},
  "deployedLinkReferences": {}
}